{"abi":[{"inputs":[{"internalType":"uint256","name":"minimum","type":"uint256"},{"internalType":"address","name":"creator","type":"address"}],"stateMutability":"nonpayable","type":"constructor"},{"inputs":[{"internalType":"uint256","name":"index","type":"uint256"}],"name":"approveRequest","outputs":[],"stateMutability":"nonpayable","type":"function"},{"inputs":[],"name":"contribute","outputs":[],"stateMutability":"payable","type":"function"},{"inputs":[{"internalType":"string","name":"description","type":"string"},{"internalType":"uint256","name":"value","type":"uint256"},{"internalType":"address","name":"recipient","type":"address"}],"name":"createRequest","outputs":[],"stateMutability":"nonpayable","type":"function"},{"inputs":[{"internalType":"uint256","name":"index","type":"uint256"}],"name":"finalizeRequest","outputs":[],"stateMutability":"nonpayable","type":"function"},{"inputs":[],"name":"getSummary","outputs":[{"internalType":"uint256","name":"","type":"uint256"},{"internalType":"uint256","name":"","type":"uint256"},{"internalType":"uint256","name":"","type":"uint256"},{"internalType":"uint256","name":"","type":"uint256"},{"internalType":"address","name":"","type":"address"},{"components":[{"internalType":"string","name":"title","type":"string"},{"internalType":"string","name":"description","type":"string"},{"internalType":"uint256","name":"value","type":"uint256"},{"internalType":"string","name":"imageUrl","type":"string"},{"internalType":"string","name":"category","type":"string"},{"internalType":"uint256","name":"availableQuantity","type":"uint256"},{"internalType":"uint256","name":"deadLine","type":"uint256"}],"internalType":"struct Campaign.Reward","name":"","type":"tuple"},{"components":[{"internalType":"string","name":"title","type":"string"},{"internalType":"string","name":"subTitle","type":"string"},{"internalType":"string","name":"description","type":"string"},{"internalType":"string","name":"category","type":"string"},{"internalType":"string","name":"subCategory","type":"string"},{"internalType":"string","name":"location","type":"string"},{"internalType":"string","name":"imageUrl","type":"string"},{"internalType":"uint256","name":"launchDate","type":"uint256"},{"internalType":"uint256","name":"durationInDays","type":"uint256"}],"internalType":"struct Campaign.MetaData","name":"","type":"tuple"},{"internalType":"uint256","name":"","type":"uint256"},{"internalType":"uint256","name":"","type":"uint256"}],"stateMutability":"view","type":"function"},{"inputs":[{"internalType":"uint256","name":"","type":"uint256"}],"name":"requests","outputs":[{"internalType":"string","name":"description","type":"string"},{"internalType":"uint256","name":"value","type":"uint256"},{"internalType":"address","name":"recipient","type":"address"},{"internalType":"bool","name":"complete","type":"bool"},{"internalType":"uint256","name":"approvalCount","type":"uint256"}],"stateMutability":"view","type":"function"}],"devdoc":{"kind":"dev","methods":{},"version":1},"evm":{"assembly":"    /* \"Campaign.sol\":449:3273  contract Campaign {... */\n  mstore(0x40, 0x80)\n    /* \"Campaign.sol\":1611:1728  constructor (uint minimum, address creator) {... */\n  callvalue\n  dup1\n  iszero\n  tag_1\n  jumpi\n  0x00\n  dup1\n  revert\ntag_1:\n  pop\n  mload(0x40)\n  sub(codesize, bytecodeSize)\n  dup1\n  bytecodeSize\n  dup4\n  codecopy\n  dup2\n  dup2\n  add\n  0x40\n  mstore\n  dup2\n  add\n  swap1\n  tag_2\n  swap2\n  swap1\n  tag_3\n  jump\t// in\ntag_2:\n    /* \"Campaign.sol\":1675:1682  creator */\n  dup1\n    /* \"Campaign.sol\":1665:1672  manager */\n  0x11\n  0x00\n    /* \"Campaign.sol\":1665:1682  manager = creator */\n  0x0100\n  exp\n  dup2\n  sload\n  dup2\n  0xffffffffffffffffffffffffffffffffffffffff\n  mul\n  not\n  and\n  swap1\n  dup4\n  0xffffffffffffffffffffffffffffffffffffffff\n  and\n  mul\n  or\n  swap1\n  sstore\n  pop\n    /* \"Campaign.sol\":1714:1721  minimum */\n  dup2\n    /* \"Campaign.sol\":1692:1711  minimumContribution */\n  0x12\n    /* \"Campaign.sol\":1692:1721  minimumContribution = minimum */\n  dup2\n  swap1\n  sstore\n  pop\n    /* \"Campaign.sol\":1611:1728  constructor (uint minimum, address creator) {... */\n  pop\n  pop\n    /* \"Campaign.sol\":449:3273  contract Campaign {... */\n  jump(tag_6)\n    /* \"#utility.yul\":88:205   */\ntag_8:\n    /* \"#utility.yul\":197:198   */\n  0x00\n    /* \"#utility.yul\":194:195   */\n  dup1\n    /* \"#utility.yul\":187:199   */\n  revert\n    /* \"#utility.yul\":334:411   */\ntag_10:\n    /* \"#utility.yul\":371:378   */\n  0x00\n    /* \"#utility.yul\":400:405   */\n  dup2\n    /* \"#utility.yul\":389:405   */\n  swap1\n  pop\n    /* \"#utility.yul\":334:411   */\n  swap2\n  swap1\n  pop\n  jump\t// out\n    /* \"#utility.yul\":417:539   */\ntag_11:\n    /* \"#utility.yul\":490:514   */\n  tag_23\n    /* \"#utility.yul\":508:513   */\n  dup2\n    /* \"#utility.yul\":490:514   */\n  tag_10\n  jump\t// in\ntag_23:\n    /* \"#utility.yul\":483:488   */\n  dup2\n    /* \"#utility.yul\":480:515   */\n  eq\n    /* \"#utility.yul\":470:533   */\n  tag_24\n  jumpi\n    /* \"#utility.yul\":529:530   */\n  0x00\n    /* \"#utility.yul\":526:527   */\n  dup1\n    /* \"#utility.yul\":519:531   */\n  revert\n    /* \"#utility.yul\":470:533   */\ntag_24:\n    /* \"#utility.yul\":417:539   */\n  pop\n  jump\t// out\n    /* \"#utility.yul\":545:688   */\ntag_12:\n    /* \"#utility.yul\":602:607   */\n  0x00\n    /* \"#utility.yul\":633:639   */\n  dup2\n    /* \"#utility.yul\":627:640   */\n  mload\n    /* \"#utility.yul\":618:640   */\n  swap1\n  pop\n    /* \"#utility.yul\":649:682   */\n  tag_26\n    /* \"#utility.yul\":676:681   */\n  dup2\n    /* \"#utility.yul\":649:682   */\n  tag_11\n  jump\t// in\ntag_26:\n    /* \"#utility.yul\":545:688   */\n  swap3\n  swap2\n  pop\n  pop\n  jump\t// out\n    /* \"#utility.yul\":694:820   */\ntag_13:\n    /* \"#utility.yul\":731:738   */\n  0x00\n    /* \"#utility.yul\":771:813   */\n  0xffffffffffffffffffffffffffffffffffffffff\n    /* \"#utility.yul\":764:769   */\n  dup3\n    /* \"#utility.yul\":760:814   */\n  and\n    /* \"#utility.yul\":749:814   */\n  swap1\n  pop\n    /* \"#utility.yul\":694:820   */\n  swap2\n  swap1\n  pop\n  jump\t// out\n    /* \"#utility.yul\":826:922   */\ntag_14:\n    /* \"#utility.yul\":863:870   */\n  0x00\n    /* \"#utility.yul\":892:916   */\n  tag_29\n    /* \"#utility.yul\":910:915   */\n  dup3\n    /* \"#utility.yul\":892:916   */\n  tag_13\n  jump\t// in\ntag_29:\n    /* \"#utility.yul\":881:916   */\n  swap1\n  pop\n    /* \"#utility.yul\":826:922   */\n  swap2\n  swap1\n  pop\n  jump\t// out\n    /* \"#utility.yul\":928:1050   */\ntag_15:\n    /* \"#utility.yul\":1001:1025   */\n  tag_31\n    /* \"#utility.yul\":1019:1024   */\n  dup2\n    /* \"#utility.yul\":1001:1025   */\n  tag_14\n  jump\t// in\ntag_31:\n    /* \"#utility.yul\":994:999   */\n  dup2\n    /* \"#utility.yul\":991:1026   */\n  eq\n    /* \"#utility.yul\":981:1044   */\n  tag_32\n  jumpi\n    /* \"#utility.yul\":1040:1041   */\n  0x00\n    /* \"#utility.yul\":1037:1038   */\n  dup1\n    /* \"#utility.yul\":1030:1042   */\n  revert\n    /* \"#utility.yul\":981:1044   */\ntag_32:\n    /* \"#utility.yul\":928:1050   */\n  pop\n  jump\t// out\n    /* \"#utility.yul\":1056:1199   */\ntag_16:\n    /* \"#utility.yul\":1113:1118   */\n  0x00\n    /* \"#utility.yul\":1144:1150   */\n  dup2\n    /* \"#utility.yul\":1138:1151   */\n  mload\n    /* \"#utility.yul\":1129:1151   */\n  swap1\n  pop\n    /* \"#utility.yul\":1160:1193   */\n  tag_34\n    /* \"#utility.yul\":1187:1192   */\n  dup2\n    /* \"#utility.yul\":1160:1193   */\n  tag_15\n  jump\t// in\ntag_34:\n    /* \"#utility.yul\":1056:1199   */\n  swap3\n  swap2\n  pop\n  pop\n  jump\t// out\n    /* \"#utility.yul\":1205:1712   */\ntag_3:\n    /* \"#utility.yul\":1284:1290   */\n  0x00\n    /* \"#utility.yul\":1292:1298   */\n  dup1\n    /* \"#utility.yul\":1341:1343   */\n  0x40\n    /* \"#utility.yul\":1329:1338   */\n  dup4\n    /* \"#utility.yul\":1320:1327   */\n  dup6\n    /* \"#utility.yul\":1316:1339   */\n  sub\n    /* \"#utility.yul\":1312:1344   */\n  slt\n    /* \"#utility.yul\":1309:1428   */\n  iszero\n  tag_36\n  jumpi\n    /* \"#utility.yul\":1347:1426   */\n  tag_37\n  tag_8\n  jump\t// in\ntag_37:\n    /* \"#utility.yul\":1309:1428   */\ntag_36:\n    /* \"#utility.yul\":1467:1468   */\n  0x00\n    /* \"#utility.yul\":1492:1556   */\n  tag_38\n    /* \"#utility.yul\":1548:1555   */\n  dup6\n    /* \"#utility.yul\":1539:1545   */\n  dup3\n    /* \"#utility.yul\":1528:1537   */\n  dup7\n    /* \"#utility.yul\":1524:1546   */\n  add\n    /* \"#utility.yul\":1492:1556   */\n  tag_12\n  jump\t// in\ntag_38:\n    /* \"#utility.yul\":1482:1556   */\n  swap3\n  pop\n    /* \"#utility.yul\":1438:1566   */\n  pop\n    /* \"#utility.yul\":1605:1607   */\n  0x20\n    /* \"#utility.yul\":1631:1695   */\n  tag_39\n    /* \"#utility.yul\":1687:1694   */\n  dup6\n    /* \"#utility.yul\":1678:1684   */\n  dup3\n    /* \"#utility.yul\":1667:1676   */\n  dup7\n    /* \"#utility.yul\":1663:1685   */\n  add\n    /* \"#utility.yul\":1631:1695   */\n  tag_16\n  jump\t// in\ntag_39:\n    /* \"#utility.yul\":1621:1695   */\n  swap2\n  pop\n    /* \"#utility.yul\":1576:1705   */\n  pop\n    /* \"#utility.yul\":1205:1712   */\n  swap3\n  pop\n  swap3\n  swap1\n  pop\n  jump\t// out\n    /* \"Campaign.sol\":449:3273  contract Campaign {... */\ntag_6:\n  dataSize(sub_0)\n  dup1\n  dataOffset(sub_0)\n  0x00\n  codecopy\n  0x00\n  return\nstop\n\nsub_0: assembly {\n        /* \"Campaign.sol\":449:3273  contract Campaign {... */\n      mstore(0x40, 0x80)\n      jumpi(tag_1, lt(calldatasize, 0x04))\n      shr(0xe0, calldataload(0x00))\n      dup1\n      0x03441006\n      eq\n      tag_2\n      jumpi\n      dup1\n      0x4051ddac\n      eq\n      tag_3\n      jumpi\n      dup1\n      0x81d12c58\n      eq\n      tag_4\n      jumpi\n      dup1\n      0x8a9cfd55\n      eq\n      tag_5\n      jumpi\n      dup1\n      0xd7bb99ba\n      eq\n      tag_6\n      jumpi\n      dup1\n      0xd7d1bbdb\n      eq\n      tag_7\n      jumpi\n    tag_1:\n      0x00\n      dup1\n      revert\n        /* \"Campaign.sol\":2559:2869  function finalizeRequest(uint index) public restricted {... */\n    tag_2:\n      callvalue\n      dup1\n      iszero\n      tag_8\n      jumpi\n      0x00\n      dup1\n      revert\n    tag_8:\n      pop\n      tag_9\n      0x04\n      dup1\n      calldatasize\n      sub\n      dup2\n      add\n      swap1\n      tag_10\n      swap2\n      swap1\n      tag_11\n      jump\t// in\n    tag_10:\n      tag_12\n      jump\t// in\n    tag_9:\n      stop\n        /* \"Campaign.sol\":2875:3271  function getSummary() public view returns (uint, uint, uint, uint, address, Reward memory, MetaData memory, uint, uint) {... */\n    tag_3:\n      callvalue\n      dup1\n      iszero\n      tag_13\n      jumpi\n      0x00\n      dup1\n      revert\n    tag_13:\n      pop\n      tag_14\n      tag_15\n      jump\t// in\n    tag_14:\n      mload(0x40)\n      tag_16\n      swap10\n      swap9\n      swap8\n      swap7\n      swap6\n      swap5\n      swap4\n      swap3\n      swap2\n      swap1\n      tag_17\n      jump\t// in\n    tag_16:\n      mload(0x40)\n      dup1\n      swap2\n      sub\n      swap1\n      return\n        /* \"Campaign.sol\":1134:1159  Request[] public requests */\n    tag_4:\n      callvalue\n      dup1\n      iszero\n      tag_18\n      jumpi\n      0x00\n      dup1\n      revert\n    tag_18:\n      pop\n      tag_19\n      0x04\n      dup1\n      calldatasize\n      sub\n      dup2\n      add\n      swap1\n      tag_20\n      swap2\n      swap1\n      tag_11\n      jump\t// in\n    tag_20:\n      tag_21\n      jump\t// in\n    tag_19:\n      mload(0x40)\n      tag_22\n      swap6\n      swap5\n      swap4\n      swap3\n      swap2\n      swap1\n      tag_23\n      jump\t// in\n    tag_22:\n      mload(0x40)\n      dup1\n      swap2\n      sub\n      swap1\n      return\n        /* \"Campaign.sol\":1905:2262  function createRequest(string memory description, uint value, address recipient) public restricted {... */\n    tag_5:\n      callvalue\n      dup1\n      iszero\n      tag_24\n      jumpi\n      0x00\n      dup1\n      revert\n    tag_24:\n      pop\n      tag_25\n      0x04\n      dup1\n      calldatasize\n      sub\n      dup2\n      add\n      swap1\n      tag_26\n      swap2\n      swap1\n      tag_27\n      jump\t// in\n    tag_26:\n      tag_28\n      jump\t// in\n    tag_25:\n      stop\n        /* \"Campaign.sol\":1734:1899  function contribute() public payable {... */\n    tag_6:\n      tag_29\n      tag_30\n      jump\t// in\n    tag_29:\n      stop\n        /* \"Campaign.sol\":2268:2553  function approveRequest(uint index) public nonManager {... */\n    tag_7:\n      callvalue\n      dup1\n      iszero\n      tag_31\n      jumpi\n      0x00\n      dup1\n      revert\n    tag_31:\n      pop\n      tag_32\n      0x04\n      dup1\n      calldatasize\n      sub\n      dup2\n      add\n      swap1\n      tag_33\n      swap2\n      swap1\n      tag_11\n      jump\t// in\n    tag_33:\n      tag_34\n      jump\t// in\n    tag_32:\n      stop\n        /* \"Campaign.sol\":2559:2869  function finalizeRequest(uint index) public restricted {... */\n    tag_12:\n        /* \"Campaign.sol\":1493:1500  manager */\n      0x11\n      0x00\n      swap1\n      sload\n      swap1\n      0x0100\n      exp\n      swap1\n      div\n      0xffffffffffffffffffffffffffffffffffffffff\n      and\n        /* \"Campaign.sol\":1479:1500  msg.sender == manager */\n      0xffffffffffffffffffffffffffffffffffffffff\n      and\n        /* \"Campaign.sol\":1479:1489  msg.sender */\n      caller\n        /* \"Campaign.sol\":1479:1500  msg.sender == manager */\n      0xffffffffffffffffffffffffffffffffffffffff\n      and\n      eq\n        /* \"Campaign.sol\":1471:1501  require(msg.sender == manager) */\n      tag_36\n      jumpi\n      0x00\n      dup1\n      revert\n    tag_36:\n        /* \"Campaign.sol\":2624:2647  Request storage request */\n      0x00\n        /* \"Campaign.sol\":2650:2658  requests */\n      dup1\n        /* \"Campaign.sol\":2659:2664  index */\n      dup3\n        /* \"Campaign.sol\":2650:2665  requests[index] */\n      dup2\n      sload\n      dup2\n      lt\n      tag_38\n      jumpi\n      tag_39\n      tag_40\n      jump\t// in\n    tag_39:\n    tag_38:\n      swap1\n      0x00\n      mstore\n      keccak256(0x00, 0x20)\n      swap1\n      0x05\n      mul\n      add\n        /* \"Campaign.sol\":2624:2665  Request storage request = requests[index] */\n      swap1\n      pop\n        /* \"Campaign.sol\":2729:2730  2 */\n      0x02\n        /* \"Campaign.sol\":2709:2726  contributorsCount */\n      sload(0x14)\n        /* \"Campaign.sol\":2709:2730  contributorsCount / 2 */\n      tag_42\n      swap2\n      swap1\n      tag_43\n      jump\t// in\n    tag_42:\n        /* \"Campaign.sol\":2684:2691  request */\n      dup2\n        /* \"Campaign.sol\":2684:2705  request.approvalCount */\n      0x03\n      add\n      sload\n        /* \"Campaign.sol\":2684:2731  request.approvalCount > (contributorsCount / 2) */\n      gt\n        /* \"Campaign.sol\":2676:2732  require(request.approvalCount > (contributorsCount / 2)) */\n      tag_44\n      jumpi\n      0x00\n      dup1\n      revert\n    tag_44:\n        /* \"Campaign.sol\":2751:2758  request */\n      dup1\n        /* \"Campaign.sol\":2751:2767  request.complete */\n      0x02\n      add\n      0x14\n      swap1\n      sload\n      swap1\n      0x0100\n      exp\n      swap1\n      div\n      0xff\n      and\n        /* \"Campaign.sol\":2750:2767  !request.complete */\n      iszero\n        /* \"Campaign.sol\":2742:2768  require(!request.complete) */\n      tag_45\n      jumpi\n      0x00\n      dup1\n      revert\n    tag_45:\n        /* \"Campaign.sol\":2787:2794  request */\n      dup1\n        /* \"Campaign.sol\":2787:2804  request.recipient */\n      0x02\n      add\n      0x00\n      swap1\n      sload\n      swap1\n      0x0100\n      exp\n      swap1\n      div\n      0xffffffffffffffffffffffffffffffffffffffff\n      and\n        /* \"Campaign.sol\":2779:2814  payable(request.recipient).transfer */\n      0xffffffffffffffffffffffffffffffffffffffff\n      and\n        /* \"Campaign.sol\":2779:2829  payable(request.recipient).transfer(request.value) */\n      0x08fc\n        /* \"Campaign.sol\":2815:2822  request */\n      dup3\n        /* \"Campaign.sol\":2815:2828  request.value */\n      0x01\n      add\n      sload\n        /* \"Campaign.sol\":2779:2829  payable(request.recipient).transfer(request.value) */\n      swap1\n      dup2\n      iszero\n      mul\n      swap1\n      mload(0x40)\n      0x00\n      mload(0x40)\n      dup1\n      dup4\n      sub\n      dup2\n      dup6\n      dup9\n      dup9\n      call\n      swap4\n      pop\n      pop\n      pop\n      pop\n      iszero\n      dup1\n      iszero\n      tag_47\n      jumpi\n      returndatasize\n      0x00\n      dup1\n      returndatacopy\n      revert(0x00, returndatasize)\n    tag_47:\n      pop\n        /* \"Campaign.sol\":2858:2862  true */\n      0x01\n        /* \"Campaign.sol\":2839:2846  request */\n      dup2\n        /* \"Campaign.sol\":2839:2855  request.complete */\n      0x02\n      add\n      0x14\n        /* \"Campaign.sol\":2839:2862  request.complete = true */\n      0x0100\n      exp\n      dup2\n      sload\n      dup2\n      0xff\n      mul\n      not\n      and\n      swap1\n      dup4\n      iszero\n      iszero\n      mul\n      or\n      swap1\n      sstore\n      pop\n        /* \"Campaign.sol\":2614:2869  {... */\n      pop\n        /* \"Campaign.sol\":2559:2869  function finalizeRequest(uint index) public restricted {... */\n      pop\n      jump\t// out\n        /* \"Campaign.sol\":2875:3271  function getSummary() public view returns (uint, uint, uint, uint, address, Reward memory, MetaData memory, uint, uint) {... */\n    tag_15:\n        /* \"Campaign.sol\":2918:2922  uint */\n      0x00\n        /* \"Campaign.sol\":2924:2928  uint */\n      dup1\n        /* \"Campaign.sol\":2930:2934  uint */\n      0x00\n        /* \"Campaign.sol\":2936:2940  uint */\n      dup1\n        /* \"Campaign.sol\":2942:2949  address */\n      0x00\n        /* \"Campaign.sol\":2951:2964  Reward memory */\n      tag_48\n      tag_49\n      jump\t// in\n    tag_48:\n        /* \"Campaign.sol\":2966:2981  MetaData memory */\n      tag_50\n      tag_51\n      jump\t// in\n    tag_50:\n        /* \"Campaign.sol\":2983:2987  uint */\n      0x00\n        /* \"Campaign.sol\":2989:2993  uint */\n      dup1\n        /* \"Campaign.sol\":3026:3045  minimumContribution */\n      sload(0x12)\n        /* \"Campaign.sol\":3059:3080  address(this).balance */\n      selfbalance\n        /* \"Campaign.sol\":3094:3102  requests */\n      0x00\n        /* \"Campaign.sol\":3094:3109  requests.length */\n      dup1\n      sload\n      swap1\n      pop\n        /* \"Campaign.sol\":3123:3140  contributorsCount */\n      sload(0x14)\n        /* \"Campaign.sol\":3154:3161  manager */\n      0x11\n      0x00\n      swap1\n      sload\n      swap1\n      0x0100\n      exp\n      swap1\n      div\n      0xffffffffffffffffffffffffffffffffffffffff\n      and\n        /* \"Campaign.sol\":3175:3181  reward */\n      0x01\n        /* \"Campaign.sol\":3195:3203  metaData */\n      0x08\n        /* \"Campaign.sol\":3217:3229  targetAmount */\n      sload(0x15)\n        /* \"Campaign.sol\":3243:3254  dateCreated */\n      sload(0x16)\n        /* \"Campaign.sol\":3005:3264  return (... */\n      dup4\n      mload(0x40)\n      dup1\n      0xe0\n      add\n      0x40\n      mstore\n      swap1\n      dup2\n      0x00\n      dup3\n      add\n      dup1\n      sload\n      tag_53\n      swap1\n      tag_54\n      jump\t// in\n    tag_53:\n      dup1\n      0x1f\n      add\n      0x20\n      dup1\n      swap2\n      div\n      mul\n      0x20\n      add\n      mload(0x40)\n      swap1\n      dup2\n      add\n      0x40\n      mstore\n      dup1\n      swap3\n      swap2\n      swap1\n      dup2\n      dup2\n      mstore\n      0x20\n      add\n      dup3\n      dup1\n      sload\n      tag_55\n      swap1\n      tag_54\n      jump\t// in\n    tag_55:\n      dup1\n      iszero\n      tag_56\n      jumpi\n      dup1\n      0x1f\n      lt\n      tag_57\n      jumpi\n      0x0100\n      dup1\n      dup4\n      sload\n      div\n      mul\n      dup4\n      mstore\n      swap2\n      0x20\n      add\n      swap2\n      jump(tag_56)\n    tag_57:\n      dup3\n      add\n      swap2\n      swap1\n      0x00\n      mstore\n      keccak256(0x00, 0x20)\n      swap1\n    tag_58:\n      dup2\n      sload\n      dup2\n      mstore\n      swap1\n      0x01\n      add\n      swap1\n      0x20\n      add\n      dup1\n      dup4\n      gt\n      tag_58\n      jumpi\n      dup3\n      swap1\n      sub\n      0x1f\n      and\n      dup3\n      add\n      swap2\n    tag_56:\n      pop\n      pop\n      pop\n      pop\n      pop\n      dup2\n      mstore\n      0x20\n      add\n      0x01\n      dup3\n      add\n      dup1\n      sload\n      tag_59\n      swap1\n      tag_54\n      jump\t// in\n    tag_59:\n      dup1\n      0x1f\n      add\n      0x20\n      dup1\n      swap2\n      div\n      mul\n      0x20\n      add\n      mload(0x40)\n      swap1\n      dup2\n      add\n      0x40\n      mstore\n      dup1\n      swap3\n      swap2\n      swap1\n      dup2\n      dup2\n      mstore\n      0x20\n      add\n      dup3\n      dup1\n      sload\n      tag_60\n      swap1\n      tag_54\n      jump\t// in\n    tag_60:\n      dup1\n      iszero\n      tag_61\n      jumpi\n      dup1\n      0x1f\n      lt\n      tag_62\n      jumpi\n      0x0100\n      dup1\n      dup4\n      sload\n      div\n      mul\n      dup4\n      mstore\n      swap2\n      0x20\n      add\n      swap2\n      jump(tag_61)\n    tag_62:\n      dup3\n      add\n      swap2\n      swap1\n      0x00\n      mstore\n      keccak256(0x00, 0x20)\n      swap1\n    tag_63:\n      dup2\n      sload\n      dup2\n      mstore\n      swap1\n      0x01\n      add\n      swap1\n      0x20\n      add\n      dup1\n      dup4\n      gt\n      tag_63\n      jumpi\n      dup3\n      swap1\n      sub\n      0x1f\n      and\n      dup3\n      add\n      swap2\n    tag_61:\n      pop\n      pop\n      pop\n      pop\n      pop\n      dup2\n      mstore\n      0x20\n      add\n      0x02\n      dup3\n      add\n      sload\n      dup2\n      mstore\n      0x20\n      add\n      0x03\n      dup3\n      add\n      dup1\n      sload\n      tag_64\n      swap1\n      tag_54\n      jump\t// in\n    tag_64:\n      dup1\n      0x1f\n      add\n      0x20\n      dup1\n      swap2\n      div\n      mul\n      0x20\n      add\n      mload(0x40)\n      swap1\n      dup2\n      add\n      0x40\n      mstore\n      dup1\n      swap3\n      swap2\n      swap1\n      dup2\n      dup2\n      mstore\n      0x20\n      add\n      dup3\n      dup1\n      sload\n      tag_65\n      swap1\n      tag_54\n      jump\t// in\n    tag_65:\n      dup1\n      iszero\n      tag_66\n      jumpi\n      dup1\n      0x1f\n      lt\n      tag_67\n      jumpi\n      0x0100\n      dup1\n      dup4\n      sload\n      div\n      mul\n      dup4\n      mstore\n      swap2\n      0x20\n      add\n      swap2\n      jump(tag_66)\n    tag_67:\n      dup3\n      add\n      swap2\n      swap1\n      0x00\n      mstore\n      keccak256(0x00, 0x20)\n      swap1\n    tag_68:\n      dup2\n      sload\n      dup2\n      mstore\n      swap1\n      0x01\n      add\n      swap1\n      0x20\n      add\n      dup1\n      dup4\n      gt\n      tag_68\n      jumpi\n      dup3\n      swap1\n      sub\n      0x1f\n      and\n      dup3\n      add\n      swap2\n    tag_66:\n      pop\n      pop\n      pop\n      pop\n      pop\n      dup2\n      mstore\n      0x20\n      add\n      0x04\n      dup3\n      add\n      dup1\n      sload\n      tag_69\n      swap1\n      tag_54\n      jump\t// in\n    tag_69:\n      dup1\n      0x1f\n      add\n      0x20\n      dup1\n      swap2\n      div\n      mul\n      0x20\n      add\n      mload(0x40)\n      swap1\n      dup2\n      add\n      0x40\n      mstore\n      dup1\n      swap3\n      swap2\n      swap1\n      dup2\n      dup2\n      mstore\n      0x20\n      add\n      dup3\n      dup1\n      sload\n      tag_70\n      swap1\n      tag_54\n      jump\t// in\n    tag_70:\n      dup1\n      iszero\n      tag_71\n      jumpi\n      dup1\n      0x1f\n      lt\n      tag_72\n      jumpi\n      0x0100\n      dup1\n      dup4\n      sload\n      div\n      mul\n      dup4\n      mstore\n      swap2\n      0x20\n      add\n      swap2\n      jump(tag_71)\n    tag_72:\n      dup3\n      add\n      swap2\n      swap1\n      0x00\n      mstore\n      keccak256(0x00, 0x20)\n      swap1\n    tag_73:\n      dup2\n      sload\n      dup2\n      mstore\n      swap1\n      0x01\n      add\n      swap1\n      0x20\n      add\n      dup1\n      dup4\n      gt\n      tag_73\n      jumpi\n      dup3\n      swap1\n      sub\n      0x1f\n      and\n      dup3\n      add\n      swap2\n    tag_71:\n      pop\n      pop\n      pop\n      pop\n      pop\n      dup2\n      mstore\n      0x20\n      add\n      0x05\n      dup3\n      add\n      sload\n      dup2\n      mstore\n      0x20\n      add\n      0x06\n      dup3\n      add\n      sload\n      dup2\n      mstore\n      pop\n      pop\n      swap4\n      pop\n      dup3\n      mload(0x40)\n      dup1\n      0x0120\n      add\n      0x40\n      mstore\n      swap1\n      dup2\n      0x00\n      dup3\n      add\n      dup1\n      sload\n      tag_74\n      swap1\n      tag_54\n      jump\t// in\n    tag_74:\n      dup1\n      0x1f\n      add\n      0x20\n      dup1\n      swap2\n      div\n      mul\n      0x20\n      add\n      mload(0x40)\n      swap1\n      dup2\n      add\n      0x40\n      mstore\n      dup1\n      swap3\n      swap2\n      swap1\n      dup2\n      dup2\n      mstore\n      0x20\n      add\n      dup3\n      dup1\n      sload\n      tag_75\n      swap1\n      tag_54\n      jump\t// in\n    tag_75:\n      dup1\n      iszero\n      tag_76\n      jumpi\n      dup1\n      0x1f\n      lt\n      tag_77\n      jumpi\n      0x0100\n      dup1\n      dup4\n      sload\n      div\n      mul\n      dup4\n      mstore\n      swap2\n      0x20\n      add\n      swap2\n      jump(tag_76)\n    tag_77:\n      dup3\n      add\n      swap2\n      swap1\n      0x00\n      mstore\n      keccak256(0x00, 0x20)\n      swap1\n    tag_78:\n      dup2\n      sload\n      dup2\n      mstore\n      swap1\n      0x01\n      add\n      swap1\n      0x20\n      add\n      dup1\n      dup4\n      gt\n      tag_78\n      jumpi\n      dup3\n      swap1\n      sub\n      0x1f\n      and\n      dup3\n      add\n      swap2\n    tag_76:\n      pop\n      pop\n      pop\n      pop\n      pop\n      dup2\n      mstore\n      0x20\n      add\n      0x01\n      dup3\n      add\n      dup1\n      sload\n      tag_79\n      swap1\n      tag_54\n      jump\t// in\n    tag_79:\n      dup1\n      0x1f\n      add\n      0x20\n      dup1\n      swap2\n      div\n      mul\n      0x20\n      add\n      mload(0x40)\n      swap1\n      dup2\n      add\n      0x40\n      mstore\n      dup1\n      swap3\n      swap2\n      swap1\n      dup2\n      dup2\n      mstore\n      0x20\n      add\n      dup3\n      dup1\n      sload\n      tag_80\n      swap1\n      tag_54\n      jump\t// in\n    tag_80:\n      dup1\n      iszero\n      tag_81\n      jumpi\n      dup1\n      0x1f\n      lt\n      tag_82\n      jumpi\n      0x0100\n      dup1\n      dup4\n      sload\n      div\n      mul\n      dup4\n      mstore\n      swap2\n      0x20\n      add\n      swap2\n      jump(tag_81)\n    tag_82:\n      dup3\n      add\n      swap2\n      swap1\n      0x00\n      mstore\n      keccak256(0x00, 0x20)\n      swap1\n    tag_83:\n      dup2\n      sload\n      dup2\n      mstore\n      swap1\n      0x01\n      add\n      swap1\n      0x20\n      add\n      dup1\n      dup4\n      gt\n      tag_83\n      jumpi\n      dup3\n      swap1\n      sub\n      0x1f\n      and\n      dup3\n      add\n      swap2\n    tag_81:\n      pop\n      pop\n      pop\n      pop\n      pop\n      dup2\n      mstore\n      0x20\n      add\n      0x02\n      dup3\n      add\n      dup1\n      sload\n      tag_84\n      swap1\n      tag_54\n      jump\t// in\n    tag_84:\n      dup1\n      0x1f\n      add\n      0x20\n      dup1\n      swap2\n      div\n      mul\n      0x20\n      add\n      mload(0x40)\n      swap1\n      dup2\n      add\n      0x40\n      mstore\n      dup1\n      swap3\n      swap2\n      swap1\n      dup2\n      dup2\n      mstore\n      0x20\n      add\n      dup3\n      dup1\n      sload\n      tag_85\n      swap1\n      tag_54\n      jump\t// in\n    tag_85:\n      dup1\n      iszero\n      tag_86\n      jumpi\n      dup1\n      0x1f\n      lt\n      tag_87\n      jumpi\n      0x0100\n      dup1\n      dup4\n      sload\n      div\n      mul\n      dup4\n      mstore\n      swap2\n      0x20\n      add\n      swap2\n      jump(tag_86)\n    tag_87:\n      dup3\n      add\n      swap2\n      swap1\n      0x00\n      mstore\n      keccak256(0x00, 0x20)\n      swap1\n    tag_88:\n      dup2\n      sload\n      dup2\n      mstore\n      swap1\n      0x01\n      add\n      swap1\n      0x20\n      add\n      dup1\n      dup4\n      gt\n      tag_88\n      jumpi\n      dup3\n      swap1\n      sub\n      0x1f\n      and\n      dup3\n      add\n      swap2\n    tag_86:\n      pop\n      pop\n      pop\n      pop\n      pop\n      dup2\n      mstore\n      0x20\n      add\n      0x03\n      dup3\n      add\n      dup1\n      sload\n      tag_89\n      swap1\n      tag_54\n      jump\t// in\n    tag_89:\n      dup1\n      0x1f\n      add\n      0x20\n      dup1\n      swap2\n      div\n      mul\n      0x20\n      add\n      mload(0x40)\n      swap1\n      dup2\n      add\n      0x40\n      mstore\n      dup1\n      swap3\n      swap2\n      swap1\n      dup2\n      dup2\n      mstore\n      0x20\n      add\n      dup3\n      dup1\n      sload\n      tag_90\n      swap1\n      tag_54\n      jump\t// in\n    tag_90:\n      dup1\n      iszero\n      tag_91\n      jumpi\n      dup1\n      0x1f\n      lt\n      tag_92\n      jumpi\n      0x0100\n      dup1\n      dup4\n      sload\n      div\n      mul\n      dup4\n      mstore\n      swap2\n      0x20\n      add\n      swap2\n      jump(tag_91)\n    tag_92:\n      dup3\n      add\n      swap2\n      swap1\n      0x00\n      mstore\n      keccak256(0x00, 0x20)\n      swap1\n    tag_93:\n      dup2\n      sload\n      dup2\n      mstore\n      swap1\n      0x01\n      add\n      swap1\n      0x20\n      add\n      dup1\n      dup4\n      gt\n      tag_93\n      jumpi\n      dup3\n      swap1\n      sub\n      0x1f\n      and\n      dup3\n      add\n      swap2\n    tag_91:\n      pop\n      pop\n      pop\n      pop\n      pop\n      dup2\n      mstore\n      0x20\n      add\n      0x04\n      dup3\n      add\n      dup1\n      sload\n      tag_94\n      swap1\n      tag_54\n      jump\t// in\n    tag_94:\n      dup1\n      0x1f\n      add\n      0x20\n      dup1\n      swap2\n      div\n      mul\n      0x20\n      add\n      mload(0x40)\n      swap1\n      dup2\n      add\n      0x40\n      mstore\n      dup1\n      swap3\n      swap2\n      swap1\n      dup2\n      dup2\n      mstore\n      0x20\n      add\n      dup3\n      dup1\n      sload\n      tag_95\n      swap1\n      tag_54\n      jump\t// in\n    tag_95:\n      dup1\n      iszero\n      tag_96\n      jumpi\n      dup1\n      0x1f\n      lt\n      tag_97\n      jumpi\n      0x0100\n      dup1\n      dup4\n      sload\n      div\n      mul\n      dup4\n      mstore\n      swap2\n      0x20\n      add\n      swap2\n      jump(tag_96)\n    tag_97:\n      dup3\n      add\n      swap2\n      swap1\n      0x00\n      mstore\n      keccak256(0x00, 0x20)\n      swap1\n    tag_98:\n      dup2\n      sload\n      dup2\n      mstore\n      swap1\n      0x01\n      add\n      swap1\n      0x20\n      add\n      dup1\n      dup4\n      gt\n      tag_98\n      jumpi\n      dup3\n      swap1\n      sub\n      0x1f\n      and\n      dup3\n      add\n      swap2\n    tag_96:\n      pop\n      pop\n      pop\n      pop\n      pop\n      dup2\n      mstore\n      0x20\n      add\n      0x05\n      dup3\n      add\n      dup1\n      sload\n      tag_99\n      swap1\n      tag_54\n      jump\t// in\n    tag_99:\n      dup1\n      0x1f\n      add\n      0x20\n      dup1\n      swap2\n      div\n      mul\n      0x20\n      add\n      mload(0x40)\n      swap1\n      dup2\n      add\n      0x40\n      mstore\n      dup1\n      swap3\n      swap2\n      swap1\n      dup2\n      dup2\n      mstore\n      0x20\n      add\n      dup3\n      dup1\n      sload\n      tag_100\n      swap1\n      tag_54\n      jump\t// in\n    tag_100:\n      dup1\n      iszero\n      tag_101\n      jumpi\n      dup1\n      0x1f\n      lt\n      tag_102\n      jumpi\n      0x0100\n      dup1\n      dup4\n      sload\n      div\n      mul\n      dup4\n      mstore\n      swap2\n      0x20\n      add\n      swap2\n      jump(tag_101)\n    tag_102:\n      dup3\n      add\n      swap2\n      swap1\n      0x00\n      mstore\n      keccak256(0x00, 0x20)\n      swap1\n    tag_103:\n      dup2\n      sload\n      dup2\n      mstore\n      swap1\n      0x01\n      add\n      swap1\n      0x20\n      add\n      dup1\n      dup4\n      gt\n      tag_103\n      jumpi\n      dup3\n      swap1\n      sub\n      0x1f\n      and\n      dup3\n      add\n      swap2\n    tag_101:\n      pop\n      pop\n      pop\n      pop\n      pop\n      dup2\n      mstore\n      0x20\n      add\n      0x06\n      dup3\n      add\n      dup1\n      sload\n      tag_104\n      swap1\n      tag_54\n      jump\t// in\n    tag_104:\n      dup1\n      0x1f\n      add\n      0x20\n      dup1\n      swap2\n      div\n      mul\n      0x20\n      add\n      mload(0x40)\n      swap1\n      dup2\n      add\n      0x40\n      mstore\n      dup1\n      swap3\n      swap2\n      swap1\n      dup2\n      dup2\n      mstore\n      0x20\n      add\n      dup3\n      dup1\n      sload\n      tag_105\n      swap1\n      tag_54\n      jump\t// in\n    tag_105:\n      dup1\n      iszero\n      tag_106\n      jumpi\n      dup1\n      0x1f\n      lt\n      tag_107\n      jumpi\n      0x0100\n      dup1\n      dup4\n      sload\n      div\n      mul\n      dup4\n      mstore\n      swap2\n      0x20\n      add\n      swap2\n      jump(tag_106)\n    tag_107:\n      dup3\n      add\n      swap2\n      swap1\n      0x00\n      mstore\n      keccak256(0x00, 0x20)\n      swap1\n    tag_108:\n      dup2\n      sload\n      dup2\n      mstore\n      swap1\n      0x01\n      add\n      swap1\n      0x20\n      add\n      dup1\n      dup4\n      gt\n      tag_108\n      jumpi\n      dup3\n      swap1\n      sub\n      0x1f\n      and\n      dup3\n      add\n      swap2\n    tag_106:\n      pop\n      pop\n      pop\n      pop\n      pop\n      dup2\n      mstore\n      0x20\n      add\n      0x07\n      dup3\n      add\n      sload\n      dup2\n      mstore\n      0x20\n      add\n      0x08\n      dup3\n      add\n      sload\n      dup2\n      mstore\n      pop\n      pop\n      swap3\n      pop\n      swap9\n      pop\n      swap9\n      pop\n      swap9\n      pop\n      swap9\n      pop\n      swap9\n      pop\n      swap9\n      pop\n      swap9\n      pop\n      swap9\n      pop\n      swap9\n      pop\n        /* \"Campaign.sol\":2875:3271  function getSummary() public view returns (uint, uint, uint, uint, address, Reward memory, MetaData memory, uint, uint) {... */\n      swap1\n      swap2\n      swap3\n      swap4\n      swap5\n      swap6\n      swap7\n      swap8\n      swap9\n      jump\t// out\n        /* \"Campaign.sol\":1134:1159  Request[] public requests */\n    tag_21:\n      0x00\n      dup2\n      dup2\n      sload\n      dup2\n      lt\n      tag_109\n      jumpi\n      0x00\n      dup1\n      revert\n    tag_109:\n      swap1\n      0x00\n      mstore\n      keccak256(0x00, 0x20)\n      swap1\n      0x05\n      mul\n      add\n      0x00\n      swap2\n      pop\n      swap1\n      pop\n      dup1\n      0x00\n      add\n      dup1\n      sload\n      tag_111\n      swap1\n      tag_54\n      jump\t// in\n    tag_111:\n      dup1\n      0x1f\n      add\n      0x20\n      dup1\n      swap2\n      div\n      mul\n      0x20\n      add\n      mload(0x40)\n      swap1\n      dup2\n      add\n      0x40\n      mstore\n      dup1\n      swap3\n      swap2\n      swap1\n      dup2\n      dup2\n      mstore\n      0x20\n      add\n      dup3\n      dup1\n      sload\n      tag_112\n      swap1\n      tag_54\n      jump\t// in\n    tag_112:\n      dup1\n      iszero\n      tag_113\n      jumpi\n      dup1\n      0x1f\n      lt\n      tag_114\n      jumpi\n      0x0100\n      dup1\n      dup4\n      sload\n      div\n      mul\n      dup4\n      mstore\n      swap2\n      0x20\n      add\n      swap2\n      jump(tag_113)\n    tag_114:\n      dup3\n      add\n      swap2\n      swap1\n      0x00\n      mstore\n      keccak256(0x00, 0x20)\n      swap1\n    tag_115:\n      dup2\n      sload\n      dup2\n      mstore\n      swap1\n      0x01\n      add\n      swap1\n      0x20\n      add\n      dup1\n      dup4\n      gt\n      tag_115\n      jumpi\n      dup3\n      swap1\n      sub\n      0x1f\n      and\n      dup3\n      add\n      swap2\n    tag_113:\n      pop\n      pop\n      pop\n      pop\n      pop\n      swap1\n      dup1\n      0x01\n      add\n      sload\n      swap1\n      dup1\n      0x02\n      add\n      0x00\n      swap1\n      sload\n      swap1\n      0x0100\n      exp\n      swap1\n      div\n      0xffffffffffffffffffffffffffffffffffffffff\n      and\n      swap1\n      dup1\n      0x02\n      add\n      0x14\n      swap1\n      sload\n      swap1\n      0x0100\n      exp\n      swap1\n      div\n      0xff\n      and\n      swap1\n      dup1\n      0x03\n      add\n      sload\n      swap1\n      pop\n      dup6\n      jump\t// out\n        /* \"Campaign.sol\":1905:2262  function createRequest(string memory description, uint value, address recipient) public restricted {... */\n    tag_28:\n        /* \"Campaign.sol\":1493:1500  manager */\n      0x11\n      0x00\n      swap1\n      sload\n      swap1\n      0x0100\n      exp\n      swap1\n      div\n      0xffffffffffffffffffffffffffffffffffffffff\n      and\n        /* \"Campaign.sol\":1479:1500  msg.sender == manager */\n      0xffffffffffffffffffffffffffffffffffffffff\n      and\n        /* \"Campaign.sol\":1479:1489  msg.sender */\n      caller\n        /* \"Campaign.sol\":1479:1500  msg.sender == manager */\n      0xffffffffffffffffffffffffffffffffffffffff\n      and\n      eq\n        /* \"Campaign.sol\":1471:1501  require(msg.sender == manager) */\n      tag_117\n      jumpi\n      0x00\n      dup1\n      revert\n    tag_117:\n        /* \"Campaign.sol\":2014:2040  Request storage newRequest */\n      0x00\n        /* \"Campaign.sol\":2043:2051  requests */\n      dup1\n        /* \"Campaign.sol\":2043:2058  requests.push() */\n      0x01\n      dup2\n      0x01\n      dup2\n      sload\n      add\n      dup1\n      dup3\n      sstore\n      dup1\n      swap2\n      pop\n      pop\n      sub\n      swap1\n      0x00\n      mstore\n      keccak256(0x00, 0x20)\n      swap1\n      0x05\n      mul\n      add\n        /* \"Campaign.sol\":2014:2058  Request storage newRequest = requests.push() */\n      swap1\n      pop\n        /* \"Campaign.sol\":2093:2104  description */\n      dup4\n        /* \"Campaign.sol\":2068:2078  newRequest */\n      dup2\n        /* \"Campaign.sol\":2068:2090  newRequest.description */\n      0x00\n      add\n        /* \"Campaign.sol\":2068:2104  newRequest.description = description */\n      swap1\n      dup2\n      tag_120\n      swap2\n      swap1\n      tag_121\n      jump\t// in\n    tag_120:\n      pop\n        /* \"Campaign.sol\":2133:2138  value */\n      dup3\n        /* \"Campaign.sol\":2114:2124  newRequest */\n      dup2\n        /* \"Campaign.sol\":2114:2130  newRequest.value */\n      0x01\n      add\n        /* \"Campaign.sol\":2114:2138  newRequest.value = value */\n      dup2\n      swap1\n      sstore\n      pop\n        /* \"Campaign.sol\":2171:2180  recipient */\n      dup2\n        /* \"Campaign.sol\":2148:2158  newRequest */\n      dup2\n        /* \"Campaign.sol\":2148:2168  newRequest.recipient */\n      0x02\n      add\n      0x00\n        /* \"Campaign.sol\":2148:2180  newRequest.recipient = recipient */\n      0x0100\n      exp\n      dup2\n      sload\n      dup2\n      0xffffffffffffffffffffffffffffffffffffffff\n      mul\n      not\n      and\n      swap1\n      dup4\n      0xffffffffffffffffffffffffffffffffffffffff\n      and\n      mul\n      or\n      swap1\n      sstore\n      pop\n        /* \"Campaign.sol\":2212:2217  false */\n      0x00\n        /* \"Campaign.sol\":2190:2200  newRequest */\n      dup2\n        /* \"Campaign.sol\":2190:2209  newRequest.complete */\n      0x02\n      add\n      0x14\n        /* \"Campaign.sol\":2190:2217  newRequest.complete = false */\n      0x0100\n      exp\n      dup2\n      sload\n      dup2\n      0xff\n      mul\n      not\n      and\n      swap1\n      dup4\n      iszero\n      iszero\n      mul\n      or\n      swap1\n      sstore\n      pop\n        /* \"Campaign.sol\":2254:2255  0 */\n      0x00\n        /* \"Campaign.sol\":2227:2237  newRequest */\n      dup2\n        /* \"Campaign.sol\":2227:2251  newRequest.approvalCount */\n      0x03\n      add\n        /* \"Campaign.sol\":2227:2255  newRequest.approvalCount = 0 */\n      dup2\n      swap1\n      sstore\n      pop\n        /* \"Campaign.sol\":2004:2262  {... */\n      pop\n        /* \"Campaign.sol\":1905:2262  function createRequest(string memory description, uint value, address recipient) public restricted {... */\n      pop\n      pop\n      pop\n      jump\t// out\n        /* \"Campaign.sol\":1734:1899  function contribute() public payable {... */\n    tag_30:\n        /* \"Campaign.sol\":1801:1820  minimumContribution */\n      sload(0x12)\n        /* \"Campaign.sol\":1789:1798  msg.value */\n      callvalue\n        /* \"Campaign.sol\":1789:1820  msg.value > minimumContribution */\n      gt\n        /* \"Campaign.sol\":1781:1821  require(msg.value > minimumContribution) */\n      tag_123\n      jumpi\n      0x00\n      dup1\n      revert\n    tag_123:\n        /* \"Campaign.sol\":1859:1863  true */\n      0x01\n        /* \"Campaign.sol\":1832:1844  contributors */\n      0x13\n        /* \"Campaign.sol\":1832:1856  contributors[msg.sender] */\n      0x00\n        /* \"Campaign.sol\":1845:1855  msg.sender */\n      caller\n        /* \"Campaign.sol\":1832:1856  contributors[msg.sender] */\n      0xffffffffffffffffffffffffffffffffffffffff\n      and\n      0xffffffffffffffffffffffffffffffffffffffff\n      and\n      dup2\n      mstore\n      0x20\n      add\n      swap1\n      dup2\n      mstore\n      0x20\n      add\n      0x00\n      keccak256\n      0x00\n        /* \"Campaign.sol\":1832:1863  contributors[msg.sender] = true */\n      0x0100\n      exp\n      dup2\n      sload\n      dup2\n      0xff\n      mul\n      not\n      and\n      swap1\n      dup4\n      iszero\n      iszero\n      mul\n      or\n      swap1\n      sstore\n      pop\n        /* \"Campaign.sol\":1873:1890  contributorsCount */\n      0x14\n      0x00\n        /* \"Campaign.sol\":1873:1892  contributorsCount++ */\n      dup2\n      sload\n      dup1\n      swap3\n      swap2\n      swap1\n      tag_124\n      swap1\n      tag_125\n      jump\t// in\n    tag_124:\n      swap2\n      swap1\n      pop\n      sstore\n      pop\n        /* \"Campaign.sol\":1734:1899  function contribute() public payable {... */\n      jump\t// out\n        /* \"Campaign.sol\":2268:2553  function approveRequest(uint index) public nonManager {... */\n    tag_34:\n        /* \"Campaign.sol\":1579:1586  manager */\n      0x11\n      0x00\n      swap1\n      sload\n      swap1\n      0x0100\n      exp\n      swap1\n      div\n      0xffffffffffffffffffffffffffffffffffffffff\n      and\n        /* \"Campaign.sol\":1565:1586  msg.sender != manager */\n      0xffffffffffffffffffffffffffffffffffffffff\n      and\n        /* \"Campaign.sol\":1565:1575  msg.sender */\n      caller\n        /* \"Campaign.sol\":1565:1586  msg.sender != manager */\n      0xffffffffffffffffffffffffffffffffffffffff\n      and\n      sub\n        /* \"Campaign.sol\":1557:1587  require(msg.sender != manager) */\n      tag_127\n      jumpi\n      0x00\n      dup1\n      revert\n    tag_127:\n        /* \"Campaign.sol\":2332:2355  Request storage request */\n      0x00\n        /* \"Campaign.sol\":2358:2366  requests */\n      dup1\n        /* \"Campaign.sol\":2367:2372  index */\n      dup3\n        /* \"Campaign.sol\":2358:2373  requests[index] */\n      dup2\n      sload\n      dup2\n      lt\n      tag_129\n      jumpi\n      tag_130\n      tag_40\n      jump\t// in\n    tag_130:\n    tag_129:\n      swap1\n      0x00\n      mstore\n      keccak256(0x00, 0x20)\n      swap1\n      0x05\n      mul\n      add\n        /* \"Campaign.sol\":2332:2373  Request storage request = requests[index] */\n      swap1\n      pop\n        /* \"Campaign.sol\":2392:2404  contributors */\n      0x13\n        /* \"Campaign.sol\":2392:2416  contributors[msg.sender] */\n      0x00\n        /* \"Campaign.sol\":2405:2415  msg.sender */\n      caller\n        /* \"Campaign.sol\":2392:2416  contributors[msg.sender] */\n      0xffffffffffffffffffffffffffffffffffffffff\n      and\n      0xffffffffffffffffffffffffffffffffffffffff\n      and\n      dup2\n      mstore\n      0x20\n      add\n      swap1\n      dup2\n      mstore\n      0x20\n      add\n      0x00\n      keccak256\n      0x00\n      swap1\n      sload\n      swap1\n      0x0100\n      exp\n      swap1\n      div\n      0xff\n      and\n        /* \"Campaign.sol\":2384:2417  require(contributors[msg.sender]) */\n      tag_132\n      jumpi\n      0x00\n      dup1\n      revert\n    tag_132:\n        /* \"Campaign.sol\":2436:2443  request */\n      dup1\n        /* \"Campaign.sol\":2436:2453  request.approvals */\n      0x04\n      add\n        /* \"Campaign.sol\":2436:2465  request.approvals[msg.sender] */\n      0x00\n        /* \"Campaign.sol\":2454:2464  msg.sender */\n      caller\n        /* \"Campaign.sol\":2436:2465  request.approvals[msg.sender] */\n      0xffffffffffffffffffffffffffffffffffffffff\n      and\n      0xffffffffffffffffffffffffffffffffffffffff\n      and\n      dup2\n      mstore\n      0x20\n      add\n      swap1\n      dup2\n      mstore\n      0x20\n      add\n      0x00\n      keccak256\n      0x00\n      swap1\n      sload\n      swap1\n      0x0100\n      exp\n      swap1\n      div\n      0xff\n      and\n        /* \"Campaign.sol\":2435:2465  !request.approvals[msg.sender] */\n      iszero\n        /* \"Campaign.sol\":2427:2466  require(!request.approvals[msg.sender]) */\n      tag_133\n      jumpi\n      0x00\n      dup1\n      revert\n    tag_133:\n        /* \"Campaign.sol\":2509:2513  true */\n      0x01\n        /* \"Campaign.sol\":2477:2484  request */\n      dup2\n        /* \"Campaign.sol\":2477:2494  request.approvals */\n      0x04\n      add\n        /* \"Campaign.sol\":2477:2506  request.approvals[msg.sender] */\n      0x00\n        /* \"Campaign.sol\":2495:2505  msg.sender */\n      caller\n        /* \"Campaign.sol\":2477:2506  request.approvals[msg.sender] */\n      0xffffffffffffffffffffffffffffffffffffffff\n      and\n      0xffffffffffffffffffffffffffffffffffffffff\n      and\n      dup2\n      mstore\n      0x20\n      add\n      swap1\n      dup2\n      mstore\n      0x20\n      add\n      0x00\n      keccak256\n      0x00\n        /* \"Campaign.sol\":2477:2513  request.approvals[msg.sender] = true */\n      0x0100\n      exp\n      dup2\n      sload\n      dup2\n      0xff\n      mul\n      not\n      and\n      swap1\n      dup4\n      iszero\n      iszero\n      mul\n      or\n      swap1\n      sstore\n      pop\n        /* \"Campaign.sol\":2523:2530  request */\n      dup1\n        /* \"Campaign.sol\":2523:2544  request.approvalCount */\n      0x03\n      add\n      0x00\n        /* \"Campaign.sol\":2523:2546  request.approvalCount++ */\n      dup2\n      sload\n      dup1\n      swap3\n      swap2\n      swap1\n      tag_134\n      swap1\n      tag_125\n      jump\t// in\n    tag_134:\n      swap2\n      swap1\n      pop\n      sstore\n      pop\n        /* \"Campaign.sol\":2322:2553  {... */\n      pop\n        /* \"Campaign.sol\":2268:2553  function approveRequest(uint index) public nonManager {... */\n      pop\n      jump\t// out\n    tag_49:\n      mload(0x40)\n      dup1\n      0xe0\n      add\n      0x40\n      mstore\n      dup1\n      0x60\n      dup2\n      mstore\n      0x20\n      add\n      0x60\n      dup2\n      mstore\n      0x20\n      add\n      0x00\n      dup2\n      mstore\n      0x20\n      add\n      0x60\n      dup2\n      mstore\n      0x20\n      add\n      0x60\n      dup2\n      mstore\n      0x20\n      add\n      0x00\n      dup2\n      mstore\n      0x20\n      add\n      0x00\n      dup2\n      mstore\n      pop\n      swap1\n      jump\t// out\n    tag_51:\n      mload(0x40)\n      dup1\n      0x0120\n      add\n      0x40\n      mstore\n      dup1\n      0x60\n      dup2\n      mstore\n      0x20\n      add\n      0x60\n      dup2\n      mstore\n      0x20\n      add\n      0x60\n      dup2\n      mstore\n      0x20\n      add\n      0x60\n      dup2\n      mstore\n      0x20\n      add\n      0x60\n      dup2\n      mstore\n      0x20\n      add\n      0x60\n      dup2\n      mstore\n      0x20\n      add\n      0x60\n      dup2\n      mstore\n      0x20\n      add\n      0x00\n      dup2\n      mstore\n      0x20\n      add\n      0x00\n      dup2\n      mstore\n      pop\n      swap1\n      jump\t// out\n        /* \"#utility.yul\":7:82   */\n    tag_135:\n        /* \"#utility.yul\":40:46   */\n      0x00\n        /* \"#utility.yul\":73:75   */\n      0x40\n        /* \"#utility.yul\":67:76   */\n      mload\n        /* \"#utility.yul\":57:76   */\n      swap1\n      pop\n        /* \"#utility.yul\":7:82   */\n      swap1\n      jump\t// out\n        /* \"#utility.yul\":88:205   */\n    tag_136:\n        /* \"#utility.yul\":197:198   */\n      0x00\n        /* \"#utility.yul\":194:195   */\n      dup1\n        /* \"#utility.yul\":187:199   */\n      revert\n        /* \"#utility.yul\":211:328   */\n    tag_137:\n        /* \"#utility.yul\":320:321   */\n      0x00\n        /* \"#utility.yul\":317:318   */\n      dup1\n        /* \"#utility.yul\":310:322   */\n      revert\n        /* \"#utility.yul\":334:411   */\n    tag_138:\n        /* \"#utility.yul\":371:378   */\n      0x00\n        /* \"#utility.yul\":400:405   */\n      dup2\n        /* \"#utility.yul\":389:405   */\n      swap1\n      pop\n        /* \"#utility.yul\":334:411   */\n      swap2\n      swap1\n      pop\n      jump\t// out\n        /* \"#utility.yul\":417:539   */\n    tag_139:\n        /* \"#utility.yul\":490:514   */\n      tag_192\n        /* \"#utility.yul\":508:513   */\n      dup2\n        /* \"#utility.yul\":490:514   */\n      tag_138\n      jump\t// in\n    tag_192:\n        /* \"#utility.yul\":483:488   */\n      dup2\n        /* \"#utility.yul\":480:515   */\n      eq\n        /* \"#utility.yul\":470:533   */\n      tag_193\n      jumpi\n        /* \"#utility.yul\":529:530   */\n      0x00\n        /* \"#utility.yul\":526:527   */\n      dup1\n        /* \"#utility.yul\":519:531   */\n      revert\n        /* \"#utility.yul\":470:533   */\n    tag_193:\n        /* \"#utility.yul\":417:539   */\n      pop\n      jump\t// out\n        /* \"#utility.yul\":545:684   */\n    tag_140:\n        /* \"#utility.yul\":591:596   */\n      0x00\n        /* \"#utility.yul\":629:635   */\n      dup2\n        /* \"#utility.yul\":616:636   */\n      calldataload\n        /* \"#utility.yul\":607:636   */\n      swap1\n      pop\n        /* \"#utility.yul\":645:678   */\n      tag_195\n        /* \"#utility.yul\":672:677   */\n      dup2\n        /* \"#utility.yul\":645:678   */\n      tag_139\n      jump\t// in\n    tag_195:\n        /* \"#utility.yul\":545:684   */\n      swap3\n      swap2\n      pop\n      pop\n      jump\t// out\n        /* \"#utility.yul\":690:1019   */\n    tag_11:\n        /* \"#utility.yul\":749:755   */\n      0x00\n        /* \"#utility.yul\":798:800   */\n      0x20\n        /* \"#utility.yul\":786:795   */\n      dup3\n        /* \"#utility.yul\":777:784   */\n      dup5\n        /* \"#utility.yul\":773:796   */\n      sub\n        /* \"#utility.yul\":769:801   */\n      slt\n        /* \"#utility.yul\":766:885   */\n      iszero\n      tag_197\n      jumpi\n        /* \"#utility.yul\":804:883   */\n      tag_198\n      tag_136\n      jump\t// in\n    tag_198:\n        /* \"#utility.yul\":766:885   */\n    tag_197:\n        /* \"#utility.yul\":924:925   */\n      0x00\n        /* \"#utility.yul\":949:1002   */\n      tag_199\n        /* \"#utility.yul\":994:1001   */\n      dup5\n        /* \"#utility.yul\":985:991   */\n      dup3\n        /* \"#utility.yul\":974:983   */\n      dup6\n        /* \"#utility.yul\":970:992   */\n      add\n        /* \"#utility.yul\":949:1002   */\n      tag_140\n      jump\t// in\n    tag_199:\n        /* \"#utility.yul\":939:1002   */\n      swap2\n      pop\n        /* \"#utility.yul\":895:1012   */\n      pop\n        /* \"#utility.yul\":690:1019   */\n      swap3\n      swap2\n      pop\n      pop\n      jump\t// out\n        /* \"#utility.yul\":1025:1143   */\n    tag_141:\n        /* \"#utility.yul\":1112:1136   */\n      tag_201\n        /* \"#utility.yul\":1130:1135   */\n      dup2\n        /* \"#utility.yul\":1112:1136   */\n      tag_138\n      jump\t// in\n    tag_201:\n        /* \"#utility.yul\":1107:1110   */\n      dup3\n        /* \"#utility.yul\":1100:1137   */\n      mstore\n        /* \"#utility.yul\":1025:1143   */\n      pop\n      pop\n      jump\t// out\n        /* \"#utility.yul\":1149:1275   */\n    tag_142:\n        /* \"#utility.yul\":1186:1193   */\n      0x00\n        /* \"#utility.yul\":1226:1268   */\n      0xffffffffffffffffffffffffffffffffffffffff\n        /* \"#utility.yul\":1219:1224   */\n      dup3\n        /* \"#utility.yul\":1215:1269   */\n      and\n        /* \"#utility.yul\":1204:1269   */\n      swap1\n      pop\n        /* \"#utility.yul\":1149:1275   */\n      swap2\n      swap1\n      pop\n      jump\t// out\n        /* \"#utility.yul\":1281:1377   */\n    tag_143:\n        /* \"#utility.yul\":1318:1325   */\n      0x00\n        /* \"#utility.yul\":1347:1371   */\n      tag_204\n        /* \"#utility.yul\":1365:1370   */\n      dup3\n        /* \"#utility.yul\":1347:1371   */\n      tag_142\n      jump\t// in\n    tag_204:\n        /* \"#utility.yul\":1336:1371   */\n      swap1\n      pop\n        /* \"#utility.yul\":1281:1377   */\n      swap2\n      swap1\n      pop\n      jump\t// out\n        /* \"#utility.yul\":1383:1501   */\n    tag_144:\n        /* \"#utility.yul\":1470:1494   */\n      tag_206\n        /* \"#utility.yul\":1488:1493   */\n      dup2\n        /* \"#utility.yul\":1470:1494   */\n      tag_143\n      jump\t// in\n    tag_206:\n        /* \"#utility.yul\":1465:1468   */\n      dup3\n        /* \"#utility.yul\":1458:1495   */\n      mstore\n        /* \"#utility.yul\":1383:1501   */\n      pop\n      pop\n      jump\t// out\n        /* \"#utility.yul\":1507:1606   */\n    tag_145:\n        /* \"#utility.yul\":1559:1565   */\n      0x00\n        /* \"#utility.yul\":1593:1598   */\n      dup2\n        /* \"#utility.yul\":1587:1599   */\n      mload\n        /* \"#utility.yul\":1577:1599   */\n      swap1\n      pop\n        /* \"#utility.yul\":1507:1606   */\n      swap2\n      swap1\n      pop\n      jump\t// out\n        /* \"#utility.yul\":1612:1771   */\n    tag_146:\n        /* \"#utility.yul\":1686:1697   */\n      0x00\n        /* \"#utility.yul\":1720:1726   */\n      dup3\n        /* \"#utility.yul\":1715:1718   */\n      dup3\n        /* \"#utility.yul\":1708:1727   */\n      mstore\n        /* \"#utility.yul\":1760:1764   */\n      0x20\n        /* \"#utility.yul\":1755:1758   */\n      dup3\n        /* \"#utility.yul\":1751:1765   */\n      add\n        /* \"#utility.yul\":1736:1765   */\n      swap1\n      pop\n        /* \"#utility.yul\":1612:1771   */\n      swap3\n      swap2\n      pop\n      pop\n      jump\t// out\n        /* \"#utility.yul\":1777:1916   */\n    tag_147:\n        /* \"#utility.yul\":1866:1872   */\n      dup3\n        /* \"#utility.yul\":1861:1864   */\n      dup2\n        /* \"#utility.yul\":1856:1859   */\n      dup4\n        /* \"#utility.yul\":1850:1873   */\n      mcopy\n        /* \"#utility.yul\":1907:1908   */\n      0x00\n        /* \"#utility.yul\":1898:1904   */\n      dup4\n        /* \"#utility.yul\":1893:1896   */\n      dup4\n        /* \"#utility.yul\":1889:1905   */\n      add\n        /* \"#utility.yul\":1882:1909   */\n      mstore\n        /* \"#utility.yul\":1777:1916   */\n      pop\n      pop\n      pop\n      jump\t// out\n        /* \"#utility.yul\":1922:2024   */\n    tag_148:\n        /* \"#utility.yul\":1963:1969   */\n      0x00\n        /* \"#utility.yul\":2014:2016   */\n      0x1f\n        /* \"#utility.yul\":2010:2017   */\n      not\n        /* \"#utility.yul\":2005:2007   */\n      0x1f\n        /* \"#utility.yul\":1998:2003   */\n      dup4\n        /* \"#utility.yul\":1994:2008   */\n      add\n        /* \"#utility.yul\":1990:2018   */\n      and\n        /* \"#utility.yul\":1980:2018   */\n      swap1\n      pop\n        /* \"#utility.yul\":1922:2024   */\n      swap2\n      swap1\n      pop\n      jump\t// out\n        /* \"#utility.yul\":2030:2387   */\n    tag_149:\n        /* \"#utility.yul\":2108:2111   */\n      0x00\n        /* \"#utility.yul\":2136:2175   */\n      tag_212\n        /* \"#utility.yul\":2169:2174   */\n      dup3\n        /* \"#utility.yul\":2136:2175   */\n      tag_145\n      jump\t// in\n    tag_212:\n        /* \"#utility.yul\":2191:2252   */\n      tag_213\n        /* \"#utility.yul\":2245:2251   */\n      dup2\n        /* \"#utility.yul\":2240:2243   */\n      dup6\n        /* \"#utility.yul\":2191:2252   */\n      tag_146\n      jump\t// in\n    tag_213:\n        /* \"#utility.yul\":2184:2252   */\n      swap4\n      pop\n        /* \"#utility.yul\":2261:2326   */\n      tag_214\n        /* \"#utility.yul\":2319:2325   */\n      dup2\n        /* \"#utility.yul\":2314:2317   */\n      dup6\n        /* \"#utility.yul\":2307:2311   */\n      0x20\n        /* \"#utility.yul\":2300:2305   */\n      dup7\n        /* \"#utility.yul\":2296:2312   */\n      add\n        /* \"#utility.yul\":2261:2326   */\n      tag_147\n      jump\t// in\n    tag_214:\n        /* \"#utility.yul\":2351:2380   */\n      tag_215\n        /* \"#utility.yul\":2373:2379   */\n      dup2\n        /* \"#utility.yul\":2351:2380   */\n      tag_148\n      jump\t// in\n    tag_215:\n        /* \"#utility.yul\":2346:2349   */\n      dup5\n        /* \"#utility.yul\":2342:2381   */\n      add\n        /* \"#utility.yul\":2335:2381   */\n      swap2\n      pop\n        /* \"#utility.yul\":2112:2387   */\n      pop\n        /* \"#utility.yul\":2030:2387   */\n      swap3\n      swap2\n      pop\n      pop\n      jump\t// out\n        /* \"#utility.yul\":2393:2501   */\n    tag_150:\n        /* \"#utility.yul\":2470:2494   */\n      tag_217\n        /* \"#utility.yul\":2488:2493   */\n      dup2\n        /* \"#utility.yul\":2470:2494   */\n      tag_138\n      jump\t// in\n    tag_217:\n        /* \"#utility.yul\":2465:2468   */\n      dup3\n        /* \"#utility.yul\":2458:2495   */\n      mstore\n        /* \"#utility.yul\":2393:2501   */\n      pop\n      pop\n      jump\t// out\n        /* \"#utility.yul\":2563:4280   */\n    tag_151:\n        /* \"#utility.yul\":2676:2679   */\n      0x00\n        /* \"#utility.yul\":2712:2716   */\n      0xe0\n        /* \"#utility.yul\":2707:2710   */\n      dup4\n        /* \"#utility.yul\":2703:2717   */\n      add\n        /* \"#utility.yul\":2800:2804   */\n      0x00\n        /* \"#utility.yul\":2793:2798   */\n      dup4\n        /* \"#utility.yul\":2789:2805   */\n      add\n        /* \"#utility.yul\":2783:2806   */\n      mload\n        /* \"#utility.yul\":2853:2856   */\n      dup5\n        /* \"#utility.yul\":2847:2851   */\n      dup3\n        /* \"#utility.yul\":2843:2857   */\n      sub\n        /* \"#utility.yul\":2836:2840   */\n      0x00\n        /* \"#utility.yul\":2831:2834   */\n      dup7\n        /* \"#utility.yul\":2827:2841   */\n      add\n        /* \"#utility.yul\":2820:2858   */\n      mstore\n        /* \"#utility.yul\":2879:2952   */\n      tag_219\n        /* \"#utility.yul\":2947:2951   */\n      dup3\n        /* \"#utility.yul\":2933:2945   */\n      dup3\n        /* \"#utility.yul\":2879:2952   */\n      tag_149\n      jump\t// in\n    tag_219:\n        /* \"#utility.yul\":2871:2952   */\n      swap2\n      pop\n        /* \"#utility.yul\":2727:2963   */\n      pop\n        /* \"#utility.yul\":3052:3056   */\n      0x20\n        /* \"#utility.yul\":3045:3050   */\n      dup4\n        /* \"#utility.yul\":3041:3057   */\n      add\n        /* \"#utility.yul\":3035:3058   */\n      mload\n        /* \"#utility.yul\":3105:3108   */\n      dup5\n        /* \"#utility.yul\":3099:3103   */\n      dup3\n        /* \"#utility.yul\":3095:3109   */\n      sub\n        /* \"#utility.yul\":3088:3092   */\n      0x20\n        /* \"#utility.yul\":3083:3086   */\n      dup7\n        /* \"#utility.yul\":3079:3093   */\n      add\n        /* \"#utility.yul\":3072:3110   */\n      mstore\n        /* \"#utility.yul\":3131:3204   */\n      tag_220\n        /* \"#utility.yul\":3199:3203   */\n      dup3\n        /* \"#utility.yul\":3185:3197   */\n      dup3\n        /* \"#utility.yul\":3131:3204   */\n      tag_149\n      jump\t// in\n    tag_220:\n        /* \"#utility.yul\":3123:3204   */\n      swap2\n      pop\n        /* \"#utility.yul\":2973:3215   */\n      pop\n        /* \"#utility.yul\":3298:3302   */\n      0x40\n        /* \"#utility.yul\":3291:3296   */\n      dup4\n        /* \"#utility.yul\":3287:3303   */\n      add\n        /* \"#utility.yul\":3281:3304   */\n      mload\n        /* \"#utility.yul\":3317:3380   */\n      tag_221\n        /* \"#utility.yul\":3374:3378   */\n      0x40\n        /* \"#utility.yul\":3369:3372   */\n      dup7\n        /* \"#utility.yul\":3365:3379   */\n      add\n        /* \"#utility.yul\":3351:3363   */\n      dup3\n        /* \"#utility.yul\":3317:3380   */\n      tag_150\n      jump\t// in\n    tag_221:\n        /* \"#utility.yul\":3225:3390   */\n      pop\n        /* \"#utility.yul\":3476:3480   */\n      0x60\n        /* \"#utility.yul\":3469:3474   */\n      dup4\n        /* \"#utility.yul\":3465:3481   */\n      add\n        /* \"#utility.yul\":3459:3482   */\n      mload\n        /* \"#utility.yul\":3529:3532   */\n      dup5\n        /* \"#utility.yul\":3523:3527   */\n      dup3\n        /* \"#utility.yul\":3519:3533   */\n      sub\n        /* \"#utility.yul\":3512:3516   */\n      0x60\n        /* \"#utility.yul\":3507:3510   */\n      dup7\n        /* \"#utility.yul\":3503:3517   */\n      add\n        /* \"#utility.yul\":3496:3534   */\n      mstore\n        /* \"#utility.yul\":3555:3628   */\n      tag_222\n        /* \"#utility.yul\":3623:3627   */\n      dup3\n        /* \"#utility.yul\":3609:3621   */\n      dup3\n        /* \"#utility.yul\":3555:3628   */\n      tag_149\n      jump\t// in\n    tag_222:\n        /* \"#utility.yul\":3547:3628   */\n      swap2\n      pop\n        /* \"#utility.yul\":3400:3639   */\n      pop\n        /* \"#utility.yul\":3725:3729   */\n      0x80\n        /* \"#utility.yul\":3718:3723   */\n      dup4\n        /* \"#utility.yul\":3714:3730   */\n      add\n        /* \"#utility.yul\":3708:3731   */\n      mload\n        /* \"#utility.yul\":3778:3781   */\n      dup5\n        /* \"#utility.yul\":3772:3776   */\n      dup3\n        /* \"#utility.yul\":3768:3782   */\n      sub\n        /* \"#utility.yul\":3761:3765   */\n      0x80\n        /* \"#utility.yul\":3756:3759   */\n      dup7\n        /* \"#utility.yul\":3752:3766   */\n      add\n        /* \"#utility.yul\":3745:3783   */\n      mstore\n        /* \"#utility.yul\":3804:3877   */\n      tag_223\n        /* \"#utility.yul\":3872:3876   */\n      dup3\n        /* \"#utility.yul\":3858:3870   */\n      dup3\n        /* \"#utility.yul\":3804:3877   */\n      tag_149\n      jump\t// in\n    tag_223:\n        /* \"#utility.yul\":3796:3877   */\n      swap2\n      pop\n        /* \"#utility.yul\":3649:3888   */\n      pop\n        /* \"#utility.yul\":3983:3987   */\n      0xa0\n        /* \"#utility.yul\":3976:3981   */\n      dup4\n        /* \"#utility.yul\":3972:3988   */\n      add\n        /* \"#utility.yul\":3966:3989   */\n      mload\n        /* \"#utility.yul\":4002:4065   */\n      tag_224\n        /* \"#utility.yul\":4059:4063   */\n      0xa0\n        /* \"#utility.yul\":4054:4057   */\n      dup7\n        /* \"#utility.yul\":4050:4064   */\n      add\n        /* \"#utility.yul\":4036:4048   */\n      dup3\n        /* \"#utility.yul\":4002:4065   */\n      tag_150\n      jump\t// in\n    tag_224:\n        /* \"#utility.yul\":3898:4075   */\n      pop\n        /* \"#utility.yul\":4161:4165   */\n      0xc0\n        /* \"#utility.yul\":4154:4159   */\n      dup4\n        /* \"#utility.yul\":4150:4166   */\n      add\n        /* \"#utility.yul\":4144:4167   */\n      mload\n        /* \"#utility.yul\":4180:4243   */\n      tag_225\n        /* \"#utility.yul\":4237:4241   */\n      0xc0\n        /* \"#utility.yul\":4232:4235   */\n      dup7\n        /* \"#utility.yul\":4228:4242   */\n      add\n        /* \"#utility.yul\":4214:4226   */\n      dup3\n        /* \"#utility.yul\":4180:4243   */\n      tag_150\n      jump\t// in\n    tag_225:\n        /* \"#utility.yul\":4085:4253   */\n      pop\n        /* \"#utility.yul\":4270:4274   */\n      dup1\n        /* \"#utility.yul\":4263:4274   */\n      swap2\n      pop\n        /* \"#utility.yul\":2681:4280   */\n      pop\n        /* \"#utility.yul\":2563:4280   */\n      swap3\n      swap2\n      pop\n      pop\n      jump\t// out\n        /* \"#utility.yul\":4346:6647   */\n    tag_152:\n        /* \"#utility.yul\":4463:4466   */\n      0x00\n        /* \"#utility.yul\":4499:4505   */\n      0x0120\n        /* \"#utility.yul\":4494:4497   */\n      dup4\n        /* \"#utility.yul\":4490:4506   */\n      add\n        /* \"#utility.yul\":4589:4593   */\n      0x00\n        /* \"#utility.yul\":4582:4587   */\n      dup4\n        /* \"#utility.yul\":4578:4594   */\n      add\n        /* \"#utility.yul\":4572:4595   */\n      mload\n        /* \"#utility.yul\":4642:4645   */\n      dup5\n        /* \"#utility.yul\":4636:4640   */\n      dup3\n        /* \"#utility.yul\":4632:4646   */\n      sub\n        /* \"#utility.yul\":4625:4629   */\n      0x00\n        /* \"#utility.yul\":4620:4623   */\n      dup7\n        /* \"#utility.yul\":4616:4630   */\n      add\n        /* \"#utility.yul\":4609:4647   */\n      mstore\n        /* \"#utility.yul\":4668:4741   */\n      tag_227\n        /* \"#utility.yul\":4736:4740   */\n      dup3\n        /* \"#utility.yul\":4722:4734   */\n      dup3\n        /* \"#utility.yul\":4668:4741   */\n      tag_149\n      jump\t// in\n    tag_227:\n        /* \"#utility.yul\":4660:4741   */\n      swap2\n      pop\n        /* \"#utility.yul\":4516:4752   */\n      pop\n        /* \"#utility.yul\":4838:4842   */\n      0x20\n        /* \"#utility.yul\":4831:4836   */\n      dup4\n        /* \"#utility.yul\":4827:4843   */\n      add\n        /* \"#utility.yul\":4821:4844   */\n      mload\n        /* \"#utility.yul\":4891:4894   */\n      dup5\n        /* \"#utility.yul\":4885:4889   */\n      dup3\n        /* \"#utility.yul\":4881:4895   */\n      sub\n        /* \"#utility.yul\":4874:4878   */\n      0x20\n        /* \"#utility.yul\":4869:4872   */\n      dup7\n        /* \"#utility.yul\":4865:4879   */\n      add\n        /* \"#utility.yul\":4858:4896   */\n      mstore\n        /* \"#utility.yul\":4917:4990   */\n      tag_228\n        /* \"#utility.yul\":4985:4989   */\n      dup3\n        /* \"#utility.yul\":4971:4983   */\n      dup3\n        /* \"#utility.yul\":4917:4990   */\n      tag_149\n      jump\t// in\n    tag_228:\n        /* \"#utility.yul\":4909:4990   */\n      swap2\n      pop\n        /* \"#utility.yul\":4762:5001   */\n      pop\n        /* \"#utility.yul\":5090:5094   */\n      0x40\n        /* \"#utility.yul\":5083:5088   */\n      dup4\n        /* \"#utility.yul\":5079:5095   */\n      add\n        /* \"#utility.yul\":5073:5096   */\n      mload\n        /* \"#utility.yul\":5143:5146   */\n      dup5\n        /* \"#utility.yul\":5137:5141   */\n      dup3\n        /* \"#utility.yul\":5133:5147   */\n      sub\n        /* \"#utility.yul\":5126:5130   */\n      0x40\n        /* \"#utility.yul\":5121:5124   */\n      dup7\n        /* \"#utility.yul\":5117:5131   */\n      add\n        /* \"#utility.yul\":5110:5148   */\n      mstore\n        /* \"#utility.yul\":5169:5242   */\n      tag_229\n        /* \"#utility.yul\":5237:5241   */\n      dup3\n        /* \"#utility.yul\":5223:5235   */\n      dup3\n        /* \"#utility.yul\":5169:5242   */\n      tag_149\n      jump\t// in\n    tag_229:\n        /* \"#utility.yul\":5161:5242   */\n      swap2\n      pop\n        /* \"#utility.yul\":5011:5253   */\n      pop\n        /* \"#utility.yul\":5339:5343   */\n      0x60\n        /* \"#utility.yul\":5332:5337   */\n      dup4\n        /* \"#utility.yul\":5328:5344   */\n      add\n        /* \"#utility.yul\":5322:5345   */\n      mload\n        /* \"#utility.yul\":5392:5395   */\n      dup5\n        /* \"#utility.yul\":5386:5390   */\n      dup3\n        /* \"#utility.yul\":5382:5396   */\n      sub\n        /* \"#utility.yul\":5375:5379   */\n      0x60\n        /* \"#utility.yul\":5370:5373   */\n      dup7\n        /* \"#utility.yul\":5366:5380   */\n      add\n        /* \"#utility.yul\":5359:5397   */\n      mstore\n        /* \"#utility.yul\":5418:5491   */\n      tag_230\n        /* \"#utility.yul\":5486:5490   */\n      dup3\n        /* \"#utility.yul\":5472:5484   */\n      dup3\n        /* \"#utility.yul\":5418:5491   */\n      tag_149\n      jump\t// in\n    tag_230:\n        /* \"#utility.yul\":5410:5491   */\n      swap2\n      pop\n        /* \"#utility.yul\":5263:5502   */\n      pop\n        /* \"#utility.yul\":5591:5595   */\n      0x80\n        /* \"#utility.yul\":5584:5589   */\n      dup4\n        /* \"#utility.yul\":5580:5596   */\n      add\n        /* \"#utility.yul\":5574:5597   */\n      mload\n        /* \"#utility.yul\":5644:5647   */\n      dup5\n        /* \"#utility.yul\":5638:5642   */\n      dup3\n        /* \"#utility.yul\":5634:5648   */\n      sub\n        /* \"#utility.yul\":5627:5631   */\n      0x80\n        /* \"#utility.yul\":5622:5625   */\n      dup7\n        /* \"#utility.yul\":5618:5632   */\n      add\n        /* \"#utility.yul\":5611:5649   */\n      mstore\n        /* \"#utility.yul\":5670:5743   */\n      tag_231\n        /* \"#utility.yul\":5738:5742   */\n      dup3\n        /* \"#utility.yul\":5724:5736   */\n      dup3\n        /* \"#utility.yul\":5670:5743   */\n      tag_149\n      jump\t// in\n    tag_231:\n        /* \"#utility.yul\":5662:5743   */\n      swap2\n      pop\n        /* \"#utility.yul\":5512:5754   */\n      pop\n        /* \"#utility.yul\":5840:5844   */\n      0xa0\n        /* \"#utility.yul\":5833:5838   */\n      dup4\n        /* \"#utility.yul\":5829:5845   */\n      add\n        /* \"#utility.yul\":5823:5846   */\n      mload\n        /* \"#utility.yul\":5893:5896   */\n      dup5\n        /* \"#utility.yul\":5887:5891   */\n      dup3\n        /* \"#utility.yul\":5883:5897   */\n      sub\n        /* \"#utility.yul\":5876:5880   */\n      0xa0\n        /* \"#utility.yul\":5871:5874   */\n      dup7\n        /* \"#utility.yul\":5867:5881   */\n      add\n        /* \"#utility.yul\":5860:5898   */\n      mstore\n        /* \"#utility.yul\":5919:5992   */\n      tag_232\n        /* \"#utility.yul\":5987:5991   */\n      dup3\n        /* \"#utility.yul\":5973:5985   */\n      dup3\n        /* \"#utility.yul\":5919:5992   */\n      tag_149\n      jump\t// in\n    tag_232:\n        /* \"#utility.yul\":5911:5992   */\n      swap2\n      pop\n        /* \"#utility.yul\":5764:6003   */\n      pop\n        /* \"#utility.yul\":6089:6093   */\n      0xc0\n        /* \"#utility.yul\":6082:6087   */\n      dup4\n        /* \"#utility.yul\":6078:6094   */\n      add\n        /* \"#utility.yul\":6072:6095   */\n      mload\n        /* \"#utility.yul\":6142:6145   */\n      dup5\n        /* \"#utility.yul\":6136:6140   */\n      dup3\n        /* \"#utility.yul\":6132:6146   */\n      sub\n        /* \"#utility.yul\":6125:6129   */\n      0xc0\n        /* \"#utility.yul\":6120:6123   */\n      dup7\n        /* \"#utility.yul\":6116:6130   */\n      add\n        /* \"#utility.yul\":6109:6147   */\n      mstore\n        /* \"#utility.yul\":6168:6241   */\n      tag_233\n        /* \"#utility.yul\":6236:6240   */\n      dup3\n        /* \"#utility.yul\":6222:6234   */\n      dup3\n        /* \"#utility.yul\":6168:6241   */\n      tag_149\n      jump\t// in\n    tag_233:\n        /* \"#utility.yul\":6160:6241   */\n      swap2\n      pop\n        /* \"#utility.yul\":6013:6252   */\n      pop\n        /* \"#utility.yul\":6340:6344   */\n      0xe0\n        /* \"#utility.yul\":6333:6338   */\n      dup4\n        /* \"#utility.yul\":6329:6345   */\n      add\n        /* \"#utility.yul\":6323:6346   */\n      mload\n        /* \"#utility.yul\":6359:6422   */\n      tag_234\n        /* \"#utility.yul\":6416:6420   */\n      0xe0\n        /* \"#utility.yul\":6411:6414   */\n      dup7\n        /* \"#utility.yul\":6407:6421   */\n      add\n        /* \"#utility.yul\":6393:6405   */\n      dup3\n        /* \"#utility.yul\":6359:6422   */\n      tag_150\n      jump\t// in\n    tag_234:\n        /* \"#utility.yul\":6262:6432   */\n      pop\n        /* \"#utility.yul\":6524:6530   */\n      0x0100\n        /* \"#utility.yul\":6517:6522   */\n      dup4\n        /* \"#utility.yul\":6513:6531   */\n      add\n        /* \"#utility.yul\":6507:6532   */\n      mload\n        /* \"#utility.yul\":6545:6610   */\n      tag_235\n        /* \"#utility.yul\":6602:6608   */\n      0x0100\n        /* \"#utility.yul\":6597:6600   */\n      dup7\n        /* \"#utility.yul\":6593:6609   */\n      add\n        /* \"#utility.yul\":6579:6591   */\n      dup3\n        /* \"#utility.yul\":6545:6610   */\n      tag_150\n      jump\t// in\n    tag_235:\n        /* \"#utility.yul\":6442:6620   */\n      pop\n        /* \"#utility.yul\":6637:6641   */\n      dup1\n        /* \"#utility.yul\":6630:6641   */\n      swap2\n      pop\n        /* \"#utility.yul\":4468:6647   */\n      pop\n        /* \"#utility.yul\":4346:6647   */\n      swap3\n      swap2\n      pop\n      pop\n      jump\t// out\n        /* \"#utility.yul\":6653:8047   */\n    tag_17:\n        /* \"#utility.yul\":7062:7066   */\n      0x00\n        /* \"#utility.yul\":7100:7103   */\n      0x0120\n        /* \"#utility.yul\":7089:7098   */\n      dup3\n        /* \"#utility.yul\":7085:7104   */\n      add\n        /* \"#utility.yul\":7077:7104   */\n      swap1\n      pop\n        /* \"#utility.yul\":7114:7185   */\n      tag_237\n        /* \"#utility.yul\":7182:7183   */\n      0x00\n        /* \"#utility.yul\":7171:7180   */\n      dup4\n        /* \"#utility.yul\":7167:7184   */\n      add\n        /* \"#utility.yul\":7158:7164   */\n      dup13\n        /* \"#utility.yul\":7114:7185   */\n      tag_141\n      jump\t// in\n    tag_237:\n        /* \"#utility.yul\":7195:7267   */\n      tag_238\n        /* \"#utility.yul\":7263:7265   */\n      0x20\n        /* \"#utility.yul\":7252:7261   */\n      dup4\n        /* \"#utility.yul\":7248:7266   */\n      add\n        /* \"#utility.yul\":7239:7245   */\n      dup12\n        /* \"#utility.yul\":7195:7267   */\n      tag_141\n      jump\t// in\n    tag_238:\n        /* \"#utility.yul\":7277:7349   */\n      tag_239\n        /* \"#utility.yul\":7345:7347   */\n      0x40\n        /* \"#utility.yul\":7334:7343   */\n      dup4\n        /* \"#utility.yul\":7330:7348   */\n      add\n        /* \"#utility.yul\":7321:7327   */\n      dup11\n        /* \"#utility.yul\":7277:7349   */\n      tag_141\n      jump\t// in\n    tag_239:\n        /* \"#utility.yul\":7359:7431   */\n      tag_240\n        /* \"#utility.yul\":7427:7429   */\n      0x60\n        /* \"#utility.yul\":7416:7425   */\n      dup4\n        /* \"#utility.yul\":7412:7430   */\n      add\n        /* \"#utility.yul\":7403:7409   */\n      dup10\n        /* \"#utility.yul\":7359:7431   */\n      tag_141\n      jump\t// in\n    tag_240:\n        /* \"#utility.yul\":7441:7514   */\n      tag_241\n        /* \"#utility.yul\":7509:7512   */\n      0x80\n        /* \"#utility.yul\":7498:7507   */\n      dup4\n        /* \"#utility.yul\":7494:7513   */\n      add\n        /* \"#utility.yul\":7485:7491   */\n      dup9\n        /* \"#utility.yul\":7441:7514   */\n      tag_144\n      jump\t// in\n    tag_241:\n        /* \"#utility.yul\":7562:7571   */\n      dup2\n        /* \"#utility.yul\":7556:7560   */\n      dup2\n        /* \"#utility.yul\":7552:7572   */\n      sub\n        /* \"#utility.yul\":7546:7549   */\n      0xa0\n        /* \"#utility.yul\":7535:7544   */\n      dup4\n        /* \"#utility.yul\":7531:7550   */\n      add\n        /* \"#utility.yul\":7524:7573   */\n      mstore\n        /* \"#utility.yul\":7590:7692   */\n      tag_242\n        /* \"#utility.yul\":7687:7691   */\n      dup2\n        /* \"#utility.yul\":7678:7684   */\n      dup8\n        /* \"#utility.yul\":7590:7692   */\n      tag_151\n      jump\t// in\n    tag_242:\n        /* \"#utility.yul\":7582:7692   */\n      swap1\n      pop\n        /* \"#utility.yul\":7740:7749   */\n      dup2\n        /* \"#utility.yul\":7734:7738   */\n      dup2\n        /* \"#utility.yul\":7730:7750   */\n      sub\n        /* \"#utility.yul\":7724:7727   */\n      0xc0\n        /* \"#utility.yul\":7713:7722   */\n      dup4\n        /* \"#utility.yul\":7709:7728   */\n      add\n        /* \"#utility.yul\":7702:7751   */\n      mstore\n        /* \"#utility.yul\":7768:7874   */\n      tag_243\n        /* \"#utility.yul\":7869:7873   */\n      dup2\n        /* \"#utility.yul\":7860:7866   */\n      dup7\n        /* \"#utility.yul\":7768:7874   */\n      tag_152\n      jump\t// in\n    tag_243:\n        /* \"#utility.yul\":7760:7874   */\n      swap1\n      pop\n        /* \"#utility.yul\":7884:7957   */\n      tag_244\n        /* \"#utility.yul\":7952:7955   */\n      0xe0\n        /* \"#utility.yul\":7941:7950   */\n      dup4\n        /* \"#utility.yul\":7937:7956   */\n      add\n        /* \"#utility.yul\":7928:7934   */\n      dup6\n        /* \"#utility.yul\":7884:7957   */\n      tag_141\n      jump\t// in\n    tag_244:\n        /* \"#utility.yul\":7967:8040   */\n      tag_245\n        /* \"#utility.yul\":8035:8038   */\n      0x0100\n        /* \"#utility.yul\":8024:8033   */\n      dup4\n        /* \"#utility.yul\":8020:8039   */\n      add\n        /* \"#utility.yul\":8011:8017   */\n      dup5\n        /* \"#utility.yul\":7967:8040   */\n      tag_141\n      jump\t// in\n    tag_245:\n        /* \"#utility.yul\":6653:8047   */\n      swap11\n      swap10\n      pop\n      pop\n      pop\n      pop\n      pop\n      pop\n      pop\n      pop\n      pop\n      pop\n      jump\t// out\n        /* \"#utility.yul\":8053:8222   */\n    tag_153:\n        /* \"#utility.yul\":8137:8148   */\n      0x00\n        /* \"#utility.yul\":8171:8177   */\n      dup3\n        /* \"#utility.yul\":8166:8169   */\n      dup3\n        /* \"#utility.yul\":8159:8178   */\n      mstore\n        /* \"#utility.yul\":8211:8215   */\n      0x20\n        /* \"#utility.yul\":8206:8209   */\n      dup3\n        /* \"#utility.yul\":8202:8216   */\n      add\n        /* \"#utility.yul\":8187:8216   */\n      swap1\n      pop\n        /* \"#utility.yul\":8053:8222   */\n      swap3\n      swap2\n      pop\n      pop\n      jump\t// out\n        /* \"#utility.yul\":8228:8605   */\n    tag_154:\n        /* \"#utility.yul\":8316:8319   */\n      0x00\n        /* \"#utility.yul\":8344:8383   */\n      tag_248\n        /* \"#utility.yul\":8377:8382   */\n      dup3\n        /* \"#utility.yul\":8344:8383   */\n      tag_145\n      jump\t// in\n    tag_248:\n        /* \"#utility.yul\":8399:8470   */\n      tag_249\n        /* \"#utility.yul\":8463:8469   */\n      dup2\n        /* \"#utility.yul\":8458:8461   */\n      dup6\n        /* \"#utility.yul\":8399:8470   */\n      tag_153\n      jump\t// in\n    tag_249:\n        /* \"#utility.yul\":8392:8470   */\n      swap4\n      pop\n        /* \"#utility.yul\":8479:8544   */\n      tag_250\n        /* \"#utility.yul\":8537:8543   */\n      dup2\n        /* \"#utility.yul\":8532:8535   */\n      dup6\n        /* \"#utility.yul\":8525:8529   */\n      0x20\n        /* \"#utility.yul\":8518:8523   */\n      dup7\n        /* \"#utility.yul\":8514:8530   */\n      add\n        /* \"#utility.yul\":8479:8544   */\n      tag_147\n      jump\t// in\n    tag_250:\n        /* \"#utility.yul\":8569:8598   */\n      tag_251\n        /* \"#utility.yul\":8591:8597   */\n      dup2\n        /* \"#utility.yul\":8569:8598   */\n      tag_148\n      jump\t// in\n    tag_251:\n        /* \"#utility.yul\":8564:8567   */\n      dup5\n        /* \"#utility.yul\":8560:8599   */\n      add\n        /* \"#utility.yul\":8553:8599   */\n      swap2\n      pop\n        /* \"#utility.yul\":8320:8605   */\n      pop\n        /* \"#utility.yul\":8228:8605   */\n      swap3\n      swap2\n      pop\n      pop\n      jump\t// out\n        /* \"#utility.yul\":8611:8701   */\n    tag_155:\n        /* \"#utility.yul\":8645:8652   */\n      0x00\n        /* \"#utility.yul\":8688:8693   */\n      dup2\n        /* \"#utility.yul\":8681:8694   */\n      iszero\n        /* \"#utility.yul\":8674:8695   */\n      iszero\n        /* \"#utility.yul\":8663:8695   */\n      swap1\n      pop\n        /* \"#utility.yul\":8611:8701   */\n      swap2\n      swap1\n      pop\n      jump\t// out\n        /* \"#utility.yul\":8707:8816   */\n    tag_156:\n        /* \"#utility.yul\":8788:8809   */\n      tag_254\n        /* \"#utility.yul\":8803:8808   */\n      dup2\n        /* \"#utility.yul\":8788:8809   */\n      tag_155\n      jump\t// in\n    tag_254:\n        /* \"#utility.yul\":8783:8786   */\n      dup3\n        /* \"#utility.yul\":8776:8810   */\n      mstore\n        /* \"#utility.yul\":8707:8816   */\n      pop\n      pop\n      jump\t// out\n        /* \"#utility.yul\":8822:9565   */\n    tag_23:\n        /* \"#utility.yul\":9041:9045   */\n      0x00\n        /* \"#utility.yul\":9079:9082   */\n      0xa0\n        /* \"#utility.yul\":9068:9077   */\n      dup3\n        /* \"#utility.yul\":9064:9083   */\n      add\n        /* \"#utility.yul\":9056:9083   */\n      swap1\n      pop\n        /* \"#utility.yul\":9129:9138   */\n      dup2\n        /* \"#utility.yul\":9123:9127   */\n      dup2\n        /* \"#utility.yul\":9119:9139   */\n      sub\n        /* \"#utility.yul\":9115:9116   */\n      0x00\n        /* \"#utility.yul\":9104:9113   */\n      dup4\n        /* \"#utility.yul\":9100:9117   */\n      add\n        /* \"#utility.yul\":9093:9140   */\n      mstore\n        /* \"#utility.yul\":9157:9235   */\n      tag_256\n        /* \"#utility.yul\":9230:9234   */\n      dup2\n        /* \"#utility.yul\":9221:9227   */\n      dup9\n        /* \"#utility.yul\":9157:9235   */\n      tag_154\n      jump\t// in\n    tag_256:\n        /* \"#utility.yul\":9149:9235   */\n      swap1\n      pop\n        /* \"#utility.yul\":9245:9317   */\n      tag_257\n        /* \"#utility.yul\":9313:9315   */\n      0x20\n        /* \"#utility.yul\":9302:9311   */\n      dup4\n        /* \"#utility.yul\":9298:9316   */\n      add\n        /* \"#utility.yul\":9289:9295   */\n      dup8\n        /* \"#utility.yul\":9245:9317   */\n      tag_141\n      jump\t// in\n    tag_257:\n        /* \"#utility.yul\":9327:9399   */\n      tag_258\n        /* \"#utility.yul\":9395:9397   */\n      0x40\n        /* \"#utility.yul\":9384:9393   */\n      dup4\n        /* \"#utility.yul\":9380:9398   */\n      add\n        /* \"#utility.yul\":9371:9377   */\n      dup7\n        /* \"#utility.yul\":9327:9399   */\n      tag_144\n      jump\t// in\n    tag_258:\n        /* \"#utility.yul\":9409:9475   */\n      tag_259\n        /* \"#utility.yul\":9471:9473   */\n      0x60\n        /* \"#utility.yul\":9460:9469   */\n      dup4\n        /* \"#utility.yul\":9456:9474   */\n      add\n        /* \"#utility.yul\":9447:9453   */\n      dup6\n        /* \"#utility.yul\":9409:9475   */\n      tag_156\n      jump\t// in\n    tag_259:\n        /* \"#utility.yul\":9485:9558   */\n      tag_260\n        /* \"#utility.yul\":9553:9556   */\n      0x80\n        /* \"#utility.yul\":9542:9551   */\n      dup4\n        /* \"#utility.yul\":9538:9557   */\n      add\n        /* \"#utility.yul\":9529:9535   */\n      dup5\n        /* \"#utility.yul\":9485:9558   */\n      tag_141\n      jump\t// in\n    tag_260:\n        /* \"#utility.yul\":8822:9565   */\n      swap7\n      swap6\n      pop\n      pop\n      pop\n      pop\n      pop\n      pop\n      jump\t// out\n        /* \"#utility.yul\":9571:9688   */\n    tag_157:\n        /* \"#utility.yul\":9680:9681   */\n      0x00\n        /* \"#utility.yul\":9677:9678   */\n      dup1\n        /* \"#utility.yul\":9670:9682   */\n      revert\n        /* \"#utility.yul\":9694:9811   */\n    tag_158:\n        /* \"#utility.yul\":9803:9804   */\n      0x00\n        /* \"#utility.yul\":9800:9801   */\n      dup1\n        /* \"#utility.yul\":9793:9805   */\n      revert\n        /* \"#utility.yul\":9817:9997   */\n    tag_159:\n        /* \"#utility.yul\":9865:9942   */\n      0x4e487b7100000000000000000000000000000000000000000000000000000000\n        /* \"#utility.yul\":9862:9863   */\n      0x00\n        /* \"#utility.yul\":9855:9943   */\n      mstore\n        /* \"#utility.yul\":9962:9966   */\n      0x41\n        /* \"#utility.yul\":9959:9960   */\n      0x04\n        /* \"#utility.yul\":9952:9967   */\n      mstore\n        /* \"#utility.yul\":9986:9990   */\n      0x24\n        /* \"#utility.yul\":9983:9984   */\n      0x00\n        /* \"#utility.yul\":9976:9991   */\n      revert\n        /* \"#utility.yul\":10003:10284   */\n    tag_160:\n        /* \"#utility.yul\":10086:10113   */\n      tag_265\n        /* \"#utility.yul\":10108:10112   */\n      dup3\n        /* \"#utility.yul\":10086:10113   */\n      tag_148\n      jump\t// in\n    tag_265:\n        /* \"#utility.yul\":10078:10084   */\n      dup2\n        /* \"#utility.yul\":10074:10114   */\n      add\n        /* \"#utility.yul\":10216:10222   */\n      dup2\n        /* \"#utility.yul\":10204:10214   */\n      dup2\n        /* \"#utility.yul\":10201:10223   */\n      lt\n        /* \"#utility.yul\":10180:10198   */\n      0xffffffffffffffff\n        /* \"#utility.yul\":10168:10178   */\n      dup3\n        /* \"#utility.yul\":10165:10199   */\n      gt\n        /* \"#utility.yul\":10162:10224   */\n      or\n        /* \"#utility.yul\":10159:10247   */\n      iszero\n      tag_266\n      jumpi\n        /* \"#utility.yul\":10227:10245   */\n      tag_267\n      tag_159\n      jump\t// in\n    tag_267:\n        /* \"#utility.yul\":10159:10247   */\n    tag_266:\n        /* \"#utility.yul\":10267:10277   */\n      dup1\n        /* \"#utility.yul\":10263:10265   */\n      0x40\n        /* \"#utility.yul\":10256:10278   */\n      mstore\n        /* \"#utility.yul\":10046:10284   */\n      pop\n        /* \"#utility.yul\":10003:10284   */\n      pop\n      pop\n      jump\t// out\n        /* \"#utility.yul\":10290:10419   */\n    tag_161:\n        /* \"#utility.yul\":10324:10330   */\n      0x00\n        /* \"#utility.yul\":10351:10371   */\n      tag_269\n      tag_135\n      jump\t// in\n    tag_269:\n        /* \"#utility.yul\":10341:10371   */\n      swap1\n      pop\n        /* \"#utility.yul\":10380:10413   */\n      tag_270\n        /* \"#utility.yul\":10408:10412   */\n      dup3\n        /* \"#utility.yul\":10400:10406   */\n      dup3\n        /* \"#utility.yul\":10380:10413   */\n      tag_160\n      jump\t// in\n    tag_270:\n        /* \"#utility.yul\":10290:10419   */\n      swap2\n      swap1\n      pop\n      jump\t// out\n        /* \"#utility.yul\":10425:10733   */\n    tag_162:\n        /* \"#utility.yul\":10487:10491   */\n      0x00\n        /* \"#utility.yul\":10577:10595   */\n      0xffffffffffffffff\n        /* \"#utility.yul\":10569:10575   */\n      dup3\n        /* \"#utility.yul\":10566:10596   */\n      gt\n        /* \"#utility.yul\":10563:10619   */\n      iszero\n      tag_272\n      jumpi\n        /* \"#utility.yul\":10599:10617   */\n      tag_273\n      tag_159\n      jump\t// in\n    tag_273:\n        /* \"#utility.yul\":10563:10619   */\n    tag_272:\n        /* \"#utility.yul\":10637:10666   */\n      tag_274\n        /* \"#utility.yul\":10659:10665   */\n      dup3\n        /* \"#utility.yul\":10637:10666   */\n      tag_148\n      jump\t// in\n    tag_274:\n        /* \"#utility.yul\":10629:10666   */\n      swap1\n      pop\n        /* \"#utility.yul\":10721:10725   */\n      0x20\n        /* \"#utility.yul\":10715:10719   */\n      dup2\n        /* \"#utility.yul\":10711:10726   */\n      add\n        /* \"#utility.yul\":10703:10726   */\n      swap1\n      pop\n        /* \"#utility.yul\":10425:10733   */\n      swap2\n      swap1\n      pop\n      jump\t// out\n        /* \"#utility.yul\":10739:10887   */\n    tag_163:\n        /* \"#utility.yul\":10837:10843   */\n      dup3\n        /* \"#utility.yul\":10832:10835   */\n      dup2\n        /* \"#utility.yul\":10827:10830   */\n      dup4\n        /* \"#utility.yul\":10814:10844   */\n      calldatacopy\n        /* \"#utility.yul\":10878:10879   */\n      0x00\n        /* \"#utility.yul\":10869:10875   */\n      dup4\n        /* \"#utility.yul\":10864:10867   */\n      dup4\n        /* \"#utility.yul\":10860:10876   */\n      add\n        /* \"#utility.yul\":10853:10880   */\n      mstore\n        /* \"#utility.yul\":10739:10887   */\n      pop\n      pop\n      pop\n      jump\t// out\n        /* \"#utility.yul\":10893:11318   */\n    tag_164:\n        /* \"#utility.yul\":10971:10976   */\n      0x00\n        /* \"#utility.yul\":10996:11062   */\n      tag_277\n        /* \"#utility.yul\":11012:11061   */\n      tag_278\n        /* \"#utility.yul\":11054:11060   */\n      dup5\n        /* \"#utility.yul\":11012:11061   */\n      tag_162\n      jump\t// in\n    tag_278:\n        /* \"#utility.yul\":10996:11062   */\n      tag_161\n      jump\t// in\n    tag_277:\n        /* \"#utility.yul\":10987:11062   */\n      swap1\n      pop\n        /* \"#utility.yul\":11085:11091   */\n      dup3\n        /* \"#utility.yul\":11078:11083   */\n      dup2\n        /* \"#utility.yul\":11071:11092   */\n      mstore\n        /* \"#utility.yul\":11123:11127   */\n      0x20\n        /* \"#utility.yul\":11116:11121   */\n      dup2\n        /* \"#utility.yul\":11112:11128   */\n      add\n        /* \"#utility.yul\":11161:11164   */\n      dup5\n        /* \"#utility.yul\":11152:11158   */\n      dup5\n        /* \"#utility.yul\":11147:11150   */\n      dup5\n        /* \"#utility.yul\":11143:11159   */\n      add\n        /* \"#utility.yul\":11140:11165   */\n      gt\n        /* \"#utility.yul\":11137:11249   */\n      iszero\n      tag_279\n      jumpi\n        /* \"#utility.yul\":11168:11247   */\n      tag_280\n      tag_158\n      jump\t// in\n    tag_280:\n        /* \"#utility.yul\":11137:11249   */\n    tag_279:\n        /* \"#utility.yul\":11258:11312   */\n      tag_281\n        /* \"#utility.yul\":11305:11311   */\n      dup5\n        /* \"#utility.yul\":11300:11303   */\n      dup3\n        /* \"#utility.yul\":11295:11298   */\n      dup6\n        /* \"#utility.yul\":11258:11312   */\n      tag_163\n      jump\t// in\n    tag_281:\n        /* \"#utility.yul\":10977:11318   */\n      pop\n        /* \"#utility.yul\":10893:11318   */\n      swap4\n      swap3\n      pop\n      pop\n      pop\n      jump\t// out\n        /* \"#utility.yul\":11338:11678   */\n    tag_165:\n        /* \"#utility.yul\":11394:11399   */\n      0x00\n        /* \"#utility.yul\":11443:11446   */\n      dup3\n        /* \"#utility.yul\":11436:11440   */\n      0x1f\n        /* \"#utility.yul\":11428:11434   */\n      dup4\n        /* \"#utility.yul\":11424:11441   */\n      add\n        /* \"#utility.yul\":11420:11447   */\n      slt\n        /* \"#utility.yul\":11410:11532   */\n      tag_283\n      jumpi\n        /* \"#utility.yul\":11451:11530   */\n      tag_284\n      tag_157\n      jump\t// in\n    tag_284:\n        /* \"#utility.yul\":11410:11532   */\n    tag_283:\n        /* \"#utility.yul\":11568:11574   */\n      dup2\n        /* \"#utility.yul\":11555:11575   */\n      calldataload\n        /* \"#utility.yul\":11593:11672   */\n      tag_285\n        /* \"#utility.yul\":11668:11671   */\n      dup5\n        /* \"#utility.yul\":11660:11666   */\n      dup3\n        /* \"#utility.yul\":11653:11657   */\n      0x20\n        /* \"#utility.yul\":11645:11651   */\n      dup7\n        /* \"#utility.yul\":11641:11658   */\n      add\n        /* \"#utility.yul\":11593:11672   */\n      tag_164\n      jump\t// in\n    tag_285:\n        /* \"#utility.yul\":11584:11672   */\n      swap2\n      pop\n        /* \"#utility.yul\":11400:11678   */\n      pop\n        /* \"#utility.yul\":11338:11678   */\n      swap3\n      swap2\n      pop\n      pop\n      jump\t// out\n        /* \"#utility.yul\":11684:11806   */\n    tag_166:\n        /* \"#utility.yul\":11757:11781   */\n      tag_287\n        /* \"#utility.yul\":11775:11780   */\n      dup2\n        /* \"#utility.yul\":11757:11781   */\n      tag_143\n      jump\t// in\n    tag_287:\n        /* \"#utility.yul\":11750:11755   */\n      dup2\n        /* \"#utility.yul\":11747:11782   */\n      eq\n        /* \"#utility.yul\":11737:11800   */\n      tag_288\n      jumpi\n        /* \"#utility.yul\":11796:11797   */\n      0x00\n        /* \"#utility.yul\":11793:11794   */\n      dup1\n        /* \"#utility.yul\":11786:11798   */\n      revert\n        /* \"#utility.yul\":11737:11800   */\n    tag_288:\n        /* \"#utility.yul\":11684:11806   */\n      pop\n      jump\t// out\n        /* \"#utility.yul\":11812:11951   */\n    tag_167:\n        /* \"#utility.yul\":11858:11863   */\n      0x00\n        /* \"#utility.yul\":11896:11902   */\n      dup2\n        /* \"#utility.yul\":11883:11903   */\n      calldataload\n        /* \"#utility.yul\":11874:11903   */\n      swap1\n      pop\n        /* \"#utility.yul\":11912:11945   */\n      tag_290\n        /* \"#utility.yul\":11939:11944   */\n      dup2\n        /* \"#utility.yul\":11912:11945   */\n      tag_166\n      jump\t// in\n    tag_290:\n        /* \"#utility.yul\":11812:11951   */\n      swap3\n      swap2\n      pop\n      pop\n      jump\t// out\n        /* \"#utility.yul\":11957:12756   */\n    tag_27:\n        /* \"#utility.yul\":12044:12050   */\n      0x00\n        /* \"#utility.yul\":12052:12058   */\n      dup1\n        /* \"#utility.yul\":12060:12066   */\n      0x00\n        /* \"#utility.yul\":12109:12111   */\n      0x60\n        /* \"#utility.yul\":12097:12106   */\n      dup5\n        /* \"#utility.yul\":12088:12095   */\n      dup7\n        /* \"#utility.yul\":12084:12107   */\n      sub\n        /* \"#utility.yul\":12080:12112   */\n      slt\n        /* \"#utility.yul\":12077:12196   */\n      iszero\n      tag_292\n      jumpi\n        /* \"#utility.yul\":12115:12194   */\n      tag_293\n      tag_136\n      jump\t// in\n    tag_293:\n        /* \"#utility.yul\":12077:12196   */\n    tag_292:\n        /* \"#utility.yul\":12263:12264   */\n      0x00\n        /* \"#utility.yul\":12252:12261   */\n      dup5\n        /* \"#utility.yul\":12248:12265   */\n      add\n        /* \"#utility.yul\":12235:12266   */\n      calldataload\n        /* \"#utility.yul\":12293:12311   */\n      0xffffffffffffffff\n        /* \"#utility.yul\":12285:12291   */\n      dup2\n        /* \"#utility.yul\":12282:12312   */\n      gt\n        /* \"#utility.yul\":12279:12396   */\n      iszero\n      tag_294\n      jumpi\n        /* \"#utility.yul\":12315:12394   */\n      tag_295\n      tag_137\n      jump\t// in\n    tag_295:\n        /* \"#utility.yul\":12279:12396   */\n    tag_294:\n        /* \"#utility.yul\":12420:12483   */\n      tag_296\n        /* \"#utility.yul\":12475:12482   */\n      dup7\n        /* \"#utility.yul\":12466:12472   */\n      dup3\n        /* \"#utility.yul\":12455:12464   */\n      dup8\n        /* \"#utility.yul\":12451:12473   */\n      add\n        /* \"#utility.yul\":12420:12483   */\n      tag_165\n      jump\t// in\n    tag_296:\n        /* \"#utility.yul\":12410:12483   */\n      swap4\n      pop\n        /* \"#utility.yul\":12206:12493   */\n      pop\n        /* \"#utility.yul\":12532:12534   */\n      0x20\n        /* \"#utility.yul\":12558:12611   */\n      tag_297\n        /* \"#utility.yul\":12603:12610   */\n      dup7\n        /* \"#utility.yul\":12594:12600   */\n      dup3\n        /* \"#utility.yul\":12583:12592   */\n      dup8\n        /* \"#utility.yul\":12579:12601   */\n      add\n        /* \"#utility.yul\":12558:12611   */\n      tag_140\n      jump\t// in\n    tag_297:\n        /* \"#utility.yul\":12548:12611   */\n      swap3\n      pop\n        /* \"#utility.yul\":12503:12621   */\n      pop\n        /* \"#utility.yul\":12660:12662   */\n      0x40\n        /* \"#utility.yul\":12686:12739   */\n      tag_298\n        /* \"#utility.yul\":12731:12738   */\n      dup7\n        /* \"#utility.yul\":12722:12728   */\n      dup3\n        /* \"#utility.yul\":12711:12720   */\n      dup8\n        /* \"#utility.yul\":12707:12729   */\n      add\n        /* \"#utility.yul\":12686:12739   */\n      tag_167\n      jump\t// in\n    tag_298:\n        /* \"#utility.yul\":12676:12739   */\n      swap2\n      pop\n        /* \"#utility.yul\":12631:12749   */\n      pop\n        /* \"#utility.yul\":11957:12756   */\n      swap3\n      pop\n      swap3\n      pop\n      swap3\n      jump\t// out\n        /* \"#utility.yul\":12762:12942   */\n    tag_40:\n        /* \"#utility.yul\":12810:12887   */\n      0x4e487b7100000000000000000000000000000000000000000000000000000000\n        /* \"#utility.yul\":12807:12808   */\n      0x00\n        /* \"#utility.yul\":12800:12888   */\n      mstore\n        /* \"#utility.yul\":12907:12911   */\n      0x32\n        /* \"#utility.yul\":12904:12905   */\n      0x04\n        /* \"#utility.yul\":12897:12912   */\n      mstore\n        /* \"#utility.yul\":12931:12935   */\n      0x24\n        /* \"#utility.yul\":12928:12929   */\n      0x00\n        /* \"#utility.yul\":12921:12936   */\n      revert\n        /* \"#utility.yul\":12948:13128   */\n    tag_168:\n        /* \"#utility.yul\":12996:13073   */\n      0x4e487b7100000000000000000000000000000000000000000000000000000000\n        /* \"#utility.yul\":12993:12994   */\n      0x00\n        /* \"#utility.yul\":12986:13074   */\n      mstore\n        /* \"#utility.yul\":13093:13097   */\n      0x12\n        /* \"#utility.yul\":13090:13091   */\n      0x04\n        /* \"#utility.yul\":13083:13098   */\n      mstore\n        /* \"#utility.yul\":13117:13121   */\n      0x24\n        /* \"#utility.yul\":13114:13115   */\n      0x00\n        /* \"#utility.yul\":13107:13122   */\n      revert\n        /* \"#utility.yul\":13134:13314   */\n    tag_169:\n        /* \"#utility.yul\":13182:13259   */\n      0x4e487b7100000000000000000000000000000000000000000000000000000000\n        /* \"#utility.yul\":13179:13180   */\n      0x00\n        /* \"#utility.yul\":13172:13260   */\n      mstore\n        /* \"#utility.yul\":13279:13283   */\n      0x11\n        /* \"#utility.yul\":13276:13277   */\n      0x04\n        /* \"#utility.yul\":13269:13284   */\n      mstore\n        /* \"#utility.yul\":13303:13307   */\n      0x24\n        /* \"#utility.yul\":13300:13301   */\n      0x00\n        /* \"#utility.yul\":13293:13308   */\n      revert\n        /* \"#utility.yul\":13320:13505   */\n    tag_43:\n        /* \"#utility.yul\":13360:13361   */\n      0x00\n        /* \"#utility.yul\":13377:13397   */\n      tag_303\n        /* \"#utility.yul\":13395:13396   */\n      dup3\n        /* \"#utility.yul\":13377:13397   */\n      tag_138\n      jump\t// in\n    tag_303:\n        /* \"#utility.yul\":13372:13397   */\n      swap2\n      pop\n        /* \"#utility.yul\":13411:13431   */\n      tag_304\n        /* \"#utility.yul\":13429:13430   */\n      dup4\n        /* \"#utility.yul\":13411:13431   */\n      tag_138\n      jump\t// in\n    tag_304:\n        /* \"#utility.yul\":13406:13431   */\n      swap3\n      pop\n        /* \"#utility.yul\":13450:13451   */\n      dup3\n        /* \"#utility.yul\":13440:13475   */\n      tag_305\n      jumpi\n        /* \"#utility.yul\":13455:13473   */\n      tag_306\n      tag_168\n      jump\t// in\n    tag_306:\n        /* \"#utility.yul\":13440:13475   */\n    tag_305:\n        /* \"#utility.yul\":13497:13498   */\n      dup3\n        /* \"#utility.yul\":13494:13495   */\n      dup3\n        /* \"#utility.yul\":13490:13499   */\n      div\n        /* \"#utility.yul\":13485:13499   */\n      swap1\n      pop\n        /* \"#utility.yul\":13320:13505   */\n      swap3\n      swap2\n      pop\n      pop\n      jump\t// out\n        /* \"#utility.yul\":13511:13691   */\n    tag_170:\n        /* \"#utility.yul\":13559:13636   */\n      0x4e487b7100000000000000000000000000000000000000000000000000000000\n        /* \"#utility.yul\":13556:13557   */\n      0x00\n        /* \"#utility.yul\":13549:13637   */\n      mstore\n        /* \"#utility.yul\":13656:13660   */\n      0x22\n        /* \"#utility.yul\":13653:13654   */\n      0x04\n        /* \"#utility.yul\":13646:13661   */\n      mstore\n        /* \"#utility.yul\":13680:13684   */\n      0x24\n        /* \"#utility.yul\":13677:13678   */\n      0x00\n        /* \"#utility.yul\":13670:13685   */\n      revert\n        /* \"#utility.yul\":13697:14017   */\n    tag_54:\n        /* \"#utility.yul\":13741:13747   */\n      0x00\n        /* \"#utility.yul\":13778:13779   */\n      0x02\n        /* \"#utility.yul\":13772:13776   */\n      dup3\n        /* \"#utility.yul\":13768:13780   */\n      div\n        /* \"#utility.yul\":13758:13780   */\n      swap1\n      pop\n        /* \"#utility.yul\":13825:13826   */\n      0x01\n        /* \"#utility.yul\":13819:13823   */\n      dup3\n        /* \"#utility.yul\":13815:13827   */\n      and\n        /* \"#utility.yul\":13846:13864   */\n      dup1\n        /* \"#utility.yul\":13836:13917   */\n      tag_309\n      jumpi\n        /* \"#utility.yul\":13902:13906   */\n      0x7f\n        /* \"#utility.yul\":13894:13900   */\n      dup3\n        /* \"#utility.yul\":13890:13907   */\n      and\n        /* \"#utility.yul\":13880:13907   */\n      swap2\n      pop\n        /* \"#utility.yul\":13836:13917   */\n    tag_309:\n        /* \"#utility.yul\":13964:13966   */\n      0x20\n        /* \"#utility.yul\":13956:13962   */\n      dup3\n        /* \"#utility.yul\":13953:13967   */\n      lt\n        /* \"#utility.yul\":13933:13951   */\n      dup2\n        /* \"#utility.yul\":13930:13968   */\n      sub\n        /* \"#utility.yul\":13927:14011   */\n      tag_310\n      jumpi\n        /* \"#utility.yul\":13983:14001   */\n      tag_311\n      tag_170\n      jump\t// in\n    tag_311:\n        /* \"#utility.yul\":13927:14011   */\n    tag_310:\n        /* \"#utility.yul\":13748:14017   */\n      pop\n        /* \"#utility.yul\":13697:14017   */\n      swap2\n      swap1\n      pop\n      jump\t// out\n        /* \"#utility.yul\":14023:14164   */\n    tag_171:\n        /* \"#utility.yul\":14072:14076   */\n      0x00\n        /* \"#utility.yul\":14095:14098   */\n      dup2\n        /* \"#utility.yul\":14087:14098   */\n      swap1\n      pop\n        /* \"#utility.yul\":14118:14121   */\n      dup2\n        /* \"#utility.yul\":14115:14116   */\n      0x00\n        /* \"#utility.yul\":14108:14122   */\n      mstore\n        /* \"#utility.yul\":14152:14156   */\n      0x20\n        /* \"#utility.yul\":14149:14150   */\n      0x00\n        /* \"#utility.yul\":14139:14157   */\n      keccak256\n        /* \"#utility.yul\":14131:14157   */\n      swap1\n      pop\n        /* \"#utility.yul\":14023:14164   */\n      swap2\n      swap1\n      pop\n      jump\t// out\n        /* \"#utility.yul\":14170:14263   */\n    tag_172:\n        /* \"#utility.yul\":14207:14213   */\n      0x00\n        /* \"#utility.yul\":14254:14256   */\n      0x20\n        /* \"#utility.yul\":14249:14251   */\n      0x1f\n        /* \"#utility.yul\":14242:14247   */\n      dup4\n        /* \"#utility.yul\":14238:14252   */\n      add\n        /* \"#utility.yul\":14234:14257   */\n      div\n        /* \"#utility.yul\":14224:14257   */\n      swap1\n      pop\n        /* \"#utility.yul\":14170:14263   */\n      swap2\n      swap1\n      pop\n      jump\t// out\n        /* \"#utility.yul\":14269:14376   */\n    tag_173:\n        /* \"#utility.yul\":14313:14321   */\n      0x00\n        /* \"#utility.yul\":14363:14368   */\n      dup3\n        /* \"#utility.yul\":14357:14361   */\n      dup3\n        /* \"#utility.yul\":14353:14369   */\n      shl\n        /* \"#utility.yul\":14332:14369   */\n      swap1\n      pop\n        /* \"#utility.yul\":14269:14376   */\n      swap3\n      swap2\n      pop\n      pop\n      jump\t// out\n        /* \"#utility.yul\":14382:14775   */\n    tag_174:\n        /* \"#utility.yul\":14451:14457   */\n      0x00\n        /* \"#utility.yul\":14501:14502   */\n      0x08\n        /* \"#utility.yul\":14489:14499   */\n      dup4\n        /* \"#utility.yul\":14485:14503   */\n      mul\n        /* \"#utility.yul\":14524:14621   */\n      tag_316\n        /* \"#utility.yul\":14554:14620   */\n      0xffffffffffffffffffffffffffffffffffffffffffffffffffffffffffffffff\n        /* \"#utility.yul\":14543:14552   */\n      dup3\n        /* \"#utility.yul\":14524:14621   */\n      tag_173\n      jump\t// in\n    tag_316:\n        /* \"#utility.yul\":14642:14681   */\n      tag_317\n        /* \"#utility.yul\":14672:14680   */\n      dup7\n        /* \"#utility.yul\":14661:14670   */\n      dup4\n        /* \"#utility.yul\":14642:14681   */\n      tag_173\n      jump\t// in\n    tag_317:\n        /* \"#utility.yul\":14630:14681   */\n      swap6\n      pop\n        /* \"#utility.yul\":14714:14718   */\n      dup1\n        /* \"#utility.yul\":14710:14719   */\n      not\n        /* \"#utility.yul\":14703:14708   */\n      dup5\n        /* \"#utility.yul\":14699:14720   */\n      and\n        /* \"#utility.yul\":14690:14720   */\n      swap4\n      pop\n        /* \"#utility.yul\":14763:14767   */\n      dup1\n        /* \"#utility.yul\":14753:14761   */\n      dup7\n        /* \"#utility.yul\":14749:14768   */\n      and\n        /* \"#utility.yul\":14742:14747   */\n      dup5\n        /* \"#utility.yul\":14739:14769   */\n      or\n        /* \"#utility.yul\":14729:14769   */\n      swap3\n      pop\n        /* \"#utility.yul\":14458:14775   */\n      pop\n      pop\n        /* \"#utility.yul\":14382:14775   */\n      swap4\n      swap3\n      pop\n      pop\n      pop\n      jump\t// out\n        /* \"#utility.yul\":14781:14841   */\n    tag_175:\n        /* \"#utility.yul\":14809:14812   */\n      0x00\n        /* \"#utility.yul\":14830:14835   */\n      dup2\n        /* \"#utility.yul\":14823:14835   */\n      swap1\n      pop\n        /* \"#utility.yul\":14781:14841   */\n      swap2\n      swap1\n      pop\n      jump\t// out\n        /* \"#utility.yul\":14847:14989   */\n    tag_176:\n        /* \"#utility.yul\":14897:14906   */\n      0x00\n        /* \"#utility.yul\":14930:14983   */\n      tag_320\n        /* \"#utility.yul\":14948:14982   */\n      tag_321\n        /* \"#utility.yul\":14957:14981   */\n      tag_322\n        /* \"#utility.yul\":14975:14980   */\n      dup5\n        /* \"#utility.yul\":14957:14981   */\n      tag_138\n      jump\t// in\n    tag_322:\n        /* \"#utility.yul\":14948:14982   */\n      tag_175\n      jump\t// in\n    tag_321:\n        /* \"#utility.yul\":14930:14983   */\n      tag_138\n      jump\t// in\n    tag_320:\n        /* \"#utility.yul\":14917:14983   */\n      swap1\n      pop\n        /* \"#utility.yul\":14847:14989   */\n      swap2\n      swap1\n      pop\n      jump\t// out\n        /* \"#utility.yul\":14995:15070   */\n    tag_177:\n        /* \"#utility.yul\":15038:15041   */\n      0x00\n        /* \"#utility.yul\":15059:15064   */\n      dup2\n        /* \"#utility.yul\":15052:15064   */\n      swap1\n      pop\n        /* \"#utility.yul\":14995:15070   */\n      swap2\n      swap1\n      pop\n      jump\t// out\n        /* \"#utility.yul\":15076:15345   */\n    tag_178:\n        /* \"#utility.yul\":15186:15225   */\n      tag_325\n        /* \"#utility.yul\":15217:15224   */\n      dup4\n        /* \"#utility.yul\":15186:15225   */\n      tag_176\n      jump\t// in\n    tag_325:\n        /* \"#utility.yul\":15247:15338   */\n      tag_326\n        /* \"#utility.yul\":15296:15337   */\n      tag_327\n        /* \"#utility.yul\":15320:15336   */\n      dup3\n        /* \"#utility.yul\":15296:15337   */\n      tag_177\n      jump\t// in\n    tag_327:\n        /* \"#utility.yul\":15288:15294   */\n      dup5\n        /* \"#utility.yul\":15281:15285   */\n      dup5\n        /* \"#utility.yul\":15275:15286   */\n      sload\n        /* \"#utility.yul\":15247:15338   */\n      tag_174\n      jump\t// in\n    tag_326:\n        /* \"#utility.yul\":15241:15245   */\n      dup3\n        /* \"#utility.yul\":15234:15339   */\n      sstore\n        /* \"#utility.yul\":15152:15345   */\n      pop\n        /* \"#utility.yul\":15076:15345   */\n      pop\n      pop\n      pop\n      jump\t// out\n        /* \"#utility.yul\":15351:15424   */\n    tag_179:\n        /* \"#utility.yul\":15396:15399   */\n      0x00\n        /* \"#utility.yul\":15351:15424   */\n      swap1\n      jump\t// out\n        /* \"#utility.yul\":15430:15619   */\n    tag_180:\n        /* \"#utility.yul\":15507:15539   */\n      tag_330\n      tag_179\n      jump\t// in\n    tag_330:\n        /* \"#utility.yul\":15548:15613   */\n      tag_331\n        /* \"#utility.yul\":15606:15612   */\n      dup2\n        /* \"#utility.yul\":15598:15604   */\n      dup5\n        /* \"#utility.yul\":15592:15596   */\n      dup5\n        /* \"#utility.yul\":15548:15613   */\n      tag_178\n      jump\t// in\n    tag_331:\n        /* \"#utility.yul\":15483:15619   */\n      pop\n        /* \"#utility.yul\":15430:15619   */\n      pop\n      pop\n      jump\t// out\n        /* \"#utility.yul\":15625:15811   */\n    tag_181:\n        /* \"#utility.yul\":15685:15805   */\n    tag_333:\n        /* \"#utility.yul\":15702:15705   */\n      dup2\n        /* \"#utility.yul\":15695:15700   */\n      dup2\n        /* \"#utility.yul\":15692:15706   */\n      lt\n        /* \"#utility.yul\":15685:15805   */\n      iszero\n      tag_335\n      jumpi\n        /* \"#utility.yul\":15756:15795   */\n      tag_336\n        /* \"#utility.yul\":15793:15794   */\n      0x00\n        /* \"#utility.yul\":15786:15791   */\n      dup3\n        /* \"#utility.yul\":15756:15795   */\n      tag_180\n      jump\t// in\n    tag_336:\n        /* \"#utility.yul\":15729:15730   */\n      0x01\n        /* \"#utility.yul\":15722:15727   */\n      dup2\n        /* \"#utility.yul\":15718:15731   */\n      add\n        /* \"#utility.yul\":15709:15731   */\n      swap1\n      pop\n        /* \"#utility.yul\":15685:15805   */\n      jump(tag_333)\n    tag_335:\n        /* \"#utility.yul\":15625:15811   */\n      pop\n      pop\n      jump\t// out\n        /* \"#utility.yul\":15817:16360   */\n    tag_182:\n        /* \"#utility.yul\":15918:15920   */\n      0x1f\n        /* \"#utility.yul\":15913:15916   */\n      dup3\n        /* \"#utility.yul\":15910:15921   */\n      gt\n        /* \"#utility.yul\":15907:16353   */\n      iszero\n      tag_338\n      jumpi\n        /* \"#utility.yul\":15952:15990   */\n      tag_339\n        /* \"#utility.yul\":15984:15989   */\n      dup2\n        /* \"#utility.yul\":15952:15990   */\n      tag_171\n      jump\t// in\n    tag_339:\n        /* \"#utility.yul\":16036:16065   */\n      tag_340\n        /* \"#utility.yul\":16054:16064   */\n      dup5\n        /* \"#utility.yul\":16036:16065   */\n      tag_172\n      jump\t// in\n    tag_340:\n        /* \"#utility.yul\":16026:16034   */\n      dup2\n        /* \"#utility.yul\":16022:16066   */\n      add\n        /* \"#utility.yul\":16219:16221   */\n      0x20\n        /* \"#utility.yul\":16207:16217   */\n      dup6\n        /* \"#utility.yul\":16204:16222   */\n      lt\n        /* \"#utility.yul\":16201:16250   */\n      iszero\n      tag_341\n      jumpi\n        /* \"#utility.yul\":16240:16248   */\n      dup2\n        /* \"#utility.yul\":16225:16248   */\n      swap1\n      pop\n        /* \"#utility.yul\":16201:16250   */\n    tag_341:\n        /* \"#utility.yul\":16263:16343   */\n      tag_342\n        /* \"#utility.yul\":16319:16341   */\n      tag_343\n        /* \"#utility.yul\":16337:16340   */\n      dup6\n        /* \"#utility.yul\":16319:16341   */\n      tag_172\n      jump\t// in\n    tag_343:\n        /* \"#utility.yul\":16309:16317   */\n      dup4\n        /* \"#utility.yul\":16305:16342   */\n      add\n        /* \"#utility.yul\":16292:16303   */\n      dup3\n        /* \"#utility.yul\":16263:16343   */\n      tag_181\n      jump\t// in\n    tag_342:\n        /* \"#utility.yul\":15922:16353   */\n      pop\n      pop\n        /* \"#utility.yul\":15907:16353   */\n    tag_338:\n        /* \"#utility.yul\":15817:16360   */\n      pop\n      pop\n      pop\n      jump\t// out\n        /* \"#utility.yul\":16366:16483   */\n    tag_183:\n        /* \"#utility.yul\":16420:16428   */\n      0x00\n        /* \"#utility.yul\":16470:16475   */\n      dup3\n        /* \"#utility.yul\":16464:16468   */\n      dup3\n        /* \"#utility.yul\":16460:16476   */\n      shr\n        /* \"#utility.yul\":16439:16476   */\n      swap1\n      pop\n        /* \"#utility.yul\":16366:16483   */\n      swap3\n      swap2\n      pop\n      pop\n      jump\t// out\n        /* \"#utility.yul\":16489:16658   */\n    tag_184:\n        /* \"#utility.yul\":16533:16539   */\n      0x00\n        /* \"#utility.yul\":16566:16617   */\n      tag_346\n        /* \"#utility.yul\":16614:16615   */\n      0x00\n        /* \"#utility.yul\":16610:16616   */\n      not\n        /* \"#utility.yul\":16602:16607   */\n      dup5\n        /* \"#utility.yul\":16599:16600   */\n      0x08\n        /* \"#utility.yul\":16595:16608   */\n      mul\n        /* \"#utility.yul\":16566:16617   */\n      tag_183\n      jump\t// in\n    tag_346:\n        /* \"#utility.yul\":16562:16618   */\n      not\n        /* \"#utility.yul\":16647:16651   */\n      dup1\n        /* \"#utility.yul\":16641:16645   */\n      dup4\n        /* \"#utility.yul\":16637:16652   */\n      and\n        /* \"#utility.yul\":16627:16652   */\n      swap2\n      pop\n        /* \"#utility.yul\":16540:16658   */\n      pop\n        /* \"#utility.yul\":16489:16658   */\n      swap3\n      swap2\n      pop\n      pop\n      jump\t// out\n        /* \"#utility.yul\":16663:16958   */\n    tag_185:\n        /* \"#utility.yul\":16739:16743   */\n      0x00\n        /* \"#utility.yul\":16885:16914   */\n      tag_348\n        /* \"#utility.yul\":16910:16913   */\n      dup4\n        /* \"#utility.yul\":16904:16908   */\n      dup4\n        /* \"#utility.yul\":16885:16914   */\n      tag_184\n      jump\t// in\n    tag_348:\n        /* \"#utility.yul\":16877:16914   */\n      swap2\n      pop\n        /* \"#utility.yul\":16947:16950   */\n      dup3\n        /* \"#utility.yul\":16944:16945   */\n      0x02\n        /* \"#utility.yul\":16940:16951   */\n      mul\n        /* \"#utility.yul\":16934:16938   */\n      dup3\n        /* \"#utility.yul\":16931:16952   */\n      or\n        /* \"#utility.yul\":16923:16952   */\n      swap1\n      pop\n        /* \"#utility.yul\":16663:16958   */\n      swap3\n      swap2\n      pop\n      pop\n      jump\t// out\n        /* \"#utility.yul\":16963:18358   */\n    tag_121:\n        /* \"#utility.yul\":17080:17117   */\n      tag_350\n        /* \"#utility.yul\":17113:17116   */\n      dup3\n        /* \"#utility.yul\":17080:17117   */\n      tag_145\n      jump\t// in\n    tag_350:\n        /* \"#utility.yul\":17182:17200   */\n      0xffffffffffffffff\n        /* \"#utility.yul\":17174:17180   */\n      dup2\n        /* \"#utility.yul\":17171:17201   */\n      gt\n        /* \"#utility.yul\":17168:17224   */\n      iszero\n      tag_351\n      jumpi\n        /* \"#utility.yul\":17204:17222   */\n      tag_352\n      tag_159\n      jump\t// in\n    tag_352:\n        /* \"#utility.yul\":17168:17224   */\n    tag_351:\n        /* \"#utility.yul\":17248:17286   */\n      tag_353\n        /* \"#utility.yul\":17280:17284   */\n      dup3\n        /* \"#utility.yul\":17274:17285   */\n      sload\n        /* \"#utility.yul\":17248:17286   */\n      tag_54\n      jump\t// in\n    tag_353:\n        /* \"#utility.yul\":17333:17400   */\n      tag_354\n        /* \"#utility.yul\":17393:17399   */\n      dup3\n        /* \"#utility.yul\":17385:17391   */\n      dup3\n        /* \"#utility.yul\":17379:17383   */\n      dup6\n        /* \"#utility.yul\":17333:17400   */\n      tag_182\n      jump\t// in\n    tag_354:\n        /* \"#utility.yul\":17427:17428   */\n      0x00\n        /* \"#utility.yul\":17451:17455   */\n      0x20\n        /* \"#utility.yul\":17438:17455   */\n      swap1\n      pop\n        /* \"#utility.yul\":17483:17485   */\n      0x1f\n        /* \"#utility.yul\":17475:17481   */\n      dup4\n        /* \"#utility.yul\":17472:17486   */\n      gt\n        /* \"#utility.yul\":17500:17501   */\n      0x01\n        /* \"#utility.yul\":17495:18113   */\n      dup2\n      eq\n      tag_356\n      jumpi\n        /* \"#utility.yul\":18157:18158   */\n      0x00\n        /* \"#utility.yul\":18174:18180   */\n      dup5\n        /* \"#utility.yul\":18171:18248   */\n      iszero\n      tag_357\n      jumpi\n        /* \"#utility.yul\":18223:18232   */\n      dup3\n        /* \"#utility.yul\":18218:18221   */\n      dup8\n        /* \"#utility.yul\":18214:18233   */\n      add\n        /* \"#utility.yul\":18208:18234   */\n      mload\n        /* \"#utility.yul\":18199:18234   */\n      swap1\n      pop\n        /* \"#utility.yul\":18171:18248   */\n    tag_357:\n        /* \"#utility.yul\":18274:18341   */\n      tag_358\n        /* \"#utility.yul\":18334:18340   */\n      dup6\n        /* \"#utility.yul\":18327:18332   */\n      dup3\n        /* \"#utility.yul\":18274:18341   */\n      tag_185\n      jump\t// in\n    tag_358:\n        /* \"#utility.yul\":18268:18272   */\n      dup7\n        /* \"#utility.yul\":18261:18342   */\n      sstore\n        /* \"#utility.yul\":18130:18352   */\n      pop\n        /* \"#utility.yul\":17465:18352   */\n      jump(tag_355)\n        /* \"#utility.yul\":17495:18113   */\n    tag_356:\n        /* \"#utility.yul\":17547:17551   */\n      0x1f\n        /* \"#utility.yul\":17543:17552   */\n      not\n        /* \"#utility.yul\":17535:17541   */\n      dup5\n        /* \"#utility.yul\":17531:17553   */\n      and\n        /* \"#utility.yul\":17581:17618   */\n      tag_359\n        /* \"#utility.yul\":17613:17617   */\n      dup7\n        /* \"#utility.yul\":17581:17618   */\n      tag_171\n      jump\t// in\n    tag_359:\n        /* \"#utility.yul\":17640:17641   */\n      0x00\n        /* \"#utility.yul\":17654:17862   */\n    tag_360:\n        /* \"#utility.yul\":17668:17675   */\n      dup3\n        /* \"#utility.yul\":17665:17666   */\n      dup2\n        /* \"#utility.yul\":17662:17676   */\n      lt\n        /* \"#utility.yul\":17654:17862   */\n      iszero\n      tag_362\n      jumpi\n        /* \"#utility.yul\":17747:17756   */\n      dup5\n        /* \"#utility.yul\":17742:17745   */\n      dup10\n        /* \"#utility.yul\":17738:17757   */\n      add\n        /* \"#utility.yul\":17732:17758   */\n      mload\n        /* \"#utility.yul\":17724:17730   */\n      dup3\n        /* \"#utility.yul\":17717:17759   */\n      sstore\n        /* \"#utility.yul\":17798:17799   */\n      0x01\n        /* \"#utility.yul\":17790:17796   */\n      dup3\n        /* \"#utility.yul\":17786:17800   */\n      add\n        /* \"#utility.yul\":17776:17800   */\n      swap2\n      pop\n        /* \"#utility.yul\":17845:17847   */\n      0x20\n        /* \"#utility.yul\":17834:17843   */\n      dup6\n        /* \"#utility.yul\":17830:17848   */\n      add\n        /* \"#utility.yul\":17817:17848   */\n      swap5\n      pop\n        /* \"#utility.yul\":17691:17695   */\n      0x20\n        /* \"#utility.yul\":17688:17689   */\n      dup2\n        /* \"#utility.yul\":17684:17696   */\n      add\n        /* \"#utility.yul\":17679:17696   */\n      swap1\n      pop\n        /* \"#utility.yul\":17654:17862   */\n      jump(tag_360)\n    tag_362:\n        /* \"#utility.yul\":17890:17896   */\n      dup7\n        /* \"#utility.yul\":17881:17888   */\n      dup4\n        /* \"#utility.yul\":17878:17897   */\n      lt\n        /* \"#utility.yul\":17875:18054   */\n      iszero\n      tag_363\n      jumpi\n        /* \"#utility.yul\":17948:17957   */\n      dup5\n        /* \"#utility.yul\":17943:17946   */\n      dup10\n        /* \"#utility.yul\":17939:17958   */\n      add\n        /* \"#utility.yul\":17933:17959   */\n      mload\n        /* \"#utility.yul\":17991:18039   */\n      tag_364\n        /* \"#utility.yul\":18033:18037   */\n      0x1f\n        /* \"#utility.yul\":18025:18031   */\n      dup10\n        /* \"#utility.yul\":18021:18038   */\n      and\n        /* \"#utility.yul\":18010:18019   */\n      dup3\n        /* \"#utility.yul\":17991:18039   */\n      tag_184\n      jump\t// in\n    tag_364:\n        /* \"#utility.yul\":17983:17989   */\n      dup4\n        /* \"#utility.yul\":17976:18040   */\n      sstore\n        /* \"#utility.yul\":17898:18054   */\n      pop\n        /* \"#utility.yul\":17875:18054   */\n    tag_363:\n        /* \"#utility.yul\":18100:18101   */\n      0x01\n        /* \"#utility.yul\":18096:18097   */\n      0x02\n        /* \"#utility.yul\":18088:18094   */\n      dup9\n        /* \"#utility.yul\":18084:18098   */\n      mul\n        /* \"#utility.yul\":18080:18102   */\n      add\n        /* \"#utility.yul\":18074:18078   */\n      dup9\n        /* \"#utility.yul\":18067:18103   */\n      sstore\n        /* \"#utility.yul\":17502:18113   */\n      pop\n      pop\n      pop\n        /* \"#utility.yul\":17465:18352   */\n    tag_355:\n      pop\n        /* \"#utility.yul\":17055:18358   */\n      pop\n      pop\n      pop\n        /* \"#utility.yul\":16963:18358   */\n      pop\n      pop\n      jump\t// out\n        /* \"#utility.yul\":18364:18597   */\n    tag_125:\n        /* \"#utility.yul\":18403:18406   */\n      0x00\n        /* \"#utility.yul\":18426:18450   */\n      tag_366\n        /* \"#utility.yul\":18444:18449   */\n      dup3\n        /* \"#utility.yul\":18426:18450   */\n      tag_138\n      jump\t// in\n    tag_366:\n        /* \"#utility.yul\":18417:18450   */\n      swap2\n      pop\n        /* \"#utility.yul\":18472:18538   */\n      0xffffffffffffffffffffffffffffffffffffffffffffffffffffffffffffffff\n        /* \"#utility.yul\":18465:18470   */\n      dup3\n        /* \"#utility.yul\":18462:18539   */\n      sub\n        /* \"#utility.yul\":18459:18562   */\n      tag_367\n      jumpi\n        /* \"#utility.yul\":18542:18560   */\n      tag_368\n      tag_169\n      jump\t// in\n    tag_368:\n        /* \"#utility.yul\":18459:18562   */\n    tag_367:\n        /* \"#utility.yul\":18589:18590   */\n      0x01\n        /* \"#utility.yul\":18582:18587   */\n      dup3\n        /* \"#utility.yul\":18578:18591   */\n      add\n        /* \"#utility.yul\":18571:18591   */\n      swap1\n      pop\n        /* \"#utility.yul\":18364:18597   */\n      swap2\n      swap1\n      pop\n      jump\t// out\n\n    auxdata: 0xa26469706673582212202f0a195d7c4a83ff25b46df3d04aa2f8bd2041a3485a950bdc64c58a22c33c1d64736f6c63430008190033\n}\n","bytecode":{"linkReferences":{},"object":"608060405234801561000f575f80fd5b5060405161193b38038061193b83398181016040528101906100319190610110565b8060115f6101000a81548173ffffffffffffffffffffffffffffffffffffffff021916908373ffffffffffffffffffffffffffffffffffffffff16021790555081601281905550505061014e565b5f80fd5b5f819050919050565b61009581610083565b811461009f575f80fd5b50565b5f815190506100b08161008c565b92915050565b5f73ffffffffffffffffffffffffffffffffffffffff82169050919050565b5f6100df826100b6565b9050919050565b6100ef816100d5565b81146100f9575f80fd5b50565b5f8151905061010a816100e6565b92915050565b5f80604083850312156101265761012561007f565b5b5f610133858286016100a2565b9250506020610144858286016100fc565b9150509250929050565b6117e08061015b5f395ff3fe608060405260043610610054575f3560e01c806303441006146100585780634051ddac1461008057806381d12c58146100b25780638a9cfd55146100f2578063d7bb99ba1461011a578063d7d1bbdb14610124575b5f80fd5b348015610063575f80fd5b5061007e60048036038101906100799190610e3c565b61014c565b005b34801561008b575f80fd5b5061009461028a565b6040516100a9999897969594939291906110ce565b60405180910390f35b3480156100bd575f80fd5b506100d860048036038101906100d39190610e3c565b610973565b6040516100e99594939291906111c9565b60405180910390f35b3480156100fd575f80fd5b5061011860048036038101906101139190611377565b610a65565b005b610122610b64565b005b34801561012f575f80fd5b5061014a60048036038101906101459190610e3c565b610bdf565b005b60115f9054906101000a900473ffffffffffffffffffffffffffffffffffffffff1673ffffffffffffffffffffffffffffffffffffffff163373ffffffffffffffffffffffffffffffffffffffff16146101a4575f80fd5b5f8082815481106101b8576101b76113e3565b5b905f5260205f209060050201905060026014546101d5919061146a565b8160030154116101e3575f80fd5b8060020160149054906101000a900460ff16156101fe575f80fd5b806002015f9054906101000a900473ffffffffffffffffffffffffffffffffffffffff1673ffffffffffffffffffffffffffffffffffffffff166108fc826001015490811502906040515f60405180830381858888f19350505050158015610268573d5f803e3d5ffd5b5060018160020160146101000a81548160ff0219169083151502179055505050565b5f805f805f610297610d74565b61029f610dae565b5f80601254475f8054905060145460115f9054906101000a900473ffffffffffffffffffffffffffffffffffffffff1660016008601554601654836040518060e00160405290815f820180546102f4906114c7565b80601f0160208091040260200160405190810160405280929190818152602001828054610320906114c7565b801561036b5780601f106103425761010080835404028352916020019161036b565b820191905f5260205f20905b81548152906001019060200180831161034e57829003601f168201915b50505050508152602001600182018054610384906114c7565b80601f01602080910402602001604051908101604052809291908181526020018280546103b0906114c7565b80156103fb5780601f106103d2576101008083540402835291602001916103fb565b820191905f5260205f20905b8154815290600101906020018083116103de57829003601f168201915b505050505081526020016002820154815260200160038201805461041e906114c7565b80601f016020809104026020016040519081016040528092919081815260200182805461044a906114c7565b80156104955780601f1061046c57610100808354040283529160200191610495565b820191905f5260205f20905b81548152906001019060200180831161047857829003601f168201915b505050505081526020016004820180546104ae906114c7565b80601f01602080910402602001604051908101604052809291908181526020018280546104da906114c7565b80156105255780601f106104fc57610100808354040283529160200191610525565b820191905f5260205f20905b81548152906001019060200180831161050857829003601f168201915b5050505050815260200160058201548152602001600682015481525050935082604051806101200160405290815f82018054610560906114c7565b80601f016020809104026020016040519081016040528092919081815260200182805461058c906114c7565b80156105d75780601f106105ae576101008083540402835291602001916105d7565b820191905f5260205f20905b8154815290600101906020018083116105ba57829003601f168201915b505050505081526020016001820180546105f0906114c7565b80601f016020809104026020016040519081016040528092919081815260200182805461061c906114c7565b80156106675780601f1061063e57610100808354040283529160200191610667565b820191905f5260205f20905b81548152906001019060200180831161064a57829003601f168201915b50505050508152602001600282018054610680906114c7565b80601f01602080910402602001604051908101604052809291908181526020018280546106ac906114c7565b80156106f75780601f106106ce576101008083540402835291602001916106f7565b820191905f5260205f20905b8154815290600101906020018083116106da57829003601f168201915b50505050508152602001600382018054610710906114c7565b80601f016020809104026020016040519081016040528092919081815260200182805461073c906114c7565b80156107875780601f1061075e57610100808354040283529160200191610787565b820191905f5260205f20905b81548152906001019060200180831161076a57829003601f168201915b505050505081526020016004820180546107a0906114c7565b80601f01602080910402602001604051908101604052809291908181526020018280546107cc906114c7565b80156108175780601f106107ee57610100808354040283529160200191610817565b820191905f5260205f20905b8154815290600101906020018083116107fa57829003601f168201915b50505050508152602001600582018054610830906114c7565b80601f016020809104026020016040519081016040528092919081815260200182805461085c906114c7565b80156108a75780601f1061087e576101008083540402835291602001916108a7565b820191905f5260205f20905b81548152906001019060200180831161088a57829003601f168201915b505050505081526020016006820180546108c0906114c7565b80601f01602080910402602001604051908101604052809291908181526020018280546108ec906114c7565b80156109375780601f1061090e57610100808354040283529160200191610937565b820191905f5260205f20905b81548152906001019060200180831161091a57829003601f168201915b50505050508152602001600782015481526020016008820154815250509250985098509850985098509850985098509850909192939495969798565b5f8181548110610981575f80fd5b905f5260205f2090600502015f91509050805f0180546109a0906114c7565b80601f01602080910402602001604051908101604052809291908181526020018280546109cc906114c7565b8015610a175780601f106109ee57610100808354040283529160200191610a17565b820191905f5260205f20905b8154815290600101906020018083116109fa57829003601f168201915b505050505090806001015490806002015f9054906101000a900473ffffffffffffffffffffffffffffffffffffffff16908060020160149054906101000a900460ff16908060030154905085565b60115f9054906101000a900473ffffffffffffffffffffffffffffffffffffffff1673ffffffffffffffffffffffffffffffffffffffff163373ffffffffffffffffffffffffffffffffffffffff1614610abd575f80fd5b5f8060018160018154018082558091505003905f5260205f209060050201905083815f019081610aed9190611694565b5082816001018190555081816002015f6101000a81548173ffffffffffffffffffffffffffffffffffffffff021916908373ffffffffffffffffffffffffffffffffffffffff1602179055505f8160020160146101000a81548160ff0219169083151502179055505f816003018190555050505050565b6012543411610b71575f80fd5b600160135f3373ffffffffffffffffffffffffffffffffffffffff1673ffffffffffffffffffffffffffffffffffffffff1681526020019081526020015f205f6101000a81548160ff02191690831515021790555060145f815480929190610bd890611763565b9190505550565b60115f9054906101000a900473ffffffffffffffffffffffffffffffffffffffff1673ffffffffffffffffffffffffffffffffffffffff163373ffffffffffffffffffffffffffffffffffffffff1603610c37575f80fd5b5f808281548110610c4b57610c4a6113e3565b5b905f5260205f209060050201905060135f3373ffffffffffffffffffffffffffffffffffffffff1673ffffffffffffffffffffffffffffffffffffffff1681526020019081526020015f205f9054906101000a900460ff16610cab575f80fd5b806004015f3373ffffffffffffffffffffffffffffffffffffffff1673ffffffffffffffffffffffffffffffffffffffff1681526020019081526020015f205f9054906101000a900460ff1615610d00575f80fd5b6001816004015f3373ffffffffffffffffffffffffffffffffffffffff1673ffffffffffffffffffffffffffffffffffffffff1681526020019081526020015f205f6101000a81548160ff021916908315150217905550806003015f815480929190610d6b90611763565b91905055505050565b6040518060e0016040528060608152602001606081526020015f815260200160608152602001606081526020015f81526020015f81525090565b604051806101200160405280606081526020016060815260200160608152602001606081526020016060815260200160608152602001606081526020015f81526020015f81525090565b5f604051905090565b5f80fd5b5f80fd5b5f819050919050565b610e1b81610e09565b8114610e25575f80fd5b50565b5f81359050610e3681610e12565b92915050565b5f60208284031215610e5157610e50610e01565b5b5f610e5e84828501610e28565b91505092915050565b610e7081610e09565b82525050565b5f73ffffffffffffffffffffffffffffffffffffffff82169050919050565b5f610e9f82610e76565b9050919050565b610eaf81610e95565b82525050565b5f81519050919050565b5f82825260208201905092915050565b8281835e5f83830152505050565b5f601f19601f8301169050919050565b5f610ef782610eb5565b610f018185610ebf565b9350610f11818560208601610ecf565b610f1a81610edd565b840191505092915050565b610f2e81610e09565b82525050565b5f60e083015f8301518482035f860152610f4e8282610eed565b91505060208301518482036020860152610f688282610eed565b9150506040830151610f7d6040860182610f25565b5060608301518482036060860152610f958282610eed565b91505060808301518482036080860152610faf8282610eed565b91505060a0830151610fc460a0860182610f25565b5060c0830151610fd760c0860182610f25565b508091505092915050565b5f61012083015f8301518482035f860152610ffd8282610eed565b915050602083015184820360208601526110178282610eed565b915050604083015184820360408601526110318282610eed565b9150506060830151848203606086015261104b8282610eed565b915050608083015184820360808601526110658282610eed565b91505060a083015184820360a086015261107f8282610eed565b91505060c083015184820360c08601526110998282610eed565b91505060e08301516110ae60e0860182610f25565b506101008301516110c3610100860182610f25565b508091505092915050565b5f610120820190506110e25f83018c610e67565b6110ef602083018b610e67565b6110fc604083018a610e67565b6111096060830189610e67565b6111166080830188610ea6565b81810360a08301526111288187610f34565b905081810360c083015261113c8186610fe2565b905061114b60e0830185610e67565b611159610100830184610e67565b9a9950505050505050505050565b5f82825260208201905092915050565b5f61118182610eb5565b61118b8185611167565b935061119b818560208601610ecf565b6111a481610edd565b840191505092915050565b5f8115159050919050565b6111c3816111af565b82525050565b5f60a0820190508181035f8301526111e18188611177565b90506111f06020830187610e67565b6111fd6040830186610ea6565b61120a60608301856111ba565b6112176080830184610e67565b9695505050505050565b5f80fd5b5f80fd5b7f4e487b71000000000000000000000000000000000000000000000000000000005f52604160045260245ffd5b61125f82610edd565b810181811067ffffffffffffffff8211171561127e5761127d611229565b5b80604052505050565b5f611290610df8565b905061129c8282611256565b919050565b5f67ffffffffffffffff8211156112bb576112ba611229565b5b6112c482610edd565b9050602081019050919050565b828183375f83830152505050565b5f6112f16112ec846112a1565b611287565b90508281526020810184848401111561130d5761130c611225565b5b6113188482856112d1565b509392505050565b5f82601f83011261133457611333611221565b5b81356113448482602086016112df565b91505092915050565b61135681610e95565b8114611360575f80fd5b50565b5f813590506113718161134d565b92915050565b5f805f6060848603121561138e5761138d610e01565b5b5f84013567ffffffffffffffff8111156113ab576113aa610e05565b5b6113b786828701611320565b93505060206113c886828701610e28565b92505060406113d986828701611363565b9150509250925092565b7f4e487b71000000000000000000000000000000000000000000000000000000005f52603260045260245ffd5b7f4e487b71000000000000000000000000000000000000000000000000000000005f52601260045260245ffd5b7f4e487b71000000000000000000000000000000000000000000000000000000005f52601160045260245ffd5b5f61147482610e09565b915061147f83610e09565b92508261148f5761148e611410565b5b828204905092915050565b7f4e487b71000000000000000000000000000000000000000000000000000000005f52602260045260245ffd5b5f60028204905060018216806114de57607f821691505b6020821081036114f1576114f061149a565b5b50919050565b5f819050815f5260205f209050919050565b5f6020601f8301049050919050565b5f82821b905092915050565b5f600883026115537fffffffffffffffffffffffffffffffffffffffffffffffffffffffffffffffff82611518565b61155d8683611518565b95508019841693508086168417925050509392505050565b5f819050919050565b5f61159861159361158e84610e09565b611575565b610e09565b9050919050565b5f819050919050565b6115b18361157e565b6115c56115bd8261159f565b848454611524565b825550505050565b5f90565b6115d96115cd565b6115e48184846115a8565b505050565b5b81811015611607576115fc5f826115d1565b6001810190506115ea565b5050565b601f82111561164c5761161d816114f7565b61162684611509565b81016020851015611635578190505b61164961164185611509565b8301826115e9565b50505b505050565b5f82821c905092915050565b5f61166c5f1984600802611651565b1980831691505092915050565b5f611684838361165d565b9150826002028217905092915050565b61169d82610eb5565b67ffffffffffffffff8111156116b6576116b5611229565b5b6116c082546114c7565b6116cb82828561160b565b5f60209050601f8311600181146116fc575f84156116ea578287015190505b6116f48582611679565b86555061175b565b601f19841661170a866114f7565b5f5b828110156117315784890151825560018201915060208501945060208101905061170c565b8683101561174e578489015161174a601f89168261165d565b8355505b6001600288020188555050505b505050505050565b5f61176d82610e09565b91507fffffffffffffffffffffffffffffffffffffffffffffffffffffffffffffffff820361179f5761179e61143d565b5b60018201905091905056fea26469706673582212202f0a195d7c4a83ff25b46df3d04aa2f8bd2041a3485a950bdc64c58a22c33c1d64736f6c63430008190033","opcodes":"PUSH1 0x80 PUSH1 0x40 MSTORE CALLVALUE DUP1 ISZERO PUSH2 0xF JUMPI PUSH0 DUP1 REVERT JUMPDEST POP PUSH1 0x40 MLOAD PUSH2 0x193B CODESIZE SUB DUP1 PUSH2 0x193B DUP4 CODECOPY DUP2 DUP2 ADD PUSH1 0x40 MSTORE DUP2 ADD SWAP1 PUSH2 0x31 SWAP2 SWAP1 PUSH2 0x110 JUMP JUMPDEST DUP1 PUSH1 0x11 PUSH0 PUSH2 0x100 EXP DUP2 SLOAD DUP2 PUSH20 0xFFFFFFFFFFFFFFFFFFFFFFFFFFFFFFFFFFFFFFFF MUL NOT AND SWAP1 DUP4 PUSH20 0xFFFFFFFFFFFFFFFFFFFFFFFFFFFFFFFFFFFFFFFF AND MUL OR SWAP1 SSTORE POP DUP2 PUSH1 0x12 DUP2 SWAP1 SSTORE POP POP POP PUSH2 0x14E JUMP JUMPDEST PUSH0 DUP1 REVERT JUMPDEST PUSH0 DUP2 SWAP1 POP SWAP2 SWAP1 POP JUMP JUMPDEST PUSH2 0x95 DUP2 PUSH2 0x83 JUMP JUMPDEST DUP2 EQ PUSH2 0x9F JUMPI PUSH0 DUP1 REVERT JUMPDEST POP JUMP JUMPDEST PUSH0 DUP2 MLOAD SWAP1 POP PUSH2 0xB0 DUP2 PUSH2 0x8C JUMP JUMPDEST SWAP3 SWAP2 POP POP JUMP JUMPDEST PUSH0 PUSH20 0xFFFFFFFFFFFFFFFFFFFFFFFFFFFFFFFFFFFFFFFF DUP3 AND SWAP1 POP SWAP2 SWAP1 POP JUMP JUMPDEST PUSH0 PUSH2 0xDF DUP3 PUSH2 0xB6 JUMP JUMPDEST SWAP1 POP SWAP2 SWAP1 POP JUMP JUMPDEST PUSH2 0xEF DUP2 PUSH2 0xD5 JUMP JUMPDEST DUP2 EQ PUSH2 0xF9 JUMPI PUSH0 DUP1 REVERT JUMPDEST POP JUMP JUMPDEST PUSH0 DUP2 MLOAD SWAP1 POP PUSH2 0x10A DUP2 PUSH2 0xE6 JUMP JUMPDEST SWAP3 SWAP2 POP POP JUMP JUMPDEST PUSH0 DUP1 PUSH1 0x40 DUP4 DUP6 SUB SLT ISZERO PUSH2 0x126 JUMPI PUSH2 0x125 PUSH2 0x7F JUMP JUMPDEST JUMPDEST PUSH0 PUSH2 0x133 DUP6 DUP3 DUP7 ADD PUSH2 0xA2 JUMP JUMPDEST SWAP3 POP POP PUSH1 0x20 PUSH2 0x144 DUP6 DUP3 DUP7 ADD PUSH2 0xFC JUMP JUMPDEST SWAP2 POP POP SWAP3 POP SWAP3 SWAP1 POP JUMP JUMPDEST PUSH2 0x17E0 DUP1 PUSH2 0x15B PUSH0 CODECOPY PUSH0 RETURN INVALID PUSH1 0x80 PUSH1 0x40 MSTORE PUSH1 0x4 CALLDATASIZE LT PUSH2 0x54 JUMPI PUSH0 CALLDATALOAD PUSH1 0xE0 SHR DUP1 PUSH4 0x3441006 EQ PUSH2 0x58 JUMPI DUP1 PUSH4 0x4051DDAC EQ PUSH2 0x80 JUMPI DUP1 PUSH4 0x81D12C58 EQ PUSH2 0xB2 JUMPI DUP1 PUSH4 0x8A9CFD55 EQ PUSH2 0xF2 JUMPI DUP1 PUSH4 0xD7BB99BA EQ PUSH2 0x11A JUMPI DUP1 PUSH4 0xD7D1BBDB EQ PUSH2 0x124 JUMPI JUMPDEST PUSH0 DUP1 REVERT JUMPDEST CALLVALUE DUP1 ISZERO PUSH2 0x63 JUMPI PUSH0 DUP1 REVERT JUMPDEST POP PUSH2 0x7E PUSH1 0x4 DUP1 CALLDATASIZE SUB DUP2 ADD SWAP1 PUSH2 0x79 SWAP2 SWAP1 PUSH2 0xE3C JUMP JUMPDEST PUSH2 0x14C JUMP JUMPDEST STOP JUMPDEST CALLVALUE DUP1 ISZERO PUSH2 0x8B JUMPI PUSH0 DUP1 REVERT JUMPDEST POP PUSH2 0x94 PUSH2 0x28A JUMP JUMPDEST PUSH1 0x40 MLOAD PUSH2 0xA9 SWAP10 SWAP9 SWAP8 SWAP7 SWAP6 SWAP5 SWAP4 SWAP3 SWAP2 SWAP1 PUSH2 0x10CE JUMP JUMPDEST PUSH1 0x40 MLOAD DUP1 SWAP2 SUB SWAP1 RETURN JUMPDEST CALLVALUE DUP1 ISZERO PUSH2 0xBD JUMPI PUSH0 DUP1 REVERT JUMPDEST POP PUSH2 0xD8 PUSH1 0x4 DUP1 CALLDATASIZE SUB DUP2 ADD SWAP1 PUSH2 0xD3 SWAP2 SWAP1 PUSH2 0xE3C JUMP JUMPDEST PUSH2 0x973 JUMP JUMPDEST PUSH1 0x40 MLOAD PUSH2 0xE9 SWAP6 SWAP5 SWAP4 SWAP3 SWAP2 SWAP1 PUSH2 0x11C9 JUMP JUMPDEST PUSH1 0x40 MLOAD DUP1 SWAP2 SUB SWAP1 RETURN JUMPDEST CALLVALUE DUP1 ISZERO PUSH2 0xFD JUMPI PUSH0 DUP1 REVERT JUMPDEST POP PUSH2 0x118 PUSH1 0x4 DUP1 CALLDATASIZE SUB DUP2 ADD SWAP1 PUSH2 0x113 SWAP2 SWAP1 PUSH2 0x1377 JUMP JUMPDEST PUSH2 0xA65 JUMP JUMPDEST STOP JUMPDEST PUSH2 0x122 PUSH2 0xB64 JUMP JUMPDEST STOP JUMPDEST CALLVALUE DUP1 ISZERO PUSH2 0x12F JUMPI PUSH0 DUP1 REVERT JUMPDEST POP PUSH2 0x14A PUSH1 0x4 DUP1 CALLDATASIZE SUB DUP2 ADD SWAP1 PUSH2 0x145 SWAP2 SWAP1 PUSH2 0xE3C JUMP JUMPDEST PUSH2 0xBDF JUMP JUMPDEST STOP JUMPDEST PUSH1 0x11 PUSH0 SWAP1 SLOAD SWAP1 PUSH2 0x100 EXP SWAP1 DIV PUSH20 0xFFFFFFFFFFFFFFFFFFFFFFFFFFFFFFFFFFFFFFFF AND PUSH20 0xFFFFFFFFFFFFFFFFFFFFFFFFFFFFFFFFFFFFFFFF AND CALLER PUSH20 0xFFFFFFFFFFFFFFFFFFFFFFFFFFFFFFFFFFFFFFFF AND EQ PUSH2 0x1A4 JUMPI PUSH0 DUP1 REVERT JUMPDEST PUSH0 DUP1 DUP3 DUP2 SLOAD DUP2 LT PUSH2 0x1B8 JUMPI PUSH2 0x1B7 PUSH2 0x13E3 JUMP JUMPDEST JUMPDEST SWAP1 PUSH0 MSTORE PUSH1 0x20 PUSH0 KECCAK256 SWAP1 PUSH1 0x5 MUL ADD SWAP1 POP PUSH1 0x2 PUSH1 0x14 SLOAD PUSH2 0x1D5 SWAP2 SWAP1 PUSH2 0x146A JUMP JUMPDEST DUP2 PUSH1 0x3 ADD SLOAD GT PUSH2 0x1E3 JUMPI PUSH0 DUP1 REVERT JUMPDEST DUP1 PUSH1 0x2 ADD PUSH1 0x14 SWAP1 SLOAD SWAP1 PUSH2 0x100 EXP SWAP1 DIV PUSH1 0xFF AND ISZERO PUSH2 0x1FE JUMPI PUSH0 DUP1 REVERT JUMPDEST DUP1 PUSH1 0x2 ADD PUSH0 SWAP1 SLOAD SWAP1 PUSH2 0x100 EXP SWAP1 DIV PUSH20 0xFFFFFFFFFFFFFFFFFFFFFFFFFFFFFFFFFFFFFFFF AND PUSH20 0xFFFFFFFFFFFFFFFFFFFFFFFFFFFFFFFFFFFFFFFF AND PUSH2 0x8FC DUP3 PUSH1 0x1 ADD SLOAD SWAP1 DUP2 ISZERO MUL SWAP1 PUSH1 0x40 MLOAD PUSH0 PUSH1 0x40 MLOAD DUP1 DUP4 SUB DUP2 DUP6 DUP9 DUP9 CALL SWAP4 POP POP POP POP ISZERO DUP1 ISZERO PUSH2 0x268 JUMPI RETURNDATASIZE PUSH0 DUP1 RETURNDATACOPY RETURNDATASIZE PUSH0 REVERT JUMPDEST POP PUSH1 0x1 DUP2 PUSH1 0x2 ADD PUSH1 0x14 PUSH2 0x100 EXP DUP2 SLOAD DUP2 PUSH1 0xFF MUL NOT AND SWAP1 DUP4 ISZERO ISZERO MUL OR SWAP1 SSTORE POP POP POP JUMP JUMPDEST PUSH0 DUP1 PUSH0 DUP1 PUSH0 PUSH2 0x297 PUSH2 0xD74 JUMP JUMPDEST PUSH2 0x29F PUSH2 0xDAE JUMP JUMPDEST PUSH0 DUP1 PUSH1 0x12 SLOAD SELFBALANCE PUSH0 DUP1 SLOAD SWAP1 POP PUSH1 0x14 SLOAD PUSH1 0x11 PUSH0 SWAP1 SLOAD SWAP1 PUSH2 0x100 EXP SWAP1 DIV PUSH20 0xFFFFFFFFFFFFFFFFFFFFFFFFFFFFFFFFFFFFFFFF AND PUSH1 0x1 PUSH1 0x8 PUSH1 0x15 SLOAD PUSH1 0x16 SLOAD DUP4 PUSH1 0x40 MLOAD DUP1 PUSH1 0xE0 ADD PUSH1 0x40 MSTORE SWAP1 DUP2 PUSH0 DUP3 ADD DUP1 SLOAD PUSH2 0x2F4 SWAP1 PUSH2 0x14C7 JUMP JUMPDEST DUP1 PUSH1 0x1F ADD PUSH1 0x20 DUP1 SWAP2 DIV MUL PUSH1 0x20 ADD PUSH1 0x40 MLOAD SWAP1 DUP2 ADD PUSH1 0x40 MSTORE DUP1 SWAP3 SWAP2 SWAP1 DUP2 DUP2 MSTORE PUSH1 0x20 ADD DUP3 DUP1 SLOAD PUSH2 0x320 SWAP1 PUSH2 0x14C7 JUMP JUMPDEST DUP1 ISZERO PUSH2 0x36B JUMPI DUP1 PUSH1 0x1F LT PUSH2 0x342 JUMPI PUSH2 0x100 DUP1 DUP4 SLOAD DIV MUL DUP4 MSTORE SWAP2 PUSH1 0x20 ADD SWAP2 PUSH2 0x36B JUMP JUMPDEST DUP3 ADD SWAP2 SWAP1 PUSH0 MSTORE PUSH1 0x20 PUSH0 KECCAK256 SWAP1 JUMPDEST DUP2 SLOAD DUP2 MSTORE SWAP1 PUSH1 0x1 ADD SWAP1 PUSH1 0x20 ADD DUP1 DUP4 GT PUSH2 0x34E JUMPI DUP3 SWAP1 SUB PUSH1 0x1F AND DUP3 ADD SWAP2 JUMPDEST POP POP POP POP POP DUP2 MSTORE PUSH1 0x20 ADD PUSH1 0x1 DUP3 ADD DUP1 SLOAD PUSH2 0x384 SWAP1 PUSH2 0x14C7 JUMP JUMPDEST DUP1 PUSH1 0x1F ADD PUSH1 0x20 DUP1 SWAP2 DIV MUL PUSH1 0x20 ADD PUSH1 0x40 MLOAD SWAP1 DUP2 ADD PUSH1 0x40 MSTORE DUP1 SWAP3 SWAP2 SWAP1 DUP2 DUP2 MSTORE PUSH1 0x20 ADD DUP3 DUP1 SLOAD PUSH2 0x3B0 SWAP1 PUSH2 0x14C7 JUMP JUMPDEST DUP1 ISZERO PUSH2 0x3FB JUMPI DUP1 PUSH1 0x1F LT PUSH2 0x3D2 JUMPI PUSH2 0x100 DUP1 DUP4 SLOAD DIV MUL DUP4 MSTORE SWAP2 PUSH1 0x20 ADD SWAP2 PUSH2 0x3FB JUMP JUMPDEST DUP3 ADD SWAP2 SWAP1 PUSH0 MSTORE PUSH1 0x20 PUSH0 KECCAK256 SWAP1 JUMPDEST DUP2 SLOAD DUP2 MSTORE SWAP1 PUSH1 0x1 ADD SWAP1 PUSH1 0x20 ADD DUP1 DUP4 GT PUSH2 0x3DE JUMPI DUP3 SWAP1 SUB PUSH1 0x1F AND DUP3 ADD SWAP2 JUMPDEST POP POP POP POP POP DUP2 MSTORE PUSH1 0x20 ADD PUSH1 0x2 DUP3 ADD SLOAD DUP2 MSTORE PUSH1 0x20 ADD PUSH1 0x3 DUP3 ADD DUP1 SLOAD PUSH2 0x41E SWAP1 PUSH2 0x14C7 JUMP JUMPDEST DUP1 PUSH1 0x1F ADD PUSH1 0x20 DUP1 SWAP2 DIV MUL PUSH1 0x20 ADD PUSH1 0x40 MLOAD SWAP1 DUP2 ADD PUSH1 0x40 MSTORE DUP1 SWAP3 SWAP2 SWAP1 DUP2 DUP2 MSTORE PUSH1 0x20 ADD DUP3 DUP1 SLOAD PUSH2 0x44A SWAP1 PUSH2 0x14C7 JUMP JUMPDEST DUP1 ISZERO PUSH2 0x495 JUMPI DUP1 PUSH1 0x1F LT PUSH2 0x46C JUMPI PUSH2 0x100 DUP1 DUP4 SLOAD DIV MUL DUP4 MSTORE SWAP2 PUSH1 0x20 ADD SWAP2 PUSH2 0x495 JUMP JUMPDEST DUP3 ADD SWAP2 SWAP1 PUSH0 MSTORE PUSH1 0x20 PUSH0 KECCAK256 SWAP1 JUMPDEST DUP2 SLOAD DUP2 MSTORE SWAP1 PUSH1 0x1 ADD SWAP1 PUSH1 0x20 ADD DUP1 DUP4 GT PUSH2 0x478 JUMPI DUP3 SWAP1 SUB PUSH1 0x1F AND DUP3 ADD SWAP2 JUMPDEST POP POP POP POP POP DUP2 MSTORE PUSH1 0x20 ADD PUSH1 0x4 DUP3 ADD DUP1 SLOAD PUSH2 0x4AE SWAP1 PUSH2 0x14C7 JUMP JUMPDEST DUP1 PUSH1 0x1F ADD PUSH1 0x20 DUP1 SWAP2 DIV MUL PUSH1 0x20 ADD PUSH1 0x40 MLOAD SWAP1 DUP2 ADD PUSH1 0x40 MSTORE DUP1 SWAP3 SWAP2 SWAP1 DUP2 DUP2 MSTORE PUSH1 0x20 ADD DUP3 DUP1 SLOAD PUSH2 0x4DA SWAP1 PUSH2 0x14C7 JUMP JUMPDEST DUP1 ISZERO PUSH2 0x525 JUMPI DUP1 PUSH1 0x1F LT PUSH2 0x4FC JUMPI PUSH2 0x100 DUP1 DUP4 SLOAD DIV MUL DUP4 MSTORE SWAP2 PUSH1 0x20 ADD SWAP2 PUSH2 0x525 JUMP JUMPDEST DUP3 ADD SWAP2 SWAP1 PUSH0 MSTORE PUSH1 0x20 PUSH0 KECCAK256 SWAP1 JUMPDEST DUP2 SLOAD DUP2 MSTORE SWAP1 PUSH1 0x1 ADD SWAP1 PUSH1 0x20 ADD DUP1 DUP4 GT PUSH2 0x508 JUMPI DUP3 SWAP1 SUB PUSH1 0x1F AND DUP3 ADD SWAP2 JUMPDEST POP POP POP POP POP DUP2 MSTORE PUSH1 0x20 ADD PUSH1 0x5 DUP3 ADD SLOAD DUP2 MSTORE PUSH1 0x20 ADD PUSH1 0x6 DUP3 ADD SLOAD DUP2 MSTORE POP POP SWAP4 POP DUP3 PUSH1 0x40 MLOAD DUP1 PUSH2 0x120 ADD PUSH1 0x40 MSTORE SWAP1 DUP2 PUSH0 DUP3 ADD DUP1 SLOAD PUSH2 0x560 SWAP1 PUSH2 0x14C7 JUMP JUMPDEST DUP1 PUSH1 0x1F ADD PUSH1 0x20 DUP1 SWAP2 DIV MUL PUSH1 0x20 ADD PUSH1 0x40 MLOAD SWAP1 DUP2 ADD PUSH1 0x40 MSTORE DUP1 SWAP3 SWAP2 SWAP1 DUP2 DUP2 MSTORE PUSH1 0x20 ADD DUP3 DUP1 SLOAD PUSH2 0x58C SWAP1 PUSH2 0x14C7 JUMP JUMPDEST DUP1 ISZERO PUSH2 0x5D7 JUMPI DUP1 PUSH1 0x1F LT PUSH2 0x5AE JUMPI PUSH2 0x100 DUP1 DUP4 SLOAD DIV MUL DUP4 MSTORE SWAP2 PUSH1 0x20 ADD SWAP2 PUSH2 0x5D7 JUMP JUMPDEST DUP3 ADD SWAP2 SWAP1 PUSH0 MSTORE PUSH1 0x20 PUSH0 KECCAK256 SWAP1 JUMPDEST DUP2 SLOAD DUP2 MSTORE SWAP1 PUSH1 0x1 ADD SWAP1 PUSH1 0x20 ADD DUP1 DUP4 GT PUSH2 0x5BA JUMPI DUP3 SWAP1 SUB PUSH1 0x1F AND DUP3 ADD SWAP2 JUMPDEST POP POP POP POP POP DUP2 MSTORE PUSH1 0x20 ADD PUSH1 0x1 DUP3 ADD DUP1 SLOAD PUSH2 0x5F0 SWAP1 PUSH2 0x14C7 JUMP JUMPDEST DUP1 PUSH1 0x1F ADD PUSH1 0x20 DUP1 SWAP2 DIV MUL PUSH1 0x20 ADD PUSH1 0x40 MLOAD SWAP1 DUP2 ADD PUSH1 0x40 MSTORE DUP1 SWAP3 SWAP2 SWAP1 DUP2 DUP2 MSTORE PUSH1 0x20 ADD DUP3 DUP1 SLOAD PUSH2 0x61C SWAP1 PUSH2 0x14C7 JUMP JUMPDEST DUP1 ISZERO PUSH2 0x667 JUMPI DUP1 PUSH1 0x1F LT PUSH2 0x63E JUMPI PUSH2 0x100 DUP1 DUP4 SLOAD DIV MUL DUP4 MSTORE SWAP2 PUSH1 0x20 ADD SWAP2 PUSH2 0x667 JUMP JUMPDEST DUP3 ADD SWAP2 SWAP1 PUSH0 MSTORE PUSH1 0x20 PUSH0 KECCAK256 SWAP1 JUMPDEST DUP2 SLOAD DUP2 MSTORE SWAP1 PUSH1 0x1 ADD SWAP1 PUSH1 0x20 ADD DUP1 DUP4 GT PUSH2 0x64A JUMPI DUP3 SWAP1 SUB PUSH1 0x1F AND DUP3 ADD SWAP2 JUMPDEST POP POP POP POP POP DUP2 MSTORE PUSH1 0x20 ADD PUSH1 0x2 DUP3 ADD DUP1 SLOAD PUSH2 0x680 SWAP1 PUSH2 0x14C7 JUMP JUMPDEST DUP1 PUSH1 0x1F ADD PUSH1 0x20 DUP1 SWAP2 DIV MUL PUSH1 0x20 ADD PUSH1 0x40 MLOAD SWAP1 DUP2 ADD PUSH1 0x40 MSTORE DUP1 SWAP3 SWAP2 SWAP1 DUP2 DUP2 MSTORE PUSH1 0x20 ADD DUP3 DUP1 SLOAD PUSH2 0x6AC SWAP1 PUSH2 0x14C7 JUMP JUMPDEST DUP1 ISZERO PUSH2 0x6F7 JUMPI DUP1 PUSH1 0x1F LT PUSH2 0x6CE JUMPI PUSH2 0x100 DUP1 DUP4 SLOAD DIV MUL DUP4 MSTORE SWAP2 PUSH1 0x20 ADD SWAP2 PUSH2 0x6F7 JUMP JUMPDEST DUP3 ADD SWAP2 SWAP1 PUSH0 MSTORE PUSH1 0x20 PUSH0 KECCAK256 SWAP1 JUMPDEST DUP2 SLOAD DUP2 MSTORE SWAP1 PUSH1 0x1 ADD SWAP1 PUSH1 0x20 ADD DUP1 DUP4 GT PUSH2 0x6DA JUMPI DUP3 SWAP1 SUB PUSH1 0x1F AND DUP3 ADD SWAP2 JUMPDEST POP POP POP POP POP DUP2 MSTORE PUSH1 0x20 ADD PUSH1 0x3 DUP3 ADD DUP1 SLOAD PUSH2 0x710 SWAP1 PUSH2 0x14C7 JUMP JUMPDEST DUP1 PUSH1 0x1F ADD PUSH1 0x20 DUP1 SWAP2 DIV MUL PUSH1 0x20 ADD PUSH1 0x40 MLOAD SWAP1 DUP2 ADD PUSH1 0x40 MSTORE DUP1 SWAP3 SWAP2 SWAP1 DUP2 DUP2 MSTORE PUSH1 0x20 ADD DUP3 DUP1 SLOAD PUSH2 0x73C SWAP1 PUSH2 0x14C7 JUMP JUMPDEST DUP1 ISZERO PUSH2 0x787 JUMPI DUP1 PUSH1 0x1F LT PUSH2 0x75E JUMPI PUSH2 0x100 DUP1 DUP4 SLOAD DIV MUL DUP4 MSTORE SWAP2 PUSH1 0x20 ADD SWAP2 PUSH2 0x787 JUMP JUMPDEST DUP3 ADD SWAP2 SWAP1 PUSH0 MSTORE PUSH1 0x20 PUSH0 KECCAK256 SWAP1 JUMPDEST DUP2 SLOAD DUP2 MSTORE SWAP1 PUSH1 0x1 ADD SWAP1 PUSH1 0x20 ADD DUP1 DUP4 GT PUSH2 0x76A JUMPI DUP3 SWAP1 SUB PUSH1 0x1F AND DUP3 ADD SWAP2 JUMPDEST POP POP POP POP POP DUP2 MSTORE PUSH1 0x20 ADD PUSH1 0x4 DUP3 ADD DUP1 SLOAD PUSH2 0x7A0 SWAP1 PUSH2 0x14C7 JUMP JUMPDEST DUP1 PUSH1 0x1F ADD PUSH1 0x20 DUP1 SWAP2 DIV MUL PUSH1 0x20 ADD PUSH1 0x40 MLOAD SWAP1 DUP2 ADD PUSH1 0x40 MSTORE DUP1 SWAP3 SWAP2 SWAP1 DUP2 DUP2 MSTORE PUSH1 0x20 ADD DUP3 DUP1 SLOAD PUSH2 0x7CC SWAP1 PUSH2 0x14C7 JUMP JUMPDEST DUP1 ISZERO PUSH2 0x817 JUMPI DUP1 PUSH1 0x1F LT PUSH2 0x7EE JUMPI PUSH2 0x100 DUP1 DUP4 SLOAD DIV MUL DUP4 MSTORE SWAP2 PUSH1 0x20 ADD SWAP2 PUSH2 0x817 JUMP JUMPDEST DUP3 ADD SWAP2 SWAP1 PUSH0 MSTORE PUSH1 0x20 PUSH0 KECCAK256 SWAP1 JUMPDEST DUP2 SLOAD DUP2 MSTORE SWAP1 PUSH1 0x1 ADD SWAP1 PUSH1 0x20 ADD DUP1 DUP4 GT PUSH2 0x7FA JUMPI DUP3 SWAP1 SUB PUSH1 0x1F AND DUP3 ADD SWAP2 JUMPDEST POP POP POP POP POP DUP2 MSTORE PUSH1 0x20 ADD PUSH1 0x5 DUP3 ADD DUP1 SLOAD PUSH2 0x830 SWAP1 PUSH2 0x14C7 JUMP JUMPDEST DUP1 PUSH1 0x1F ADD PUSH1 0x20 DUP1 SWAP2 DIV MUL PUSH1 0x20 ADD PUSH1 0x40 MLOAD SWAP1 DUP2 ADD PUSH1 0x40 MSTORE DUP1 SWAP3 SWAP2 SWAP1 DUP2 DUP2 MSTORE PUSH1 0x20 ADD DUP3 DUP1 SLOAD PUSH2 0x85C SWAP1 PUSH2 0x14C7 JUMP JUMPDEST DUP1 ISZERO PUSH2 0x8A7 JUMPI DUP1 PUSH1 0x1F LT PUSH2 0x87E JUMPI PUSH2 0x100 DUP1 DUP4 SLOAD DIV MUL DUP4 MSTORE SWAP2 PUSH1 0x20 ADD SWAP2 PUSH2 0x8A7 JUMP JUMPDEST DUP3 ADD SWAP2 SWAP1 PUSH0 MSTORE PUSH1 0x20 PUSH0 KECCAK256 SWAP1 JUMPDEST DUP2 SLOAD DUP2 MSTORE SWAP1 PUSH1 0x1 ADD SWAP1 PUSH1 0x20 ADD DUP1 DUP4 GT PUSH2 0x88A JUMPI DUP3 SWAP1 SUB PUSH1 0x1F AND DUP3 ADD SWAP2 JUMPDEST POP POP POP POP POP DUP2 MSTORE PUSH1 0x20 ADD PUSH1 0x6 DUP3 ADD DUP1 SLOAD PUSH2 0x8C0 SWAP1 PUSH2 0x14C7 JUMP JUMPDEST DUP1 PUSH1 0x1F ADD PUSH1 0x20 DUP1 SWAP2 DIV MUL PUSH1 0x20 ADD PUSH1 0x40 MLOAD SWAP1 DUP2 ADD PUSH1 0x40 MSTORE DUP1 SWAP3 SWAP2 SWAP1 DUP2 DUP2 MSTORE PUSH1 0x20 ADD DUP3 DUP1 SLOAD PUSH2 0x8EC SWAP1 PUSH2 0x14C7 JUMP JUMPDEST DUP1 ISZERO PUSH2 0x937 JUMPI DUP1 PUSH1 0x1F LT PUSH2 0x90E JUMPI PUSH2 0x100 DUP1 DUP4 SLOAD DIV MUL DUP4 MSTORE SWAP2 PUSH1 0x20 ADD SWAP2 PUSH2 0x937 JUMP JUMPDEST DUP3 ADD SWAP2 SWAP1 PUSH0 MSTORE PUSH1 0x20 PUSH0 KECCAK256 SWAP1 JUMPDEST DUP2 SLOAD DUP2 MSTORE SWAP1 PUSH1 0x1 ADD SWAP1 PUSH1 0x20 ADD DUP1 DUP4 GT PUSH2 0x91A JUMPI DUP3 SWAP1 SUB PUSH1 0x1F AND DUP3 ADD SWAP2 JUMPDEST POP POP POP POP POP DUP2 MSTORE PUSH1 0x20 ADD PUSH1 0x7 DUP3 ADD SLOAD DUP2 MSTORE PUSH1 0x20 ADD PUSH1 0x8 DUP3 ADD SLOAD DUP2 MSTORE POP POP SWAP3 POP SWAP9 POP SWAP9 POP SWAP9 POP SWAP9 POP SWAP9 POP SWAP9 POP SWAP9 POP SWAP9 POP SWAP9 POP SWAP1 SWAP2 SWAP3 SWAP4 SWAP5 SWAP6 SWAP7 SWAP8 SWAP9 JUMP JUMPDEST PUSH0 DUP2 DUP2 SLOAD DUP2 LT PUSH2 0x981 JUMPI PUSH0 DUP1 REVERT JUMPDEST SWAP1 PUSH0 MSTORE PUSH1 0x20 PUSH0 KECCAK256 SWAP1 PUSH1 0x5 MUL ADD PUSH0 SWAP2 POP SWAP1 POP DUP1 PUSH0 ADD DUP1 SLOAD PUSH2 0x9A0 SWAP1 PUSH2 0x14C7 JUMP JUMPDEST DUP1 PUSH1 0x1F ADD PUSH1 0x20 DUP1 SWAP2 DIV MUL PUSH1 0x20 ADD PUSH1 0x40 MLOAD SWAP1 DUP2 ADD PUSH1 0x40 MSTORE DUP1 SWAP3 SWAP2 SWAP1 DUP2 DUP2 MSTORE PUSH1 0x20 ADD DUP3 DUP1 SLOAD PUSH2 0x9CC SWAP1 PUSH2 0x14C7 JUMP JUMPDEST DUP1 ISZERO PUSH2 0xA17 JUMPI DUP1 PUSH1 0x1F LT PUSH2 0x9EE JUMPI PUSH2 0x100 DUP1 DUP4 SLOAD DIV MUL DUP4 MSTORE SWAP2 PUSH1 0x20 ADD SWAP2 PUSH2 0xA17 JUMP JUMPDEST DUP3 ADD SWAP2 SWAP1 PUSH0 MSTORE PUSH1 0x20 PUSH0 KECCAK256 SWAP1 JUMPDEST DUP2 SLOAD DUP2 MSTORE SWAP1 PUSH1 0x1 ADD SWAP1 PUSH1 0x20 ADD DUP1 DUP4 GT PUSH2 0x9FA JUMPI DUP3 SWAP1 SUB PUSH1 0x1F AND DUP3 ADD SWAP2 JUMPDEST POP POP POP POP POP SWAP1 DUP1 PUSH1 0x1 ADD SLOAD SWAP1 DUP1 PUSH1 0x2 ADD PUSH0 SWAP1 SLOAD SWAP1 PUSH2 0x100 EXP SWAP1 DIV PUSH20 0xFFFFFFFFFFFFFFFFFFFFFFFFFFFFFFFFFFFFFFFF AND SWAP1 DUP1 PUSH1 0x2 ADD PUSH1 0x14 SWAP1 SLOAD SWAP1 PUSH2 0x100 EXP SWAP1 DIV PUSH1 0xFF AND SWAP1 DUP1 PUSH1 0x3 ADD SLOAD SWAP1 POP DUP6 JUMP JUMPDEST PUSH1 0x11 PUSH0 SWAP1 SLOAD SWAP1 PUSH2 0x100 EXP SWAP1 DIV PUSH20 0xFFFFFFFFFFFFFFFFFFFFFFFFFFFFFFFFFFFFFFFF AND PUSH20 0xFFFFFFFFFFFFFFFFFFFFFFFFFFFFFFFFFFFFFFFF AND CALLER PUSH20 0xFFFFFFFFFFFFFFFFFFFFFFFFFFFFFFFFFFFFFFFF AND EQ PUSH2 0xABD JUMPI PUSH0 DUP1 REVERT JUMPDEST PUSH0 DUP1 PUSH1 0x1 DUP2 PUSH1 0x1 DUP2 SLOAD ADD DUP1 DUP3 SSTORE DUP1 SWAP2 POP POP SUB SWAP1 PUSH0 MSTORE PUSH1 0x20 PUSH0 KECCAK256 SWAP1 PUSH1 0x5 MUL ADD SWAP1 POP DUP4 DUP2 PUSH0 ADD SWAP1 DUP2 PUSH2 0xAED SWAP2 SWAP1 PUSH2 0x1694 JUMP JUMPDEST POP DUP3 DUP2 PUSH1 0x1 ADD DUP2 SWAP1 SSTORE POP DUP2 DUP2 PUSH1 0x2 ADD PUSH0 PUSH2 0x100 EXP DUP2 SLOAD DUP2 PUSH20 0xFFFFFFFFFFFFFFFFFFFFFFFFFFFFFFFFFFFFFFFF MUL NOT AND SWAP1 DUP4 PUSH20 0xFFFFFFFFFFFFFFFFFFFFFFFFFFFFFFFFFFFFFFFF AND MUL OR SWAP1 SSTORE POP PUSH0 DUP2 PUSH1 0x2 ADD PUSH1 0x14 PUSH2 0x100 EXP DUP2 SLOAD DUP2 PUSH1 0xFF MUL NOT AND SWAP1 DUP4 ISZERO ISZERO MUL OR SWAP1 SSTORE POP PUSH0 DUP2 PUSH1 0x3 ADD DUP2 SWAP1 SSTORE POP POP POP POP POP JUMP JUMPDEST PUSH1 0x12 SLOAD CALLVALUE GT PUSH2 0xB71 JUMPI PUSH0 DUP1 REVERT JUMPDEST PUSH1 0x1 PUSH1 0x13 PUSH0 CALLER PUSH20 0xFFFFFFFFFFFFFFFFFFFFFFFFFFFFFFFFFFFFFFFF AND PUSH20 0xFFFFFFFFFFFFFFFFFFFFFFFFFFFFFFFFFFFFFFFF AND DUP2 MSTORE PUSH1 0x20 ADD SWAP1 DUP2 MSTORE PUSH1 0x20 ADD PUSH0 KECCAK256 PUSH0 PUSH2 0x100 EXP DUP2 SLOAD DUP2 PUSH1 0xFF MUL NOT AND SWAP1 DUP4 ISZERO ISZERO MUL OR SWAP1 SSTORE POP PUSH1 0x14 PUSH0 DUP2 SLOAD DUP1 SWAP3 SWAP2 SWAP1 PUSH2 0xBD8 SWAP1 PUSH2 0x1763 JUMP JUMPDEST SWAP2 SWAP1 POP SSTORE POP JUMP JUMPDEST PUSH1 0x11 PUSH0 SWAP1 SLOAD SWAP1 PUSH2 0x100 EXP SWAP1 DIV PUSH20 0xFFFFFFFFFFFFFFFFFFFFFFFFFFFFFFFFFFFFFFFF AND PUSH20 0xFFFFFFFFFFFFFFFFFFFFFFFFFFFFFFFFFFFFFFFF AND CALLER PUSH20 0xFFFFFFFFFFFFFFFFFFFFFFFFFFFFFFFFFFFFFFFF AND SUB PUSH2 0xC37 JUMPI PUSH0 DUP1 REVERT JUMPDEST PUSH0 DUP1 DUP3 DUP2 SLOAD DUP2 LT PUSH2 0xC4B JUMPI PUSH2 0xC4A PUSH2 0x13E3 JUMP JUMPDEST JUMPDEST SWAP1 PUSH0 MSTORE PUSH1 0x20 PUSH0 KECCAK256 SWAP1 PUSH1 0x5 MUL ADD SWAP1 POP PUSH1 0x13 PUSH0 CALLER PUSH20 0xFFFFFFFFFFFFFFFFFFFFFFFFFFFFFFFFFFFFFFFF AND PUSH20 0xFFFFFFFFFFFFFFFFFFFFFFFFFFFFFFFFFFFFFFFF AND DUP2 MSTORE PUSH1 0x20 ADD SWAP1 DUP2 MSTORE PUSH1 0x20 ADD PUSH0 KECCAK256 PUSH0 SWAP1 SLOAD SWAP1 PUSH2 0x100 EXP SWAP1 DIV PUSH1 0xFF AND PUSH2 0xCAB JUMPI PUSH0 DUP1 REVERT JUMPDEST DUP1 PUSH1 0x4 ADD PUSH0 CALLER PUSH20 0xFFFFFFFFFFFFFFFFFFFFFFFFFFFFFFFFFFFFFFFF AND PUSH20 0xFFFFFFFFFFFFFFFFFFFFFFFFFFFFFFFFFFFFFFFF AND DUP2 MSTORE PUSH1 0x20 ADD SWAP1 DUP2 MSTORE PUSH1 0x20 ADD PUSH0 KECCAK256 PUSH0 SWAP1 SLOAD SWAP1 PUSH2 0x100 EXP SWAP1 DIV PUSH1 0xFF AND ISZERO PUSH2 0xD00 JUMPI PUSH0 DUP1 REVERT JUMPDEST PUSH1 0x1 DUP2 PUSH1 0x4 ADD PUSH0 CALLER PUSH20 0xFFFFFFFFFFFFFFFFFFFFFFFFFFFFFFFFFFFFFFFF AND PUSH20 0xFFFFFFFFFFFFFFFFFFFFFFFFFFFFFFFFFFFFFFFF AND DUP2 MSTORE PUSH1 0x20 ADD SWAP1 DUP2 MSTORE PUSH1 0x20 ADD PUSH0 KECCAK256 PUSH0 PUSH2 0x100 EXP DUP2 SLOAD DUP2 PUSH1 0xFF MUL NOT AND SWAP1 DUP4 ISZERO ISZERO MUL OR SWAP1 SSTORE POP DUP1 PUSH1 0x3 ADD PUSH0 DUP2 SLOAD DUP1 SWAP3 SWAP2 SWAP1 PUSH2 0xD6B SWAP1 PUSH2 0x1763 JUMP JUMPDEST SWAP2 SWAP1 POP SSTORE POP POP POP JUMP JUMPDEST PUSH1 0x40 MLOAD DUP1 PUSH1 0xE0 ADD PUSH1 0x40 MSTORE DUP1 PUSH1 0x60 DUP2 MSTORE PUSH1 0x20 ADD PUSH1 0x60 DUP2 MSTORE PUSH1 0x20 ADD PUSH0 DUP2 MSTORE PUSH1 0x20 ADD PUSH1 0x60 DUP2 MSTORE PUSH1 0x20 ADD PUSH1 0x60 DUP2 MSTORE PUSH1 0x20 ADD PUSH0 DUP2 MSTORE PUSH1 0x20 ADD PUSH0 DUP2 MSTORE POP SWAP1 JUMP JUMPDEST PUSH1 0x40 MLOAD DUP1 PUSH2 0x120 ADD PUSH1 0x40 MSTORE DUP1 PUSH1 0x60 DUP2 MSTORE PUSH1 0x20 ADD PUSH1 0x60 DUP2 MSTORE PUSH1 0x20 ADD PUSH1 0x60 DUP2 MSTORE PUSH1 0x20 ADD PUSH1 0x60 DUP2 MSTORE PUSH1 0x20 ADD PUSH1 0x60 DUP2 MSTORE PUSH1 0x20 ADD PUSH1 0x60 DUP2 MSTORE PUSH1 0x20 ADD PUSH1 0x60 DUP2 MSTORE PUSH1 0x20 ADD PUSH0 DUP2 MSTORE PUSH1 0x20 ADD PUSH0 DUP2 MSTORE POP SWAP1 JUMP JUMPDEST PUSH0 PUSH1 0x40 MLOAD SWAP1 POP SWAP1 JUMP JUMPDEST PUSH0 DUP1 REVERT JUMPDEST PUSH0 DUP1 REVERT JUMPDEST PUSH0 DUP2 SWAP1 POP SWAP2 SWAP1 POP JUMP JUMPDEST PUSH2 0xE1B DUP2 PUSH2 0xE09 JUMP JUMPDEST DUP2 EQ PUSH2 0xE25 JUMPI PUSH0 DUP1 REVERT JUMPDEST POP JUMP JUMPDEST PUSH0 DUP2 CALLDATALOAD SWAP1 POP PUSH2 0xE36 DUP2 PUSH2 0xE12 JUMP JUMPDEST SWAP3 SWAP2 POP POP JUMP JUMPDEST PUSH0 PUSH1 0x20 DUP3 DUP5 SUB SLT ISZERO PUSH2 0xE51 JUMPI PUSH2 0xE50 PUSH2 0xE01 JUMP JUMPDEST JUMPDEST PUSH0 PUSH2 0xE5E DUP5 DUP3 DUP6 ADD PUSH2 0xE28 JUMP JUMPDEST SWAP2 POP POP SWAP3 SWAP2 POP POP JUMP JUMPDEST PUSH2 0xE70 DUP2 PUSH2 0xE09 JUMP JUMPDEST DUP3 MSTORE POP POP JUMP JUMPDEST PUSH0 PUSH20 0xFFFFFFFFFFFFFFFFFFFFFFFFFFFFFFFFFFFFFFFF DUP3 AND SWAP1 POP SWAP2 SWAP1 POP JUMP JUMPDEST PUSH0 PUSH2 0xE9F DUP3 PUSH2 0xE76 JUMP JUMPDEST SWAP1 POP SWAP2 SWAP1 POP JUMP JUMPDEST PUSH2 0xEAF DUP2 PUSH2 0xE95 JUMP JUMPDEST DUP3 MSTORE POP POP JUMP JUMPDEST PUSH0 DUP2 MLOAD SWAP1 POP SWAP2 SWAP1 POP JUMP JUMPDEST PUSH0 DUP3 DUP3 MSTORE PUSH1 0x20 DUP3 ADD SWAP1 POP SWAP3 SWAP2 POP POP JUMP JUMPDEST DUP3 DUP2 DUP4 MCOPY PUSH0 DUP4 DUP4 ADD MSTORE POP POP POP JUMP JUMPDEST PUSH0 PUSH1 0x1F NOT PUSH1 0x1F DUP4 ADD AND SWAP1 POP SWAP2 SWAP1 POP JUMP JUMPDEST PUSH0 PUSH2 0xEF7 DUP3 PUSH2 0xEB5 JUMP JUMPDEST PUSH2 0xF01 DUP2 DUP6 PUSH2 0xEBF JUMP JUMPDEST SWAP4 POP PUSH2 0xF11 DUP2 DUP6 PUSH1 0x20 DUP7 ADD PUSH2 0xECF JUMP JUMPDEST PUSH2 0xF1A DUP2 PUSH2 0xEDD JUMP JUMPDEST DUP5 ADD SWAP2 POP POP SWAP3 SWAP2 POP POP JUMP JUMPDEST PUSH2 0xF2E DUP2 PUSH2 0xE09 JUMP JUMPDEST DUP3 MSTORE POP POP JUMP JUMPDEST PUSH0 PUSH1 0xE0 DUP4 ADD PUSH0 DUP4 ADD MLOAD DUP5 DUP3 SUB PUSH0 DUP7 ADD MSTORE PUSH2 0xF4E DUP3 DUP3 PUSH2 0xEED JUMP JUMPDEST SWAP2 POP POP PUSH1 0x20 DUP4 ADD MLOAD DUP5 DUP3 SUB PUSH1 0x20 DUP7 ADD MSTORE PUSH2 0xF68 DUP3 DUP3 PUSH2 0xEED JUMP JUMPDEST SWAP2 POP POP PUSH1 0x40 DUP4 ADD MLOAD PUSH2 0xF7D PUSH1 0x40 DUP7 ADD DUP3 PUSH2 0xF25 JUMP JUMPDEST POP PUSH1 0x60 DUP4 ADD MLOAD DUP5 DUP3 SUB PUSH1 0x60 DUP7 ADD MSTORE PUSH2 0xF95 DUP3 DUP3 PUSH2 0xEED JUMP JUMPDEST SWAP2 POP POP PUSH1 0x80 DUP4 ADD MLOAD DUP5 DUP3 SUB PUSH1 0x80 DUP7 ADD MSTORE PUSH2 0xFAF DUP3 DUP3 PUSH2 0xEED JUMP JUMPDEST SWAP2 POP POP PUSH1 0xA0 DUP4 ADD MLOAD PUSH2 0xFC4 PUSH1 0xA0 DUP7 ADD DUP3 PUSH2 0xF25 JUMP JUMPDEST POP PUSH1 0xC0 DUP4 ADD MLOAD PUSH2 0xFD7 PUSH1 0xC0 DUP7 ADD DUP3 PUSH2 0xF25 JUMP JUMPDEST POP DUP1 SWAP2 POP POP SWAP3 SWAP2 POP POP JUMP JUMPDEST PUSH0 PUSH2 0x120 DUP4 ADD PUSH0 DUP4 ADD MLOAD DUP5 DUP3 SUB PUSH0 DUP7 ADD MSTORE PUSH2 0xFFD DUP3 DUP3 PUSH2 0xEED JUMP JUMPDEST SWAP2 POP POP PUSH1 0x20 DUP4 ADD MLOAD DUP5 DUP3 SUB PUSH1 0x20 DUP7 ADD MSTORE PUSH2 0x1017 DUP3 DUP3 PUSH2 0xEED JUMP JUMPDEST SWAP2 POP POP PUSH1 0x40 DUP4 ADD MLOAD DUP5 DUP3 SUB PUSH1 0x40 DUP7 ADD MSTORE PUSH2 0x1031 DUP3 DUP3 PUSH2 0xEED JUMP JUMPDEST SWAP2 POP POP PUSH1 0x60 DUP4 ADD MLOAD DUP5 DUP3 SUB PUSH1 0x60 DUP7 ADD MSTORE PUSH2 0x104B DUP3 DUP3 PUSH2 0xEED JUMP JUMPDEST SWAP2 POP POP PUSH1 0x80 DUP4 ADD MLOAD DUP5 DUP3 SUB PUSH1 0x80 DUP7 ADD MSTORE PUSH2 0x1065 DUP3 DUP3 PUSH2 0xEED JUMP JUMPDEST SWAP2 POP POP PUSH1 0xA0 DUP4 ADD MLOAD DUP5 DUP3 SUB PUSH1 0xA0 DUP7 ADD MSTORE PUSH2 0x107F DUP3 DUP3 PUSH2 0xEED JUMP JUMPDEST SWAP2 POP POP PUSH1 0xC0 DUP4 ADD MLOAD DUP5 DUP3 SUB PUSH1 0xC0 DUP7 ADD MSTORE PUSH2 0x1099 DUP3 DUP3 PUSH2 0xEED JUMP JUMPDEST SWAP2 POP POP PUSH1 0xE0 DUP4 ADD MLOAD PUSH2 0x10AE PUSH1 0xE0 DUP7 ADD DUP3 PUSH2 0xF25 JUMP JUMPDEST POP PUSH2 0x100 DUP4 ADD MLOAD PUSH2 0x10C3 PUSH2 0x100 DUP7 ADD DUP3 PUSH2 0xF25 JUMP JUMPDEST POP DUP1 SWAP2 POP POP SWAP3 SWAP2 POP POP JUMP JUMPDEST PUSH0 PUSH2 0x120 DUP3 ADD SWAP1 POP PUSH2 0x10E2 PUSH0 DUP4 ADD DUP13 PUSH2 0xE67 JUMP JUMPDEST PUSH2 0x10EF PUSH1 0x20 DUP4 ADD DUP12 PUSH2 0xE67 JUMP JUMPDEST PUSH2 0x10FC PUSH1 0x40 DUP4 ADD DUP11 PUSH2 0xE67 JUMP JUMPDEST PUSH2 0x1109 PUSH1 0x60 DUP4 ADD DUP10 PUSH2 0xE67 JUMP JUMPDEST PUSH2 0x1116 PUSH1 0x80 DUP4 ADD DUP9 PUSH2 0xEA6 JUMP JUMPDEST DUP2 DUP2 SUB PUSH1 0xA0 DUP4 ADD MSTORE PUSH2 0x1128 DUP2 DUP8 PUSH2 0xF34 JUMP JUMPDEST SWAP1 POP DUP2 DUP2 SUB PUSH1 0xC0 DUP4 ADD MSTORE PUSH2 0x113C DUP2 DUP7 PUSH2 0xFE2 JUMP JUMPDEST SWAP1 POP PUSH2 0x114B PUSH1 0xE0 DUP4 ADD DUP6 PUSH2 0xE67 JUMP JUMPDEST PUSH2 0x1159 PUSH2 0x100 DUP4 ADD DUP5 PUSH2 0xE67 JUMP JUMPDEST SWAP11 SWAP10 POP POP POP POP POP POP POP POP POP POP JUMP JUMPDEST PUSH0 DUP3 DUP3 MSTORE PUSH1 0x20 DUP3 ADD SWAP1 POP SWAP3 SWAP2 POP POP JUMP JUMPDEST PUSH0 PUSH2 0x1181 DUP3 PUSH2 0xEB5 JUMP JUMPDEST PUSH2 0x118B DUP2 DUP6 PUSH2 0x1167 JUMP JUMPDEST SWAP4 POP PUSH2 0x119B DUP2 DUP6 PUSH1 0x20 DUP7 ADD PUSH2 0xECF JUMP JUMPDEST PUSH2 0x11A4 DUP2 PUSH2 0xEDD JUMP JUMPDEST DUP5 ADD SWAP2 POP POP SWAP3 SWAP2 POP POP JUMP JUMPDEST PUSH0 DUP2 ISZERO ISZERO SWAP1 POP SWAP2 SWAP1 POP JUMP JUMPDEST PUSH2 0x11C3 DUP2 PUSH2 0x11AF JUMP JUMPDEST DUP3 MSTORE POP POP JUMP JUMPDEST PUSH0 PUSH1 0xA0 DUP3 ADD SWAP1 POP DUP2 DUP2 SUB PUSH0 DUP4 ADD MSTORE PUSH2 0x11E1 DUP2 DUP9 PUSH2 0x1177 JUMP JUMPDEST SWAP1 POP PUSH2 0x11F0 PUSH1 0x20 DUP4 ADD DUP8 PUSH2 0xE67 JUMP JUMPDEST PUSH2 0x11FD PUSH1 0x40 DUP4 ADD DUP7 PUSH2 0xEA6 JUMP JUMPDEST PUSH2 0x120A PUSH1 0x60 DUP4 ADD DUP6 PUSH2 0x11BA JUMP JUMPDEST PUSH2 0x1217 PUSH1 0x80 DUP4 ADD DUP5 PUSH2 0xE67 JUMP JUMPDEST SWAP7 SWAP6 POP POP POP POP POP POP JUMP JUMPDEST PUSH0 DUP1 REVERT JUMPDEST PUSH0 DUP1 REVERT JUMPDEST PUSH32 0x4E487B7100000000000000000000000000000000000000000000000000000000 PUSH0 MSTORE PUSH1 0x41 PUSH1 0x4 MSTORE PUSH1 0x24 PUSH0 REVERT JUMPDEST PUSH2 0x125F DUP3 PUSH2 0xEDD JUMP JUMPDEST DUP2 ADD DUP2 DUP2 LT PUSH8 0xFFFFFFFFFFFFFFFF DUP3 GT OR ISZERO PUSH2 0x127E JUMPI PUSH2 0x127D PUSH2 0x1229 JUMP JUMPDEST JUMPDEST DUP1 PUSH1 0x40 MSTORE POP POP POP JUMP JUMPDEST PUSH0 PUSH2 0x1290 PUSH2 0xDF8 JUMP JUMPDEST SWAP1 POP PUSH2 0x129C DUP3 DUP3 PUSH2 0x1256 JUMP JUMPDEST SWAP2 SWAP1 POP JUMP JUMPDEST PUSH0 PUSH8 0xFFFFFFFFFFFFFFFF DUP3 GT ISZERO PUSH2 0x12BB JUMPI PUSH2 0x12BA PUSH2 0x1229 JUMP JUMPDEST JUMPDEST PUSH2 0x12C4 DUP3 PUSH2 0xEDD JUMP JUMPDEST SWAP1 POP PUSH1 0x20 DUP2 ADD SWAP1 POP SWAP2 SWAP1 POP JUMP JUMPDEST DUP3 DUP2 DUP4 CALLDATACOPY PUSH0 DUP4 DUP4 ADD MSTORE POP POP POP JUMP JUMPDEST PUSH0 PUSH2 0x12F1 PUSH2 0x12EC DUP5 PUSH2 0x12A1 JUMP JUMPDEST PUSH2 0x1287 JUMP JUMPDEST SWAP1 POP DUP3 DUP2 MSTORE PUSH1 0x20 DUP2 ADD DUP5 DUP5 DUP5 ADD GT ISZERO PUSH2 0x130D JUMPI PUSH2 0x130C PUSH2 0x1225 JUMP JUMPDEST JUMPDEST PUSH2 0x1318 DUP5 DUP3 DUP6 PUSH2 0x12D1 JUMP JUMPDEST POP SWAP4 SWAP3 POP POP POP JUMP JUMPDEST PUSH0 DUP3 PUSH1 0x1F DUP4 ADD SLT PUSH2 0x1334 JUMPI PUSH2 0x1333 PUSH2 0x1221 JUMP JUMPDEST JUMPDEST DUP2 CALLDATALOAD PUSH2 0x1344 DUP5 DUP3 PUSH1 0x20 DUP7 ADD PUSH2 0x12DF JUMP JUMPDEST SWAP2 POP POP SWAP3 SWAP2 POP POP JUMP JUMPDEST PUSH2 0x1356 DUP2 PUSH2 0xE95 JUMP JUMPDEST DUP2 EQ PUSH2 0x1360 JUMPI PUSH0 DUP1 REVERT JUMPDEST POP JUMP JUMPDEST PUSH0 DUP2 CALLDATALOAD SWAP1 POP PUSH2 0x1371 DUP2 PUSH2 0x134D JUMP JUMPDEST SWAP3 SWAP2 POP POP JUMP JUMPDEST PUSH0 DUP1 PUSH0 PUSH1 0x60 DUP5 DUP7 SUB SLT ISZERO PUSH2 0x138E JUMPI PUSH2 0x138D PUSH2 0xE01 JUMP JUMPDEST JUMPDEST PUSH0 DUP5 ADD CALLDATALOAD PUSH8 0xFFFFFFFFFFFFFFFF DUP2 GT ISZERO PUSH2 0x13AB JUMPI PUSH2 0x13AA PUSH2 0xE05 JUMP JUMPDEST JUMPDEST PUSH2 0x13B7 DUP7 DUP3 DUP8 ADD PUSH2 0x1320 JUMP JUMPDEST SWAP4 POP POP PUSH1 0x20 PUSH2 0x13C8 DUP7 DUP3 DUP8 ADD PUSH2 0xE28 JUMP JUMPDEST SWAP3 POP POP PUSH1 0x40 PUSH2 0x13D9 DUP7 DUP3 DUP8 ADD PUSH2 0x1363 JUMP JUMPDEST SWAP2 POP POP SWAP3 POP SWAP3 POP SWAP3 JUMP JUMPDEST PUSH32 0x4E487B7100000000000000000000000000000000000000000000000000000000 PUSH0 MSTORE PUSH1 0x32 PUSH1 0x4 MSTORE PUSH1 0x24 PUSH0 REVERT JUMPDEST PUSH32 0x4E487B7100000000000000000000000000000000000000000000000000000000 PUSH0 MSTORE PUSH1 0x12 PUSH1 0x4 MSTORE PUSH1 0x24 PUSH0 REVERT JUMPDEST PUSH32 0x4E487B7100000000000000000000000000000000000000000000000000000000 PUSH0 MSTORE PUSH1 0x11 PUSH1 0x4 MSTORE PUSH1 0x24 PUSH0 REVERT JUMPDEST PUSH0 PUSH2 0x1474 DUP3 PUSH2 0xE09 JUMP JUMPDEST SWAP2 POP PUSH2 0x147F DUP4 PUSH2 0xE09 JUMP JUMPDEST SWAP3 POP DUP3 PUSH2 0x148F JUMPI PUSH2 0x148E PUSH2 0x1410 JUMP JUMPDEST JUMPDEST DUP3 DUP3 DIV SWAP1 POP SWAP3 SWAP2 POP POP JUMP JUMPDEST PUSH32 0x4E487B7100000000000000000000000000000000000000000000000000000000 PUSH0 MSTORE PUSH1 0x22 PUSH1 0x4 MSTORE PUSH1 0x24 PUSH0 REVERT JUMPDEST PUSH0 PUSH1 0x2 DUP3 DIV SWAP1 POP PUSH1 0x1 DUP3 AND DUP1 PUSH2 0x14DE JUMPI PUSH1 0x7F DUP3 AND SWAP2 POP JUMPDEST PUSH1 0x20 DUP3 LT DUP2 SUB PUSH2 0x14F1 JUMPI PUSH2 0x14F0 PUSH2 0x149A JUMP JUMPDEST JUMPDEST POP SWAP2 SWAP1 POP JUMP JUMPDEST PUSH0 DUP2 SWAP1 POP DUP2 PUSH0 MSTORE PUSH1 0x20 PUSH0 KECCAK256 SWAP1 POP SWAP2 SWAP1 POP JUMP JUMPDEST PUSH0 PUSH1 0x20 PUSH1 0x1F DUP4 ADD DIV SWAP1 POP SWAP2 SWAP1 POP JUMP JUMPDEST PUSH0 DUP3 DUP3 SHL SWAP1 POP SWAP3 SWAP2 POP POP JUMP JUMPDEST PUSH0 PUSH1 0x8 DUP4 MUL PUSH2 0x1553 PUSH32 0xFFFFFFFFFFFFFFFFFFFFFFFFFFFFFFFFFFFFFFFFFFFFFFFFFFFFFFFFFFFFFFFF DUP3 PUSH2 0x1518 JUMP JUMPDEST PUSH2 0x155D DUP7 DUP4 PUSH2 0x1518 JUMP JUMPDEST SWAP6 POP DUP1 NOT DUP5 AND SWAP4 POP DUP1 DUP7 AND DUP5 OR SWAP3 POP POP POP SWAP4 SWAP3 POP POP POP JUMP JUMPDEST PUSH0 DUP2 SWAP1 POP SWAP2 SWAP1 POP JUMP JUMPDEST PUSH0 PUSH2 0x1598 PUSH2 0x1593 PUSH2 0x158E DUP5 PUSH2 0xE09 JUMP JUMPDEST PUSH2 0x1575 JUMP JUMPDEST PUSH2 0xE09 JUMP JUMPDEST SWAP1 POP SWAP2 SWAP1 POP JUMP JUMPDEST PUSH0 DUP2 SWAP1 POP SWAP2 SWAP1 POP JUMP JUMPDEST PUSH2 0x15B1 DUP4 PUSH2 0x157E JUMP JUMPDEST PUSH2 0x15C5 PUSH2 0x15BD DUP3 PUSH2 0x159F JUMP JUMPDEST DUP5 DUP5 SLOAD PUSH2 0x1524 JUMP JUMPDEST DUP3 SSTORE POP POP POP POP JUMP JUMPDEST PUSH0 SWAP1 JUMP JUMPDEST PUSH2 0x15D9 PUSH2 0x15CD JUMP JUMPDEST PUSH2 0x15E4 DUP2 DUP5 DUP5 PUSH2 0x15A8 JUMP JUMPDEST POP POP POP JUMP JUMPDEST JUMPDEST DUP2 DUP2 LT ISZERO PUSH2 0x1607 JUMPI PUSH2 0x15FC PUSH0 DUP3 PUSH2 0x15D1 JUMP JUMPDEST PUSH1 0x1 DUP2 ADD SWAP1 POP PUSH2 0x15EA JUMP JUMPDEST POP POP JUMP JUMPDEST PUSH1 0x1F DUP3 GT ISZERO PUSH2 0x164C JUMPI PUSH2 0x161D DUP2 PUSH2 0x14F7 JUMP JUMPDEST PUSH2 0x1626 DUP5 PUSH2 0x1509 JUMP JUMPDEST DUP2 ADD PUSH1 0x20 DUP6 LT ISZERO PUSH2 0x1635 JUMPI DUP2 SWAP1 POP JUMPDEST PUSH2 0x1649 PUSH2 0x1641 DUP6 PUSH2 0x1509 JUMP JUMPDEST DUP4 ADD DUP3 PUSH2 0x15E9 JUMP JUMPDEST POP POP JUMPDEST POP POP POP JUMP JUMPDEST PUSH0 DUP3 DUP3 SHR SWAP1 POP SWAP3 SWAP2 POP POP JUMP JUMPDEST PUSH0 PUSH2 0x166C PUSH0 NOT DUP5 PUSH1 0x8 MUL PUSH2 0x1651 JUMP JUMPDEST NOT DUP1 DUP4 AND SWAP2 POP POP SWAP3 SWAP2 POP POP JUMP JUMPDEST PUSH0 PUSH2 0x1684 DUP4 DUP4 PUSH2 0x165D JUMP JUMPDEST SWAP2 POP DUP3 PUSH1 0x2 MUL DUP3 OR SWAP1 POP SWAP3 SWAP2 POP POP JUMP JUMPDEST PUSH2 0x169D DUP3 PUSH2 0xEB5 JUMP JUMPDEST PUSH8 0xFFFFFFFFFFFFFFFF DUP2 GT ISZERO PUSH2 0x16B6 JUMPI PUSH2 0x16B5 PUSH2 0x1229 JUMP JUMPDEST JUMPDEST PUSH2 0x16C0 DUP3 SLOAD PUSH2 0x14C7 JUMP JUMPDEST PUSH2 0x16CB DUP3 DUP3 DUP6 PUSH2 0x160B JUMP JUMPDEST PUSH0 PUSH1 0x20 SWAP1 POP PUSH1 0x1F DUP4 GT PUSH1 0x1 DUP2 EQ PUSH2 0x16FC JUMPI PUSH0 DUP5 ISZERO PUSH2 0x16EA JUMPI DUP3 DUP8 ADD MLOAD SWAP1 POP JUMPDEST PUSH2 0x16F4 DUP6 DUP3 PUSH2 0x1679 JUMP JUMPDEST DUP7 SSTORE POP PUSH2 0x175B JUMP JUMPDEST PUSH1 0x1F NOT DUP5 AND PUSH2 0x170A DUP7 PUSH2 0x14F7 JUMP JUMPDEST PUSH0 JUMPDEST DUP3 DUP2 LT ISZERO PUSH2 0x1731 JUMPI DUP5 DUP10 ADD MLOAD DUP3 SSTORE PUSH1 0x1 DUP3 ADD SWAP2 POP PUSH1 0x20 DUP6 ADD SWAP5 POP PUSH1 0x20 DUP2 ADD SWAP1 POP PUSH2 0x170C JUMP JUMPDEST DUP7 DUP4 LT ISZERO PUSH2 0x174E JUMPI DUP5 DUP10 ADD MLOAD PUSH2 0x174A PUSH1 0x1F DUP10 AND DUP3 PUSH2 0x165D JUMP JUMPDEST DUP4 SSTORE POP JUMPDEST PUSH1 0x1 PUSH1 0x2 DUP9 MUL ADD DUP9 SSTORE POP POP POP JUMPDEST POP POP POP POP POP POP JUMP JUMPDEST PUSH0 PUSH2 0x176D DUP3 PUSH2 0xE09 JUMP JUMPDEST SWAP2 POP PUSH32 0xFFFFFFFFFFFFFFFFFFFFFFFFFFFFFFFFFFFFFFFFFFFFFFFFFFFFFFFFFFFFFFFF DUP3 SUB PUSH2 0x179F JUMPI PUSH2 0x179E PUSH2 0x143D JUMP JUMPDEST JUMPDEST PUSH1 0x1 DUP3 ADD SWAP1 POP SWAP2 SWAP1 POP JUMP INVALID LOG2 PUSH5 0x6970667358 0x22 SLT KECCAK256 0x2F EXP NOT TSTORE PUSH29 0x4A83FF25B46DF3D04AA2F8BD2041A3485A950BDC64C58A22C33C1D6473 PUSH16 0x6C634300081900330000000000000000 "},"gasEstimates":{"creation":{"codeDepositCost":"1222400","executionCost":"infinite","totalCost":"infinite"},"external":{"approveRequest(uint256)":"infinite","contribute()":"51014","createRequest(string,uint256,address)":"infinite","finalizeRequest(uint256)":"infinite","getSummary()":"infinite","requests(uint256)":"infinite"}},"methodIdentifiers":{"approveRequest(uint256)":"d7d1bbdb","contribute()":"d7bb99ba","createRequest(string,uint256,address)":"8a9cfd55","finalizeRequest(uint256)":"03441006","getSummary()":"4051ddac","requests(uint256)":"81d12c58"}},"storageLayout":{"storage":[{"astId":95,"contract":"Campaign.sol:Campaign","label":"requests","offset":0,"slot":"0","type":"t_array(t_struct(Request)57_storage)dyn_storage"},{"astId":98,"contract":"Campaign.sol:Campaign","label":"reward","offset":0,"slot":"1","type":"t_struct(Reward)72_storage"},{"astId":101,"contract":"Campaign.sol:Campaign","label":"metaData","offset":0,"slot":"8","type":"t_struct(MetaData)91_storage"},{"astId":103,"contract":"Campaign.sol:Campaign","label":"manager","offset":0,"slot":"17","type":"t_address"},{"astId":105,"contract":"Campaign.sol:Campaign","label":"minimumContribution","offset":0,"slot":"18","type":"t_uint256"},{"astId":109,"contract":"Campaign.sol:Campaign","label":"contributors","offset":0,"slot":"19","type":"t_mapping(t_address,t_bool)"},{"astId":111,"contract":"Campaign.sol:Campaign","label":"contributorsCount","offset":0,"slot":"20","type":"t_uint256"},{"astId":113,"contract":"Campaign.sol:Campaign","label":"targetAmount","offset":0,"slot":"21","type":"t_uint256"},{"astId":115,"contract":"Campaign.sol:Campaign","label":"dateCreated","offset":0,"slot":"22","type":"t_uint256"}],"types":{"t_address":{"encoding":"inplace","label":"address","numberOfBytes":"20"},"t_array(t_struct(Request)57_storage)dyn_storage":{"base":"t_struct(Request)57_storage","encoding":"dynamic_array","label":"struct Campaign.Request[]","numberOfBytes":"32"},"t_bool":{"encoding":"inplace","label":"bool","numberOfBytes":"1"},"t_mapping(t_address,t_bool)":{"encoding":"mapping","key":"t_address","label":"mapping(address => bool)","numberOfBytes":"32","value":"t_bool"},"t_string_storage":{"encoding":"bytes","label":"string","numberOfBytes":"32"},"t_struct(MetaData)91_storage":{"encoding":"inplace","label":"struct Campaign.MetaData","members":[{"astId":74,"contract":"Campaign.sol:Campaign","label":"title","offset":0,"slot":"0","type":"t_string_storage"},{"astId":76,"contract":"Campaign.sol:Campaign","label":"subTitle","offset":0,"slot":"1","type":"t_string_storage"},{"astId":78,"contract":"Campaign.sol:Campaign","label":"description","offset":0,"slot":"2","type":"t_string_storage"},{"astId":80,"contract":"Campaign.sol:Campaign","label":"category","offset":0,"slot":"3","type":"t_string_storage"},{"astId":82,"contract":"Campaign.sol:Campaign","label":"subCategory","offset":0,"slot":"4","type":"t_string_storage"},{"astId":84,"contract":"Campaign.sol:Campaign","label":"location","offset":0,"slot":"5","type":"t_string_storage"},{"astId":86,"contract":"Campaign.sol:Campaign","label":"imageUrl","offset":0,"slot":"6","type":"t_string_storage"},{"astId":88,"contract":"Campaign.sol:Campaign","label":"launchDate","offset":0,"slot":"7","type":"t_uint256"},{"astId":90,"contract":"Campaign.sol:Campaign","label":"durationInDays","offset":0,"slot":"8","type":"t_uint256"}],"numberOfBytes":"288"},"t_struct(Request)57_storage":{"encoding":"inplace","label":"struct Campaign.Request","members":[{"astId":44,"contract":"Campaign.sol:Campaign","label":"description","offset":0,"slot":"0","type":"t_string_storage"},{"astId":46,"contract":"Campaign.sol:Campaign","label":"value","offset":0,"slot":"1","type":"t_uint256"},{"astId":48,"contract":"Campaign.sol:Campaign","label":"recipient","offset":0,"slot":"2","type":"t_address"},{"astId":50,"contract":"Campaign.sol:Campaign","label":"complete","offset":20,"slot":"2","type":"t_bool"},{"astId":52,"contract":"Campaign.sol:Campaign","label":"approvalCount","offset":0,"slot":"3","type":"t_uint256"},{"astId":56,"contract":"Campaign.sol:Campaign","label":"approvals","offset":0,"slot":"4","type":"t_mapping(t_address,t_bool)"}],"numberOfBytes":"160"},"t_struct(Reward)72_storage":{"encoding":"inplace","label":"struct Campaign.Reward","members":[{"astId":59,"contract":"Campaign.sol:Campaign","label":"title","offset":0,"slot":"0","type":"t_string_storage"},{"astId":61,"contract":"Campaign.sol:Campaign","label":"description","offset":0,"slot":"1","type":"t_string_storage"},{"astId":63,"contract":"Campaign.sol:Campaign","label":"value","offset":0,"slot":"2","type":"t_uint256"},{"astId":65,"contract":"Campaign.sol:Campaign","label":"imageUrl","offset":0,"slot":"3","type":"t_string_storage"},{"astId":67,"contract":"Campaign.sol:Campaign","label":"category","offset":0,"slot":"4","type":"t_string_storage"},{"astId":69,"contract":"Campaign.sol:Campaign","label":"availableQuantity","offset":0,"slot":"5","type":"t_uint256"},{"astId":71,"contract":"Campaign.sol:Campaign","label":"deadLine","offset":0,"slot":"6","type":"t_uint256"}],"numberOfBytes":"224"},"t_uint256":{"encoding":"inplace","label":"uint256","numberOfBytes":"32"}}},"userdoc":{"kind":"user","methods":{},"version":1}}